{
  "abi": [
    {
      "inputs": [],
      "payable": false,
      "stateMutability": "nonpayable",
      "type": "constructor"
    },
    {
      "anonymous": false,
      "inputs": [
        {
          "indexed": true,
          "internalType": "address",
          "name": "owner",
          "type": "address"
        },
        {
          "indexed": true,
          "internalType": "address",
          "name": "spender",
          "type": "address"
        },
        {
          "indexed": false,
          "internalType": "uint256",
          "name": "value",
          "type": "uint256"
        }
      ],
      "name": "Approval",
      "type": "event"
    },
    {
      "anonymous": false,
      "inputs": [
        {
          "indexed": true,
          "internalType": "address",
          "name": "sender",
          "type": "address"
        },
        {
          "indexed": false,
          "internalType": "uint256",
          "name": "amount0",
          "type": "uint256"
        },
        {
          "indexed": false,
          "internalType": "uint256",
          "name": "amount1",
          "type": "uint256"
        }
      ],
      "name": "Made",
      "type": "event"
    },
    {
      "anonymous": false,
      "inputs": [
        {
          "indexed": true,
          "internalType": "address",
          "name": "sender",
          "type": "address"
        },
        {
          "indexed": false,
          "internalType": "uint256",
          "name": "amount0",
          "type": "uint256"
        },
        {
          "indexed": false,
          "internalType": "uint256",
          "name": "amount1",
          "type": "uint256"
        }
      ],
      "name": "Make",
      "type": "event"
    },
    {
      "anonymous": false,
      "inputs": [
        {
          "indexed": true,
          "internalType": "address",
          "name": "sender",
          "type": "address"
        },
        {
          "indexed": true,
          "internalType": "address",
          "name": "tokenIn",
          "type": "address"
        },
        {
          "indexed": false,
          "internalType": "uint256",
          "name": "amountIn",
          "type": "uint256"
        },
        {
          "indexed": false,
          "internalType": "uint256",
          "name": "amountOut",
          "type": "uint256"
        }
      ],
      "name": "Move",
      "type": "event"
    },
    {
      "anonymous": false,
      "inputs": [
        {
          "indexed": false,
          "internalType": "uint112",
          "name": "reserve0",
          "type": "uint112"
        },
        {
          "indexed": false,
          "internalType": "uint112",
          "name": "reserve1",
          "type": "uint112"
        }
      ],
      "name": "Sync",
      "type": "event"
    },
    {
      "anonymous": false,
      "inputs": [
        {
          "indexed": true,
          "internalType": "address",
          "name": "from",
          "type": "address"
        },
        {
          "indexed": true,
          "internalType": "address",
          "name": "to",
          "type": "address"
        },
        {
          "indexed": false,
          "internalType": "uint256",
          "name": "value",
          "type": "uint256"
        }
      ],
      "name": "Transfer",
      "type": "event"
    },
    {
      "constant": true,
      "inputs": [],
      "name": "DOMAIN_SEPARATOR",
      "outputs": [
        {
          "internalType": "bytes32",
          "name": "",
          "type": "bytes32"
        }
      ],
      "payable": false,
      "stateMutability": "view",
      "type": "function"
    },
    {
      "constant": true,
      "inputs": [],
      "name": "PERMIT_TYPEHASH",
      "outputs": [
        {
          "internalType": "bytes32",
          "name": "",
          "type": "bytes32"
        }
      ],
      "payable": false,
      "stateMutability": "view",
      "type": "function"
    },
    {
      "constant": true,
      "inputs": [
        {
          "internalType": "address",
          "name": "",
          "type": "address"
        },
        {
          "internalType": "address",
          "name": "",
          "type": "address"
        }
      ],
      "name": "allowance",
      "outputs": [
        {
          "internalType": "uint256",
          "name": "",
          "type": "uint256"
        }
      ],
      "payable": false,
      "stateMutability": "view",
      "type": "function"
    },
    {
      "constant": false,
      "inputs": [
        {
          "internalType": "address",
          "name": "spender",
          "type": "address"
        },
        {
          "internalType": "uint256",
          "name": "value",
          "type": "uint256"
        }
      ],
      "name": "approve",
      "outputs": [
        {
          "internalType": "bool",
          "name": "",
          "type": "bool"
        }
      ],
      "payable": false,
      "stateMutability": "nonpayable",
      "type": "function"
    },
    {
      "constant": true,
      "inputs": [
        {
          "internalType": "address",
          "name": "",
          "type": "address"
        }
      ],
      "name": "balanceOf",
      "outputs": [
        {
          "internalType": "uint256",
          "name": "",
          "type": "uint256"
        }
      ],
      "payable": false,
      "stateMutability": "view",
      "type": "function"
    },
    {
      "constant": true,
      "inputs": [],
      "name": "blockNumberLast",
      "outputs": [
        {
          "internalType": "uint32",
          "name": "",
          "type": "uint32"
        }
      ],
      "payable": false,
      "stateMutability": "view",
      "type": "function"
    },
    {
      "constant": false,
      "inputs": [
        {
          "internalType": "uint256",
          "name": "value",
          "type": "uint256"
        }
      ],
      "name": "burn",
      "outputs": [],
      "payable": false,
      "stateMutability": "nonpayable",
      "type": "function"
    },
    {
      "constant": false,
      "inputs": [
        {
          "internalType": "address",
          "name": "from",
          "type": "address"
        },
        {
          "internalType": "uint256",
          "name": "value",
          "type": "uint256"
        }
      ],
      "name": "burnFrom",
      "outputs": [],
      "payable": false,
      "stateMutability": "nonpayable",
      "type": "function"
    },
    {
      "constant": true,
      "inputs": [],
      "name": "decimals",
      "outputs": [
        {
          "internalType": "uint8",
          "name": "",
          "type": "uint8"
        }
      ],
      "payable": false,
      "stateMutability": "view",
      "type": "function"
    },
    {
      "constant": true,
      "inputs": [],
      "name": "factory",
      "outputs": [
        {
          "internalType": "address",
          "name": "",
          "type": "address"
        }
      ],
      "payable": false,
      "stateMutability": "view",
      "type": "function"
    },
    {
      "constant": false,
      "inputs": [
        {
          "internalType": "address",
          "name": "_token0",
          "type": "address"
        },
        {
          "internalType": "address",
          "name": "_token1",
          "type": "address"
        }
      ],
      "name": "initialize",
      "outputs": [],
      "payable": false,
      "stateMutability": "nonpayable",
      "type": "function"
    },
    {
      "constant": false,
      "inputs": [],
      "name": "made",
      "outputs": [
        {
          "internalType": "uint256",
          "name": "amount0",
          "type": "uint256"
        },
        {
          "internalType": "uint256",
          "name": "amount1",
          "type": "uint256"
        }
      ],
      "payable": false,
      "stateMutability": "nonpayable",
      "type": "function"
    },
    {
      "constant": false,
      "inputs": [],
      "name": "make",
      "outputs": [
        {
          "internalType": "uint256",
          "name": "liquidity",
          "type": "uint256"
        }
      ],
      "payable": false,
      "stateMutability": "nonpayable",
      "type": "function"
    },
    {
      "constant": false,
      "inputs": [
        {
          "internalType": "address",
          "name": "tokenIn",
          "type": "address"
        },
        {
          "internalType": "uint256",
          "name": "amountOut",
          "type": "uint256"
        }
      ],
      "name": "move",
      "outputs": [],
      "payable": false,
      "stateMutability": "nonpayable",
      "type": "function"
    },
    {
      "constant": true,
      "inputs": [],
      "name": "name",
      "outputs": [
        {
          "internalType": "string",
          "name": "",
          "type": "string"
        }
      ],
      "payable": false,
      "stateMutability": "view",
      "type": "function"
    },
    {
      "constant": true,
      "inputs": [
        {
          "internalType": "address",
          "name": "",
          "type": "address"
        }
      ],
      "name": "nonces",
      "outputs": [
        {
          "internalType": "uint256",
          "name": "",
          "type": "uint256"
        }
      ],
      "payable": false,
      "stateMutability": "view",
      "type": "function"
    },
    {
      "constant": false,
      "inputs": [
        {
          "internalType": "address",
          "name": "owner",
          "type": "address"
        },
        {
          "internalType": "address",
          "name": "spender",
          "type": "address"
        },
        {
          "internalType": "uint256",
          "name": "value",
          "type": "uint256"
        },
        {
          "internalType": "uint256",
          "name": "nonce",
          "type": "uint256"
        },
        {
          "internalType": "uint256",
          "name": "deadline",
          "type": "uint256"
        },
        {
          "internalType": "uint8",
          "name": "v",
          "type": "uint8"
        },
        {
          "internalType": "bytes32",
          "name": "r",
          "type": "bytes32"
        },
        {
          "internalType": "bytes32",
          "name": "s",
          "type": "bytes32"
        }
      ],
      "name": "permit",
      "outputs": [],
      "payable": false,
      "stateMutability": "nonpayable",
      "type": "function"
    },
    {
      "constant": true,
      "inputs": [],
      "name": "price0CumulativeLast",
      "outputs": [
        {
          "internalType": "uint256",
          "name": "",
          "type": "uint256"
        }
      ],
      "payable": false,
      "stateMutability": "view",
      "type": "function"
    },
    {
      "constant": true,
      "inputs": [],
      "name": "price1CumulativeLast",
      "outputs": [
        {
          "internalType": "uint256",
          "name": "",
          "type": "uint256"
        }
      ],
      "payable": false,
      "stateMutability": "view",
      "type": "function"
    },
    {
      "constant": true,
      "inputs": [],
      "name": "reserve0",
      "outputs": [
        {
          "internalType": "uint112",
          "name": "",
          "type": "uint112"
        }
      ],
      "payable": false,
      "stateMutability": "view",
      "type": "function"
    },
    {
      "constant": true,
      "inputs": [],
      "name": "reserve1",
      "outputs": [
        {
          "internalType": "uint112",
          "name": "",
          "type": "uint112"
        }
      ],
      "payable": false,
      "stateMutability": "view",
      "type": "function"
    },
    {
      "constant": false,
      "inputs": [],
      "name": "skim",
      "outputs": [],
      "payable": false,
      "stateMutability": "nonpayable",
      "type": "function"
    },
    {
      "constant": true,
      "inputs": [],
      "name": "symbol",
      "outputs": [
        {
          "internalType": "string",
          "name": "",
          "type": "string"
        }
      ],
      "payable": false,
      "stateMutability": "view",
      "type": "function"
    },
    {
      "constant": false,
      "inputs": [],
      "name": "sync",
      "outputs": [],
      "payable": false,
      "stateMutability": "nonpayable",
      "type": "function"
    },
    {
      "constant": true,
      "inputs": [],
      "name": "token0",
      "outputs": [
        {
          "internalType": "address",
          "name": "",
          "type": "address"
        }
      ],
      "payable": false,
      "stateMutability": "view",
      "type": "function"
    },
    {
      "constant": true,
      "inputs": [],
      "name": "token1",
      "outputs": [
        {
          "internalType": "address",
          "name": "",
          "type": "address"
        }
      ],
      "payable": false,
      "stateMutability": "view",
      "type": "function"
    },
    {
      "constant": true,
      "inputs": [],
      "name": "totalSupply",
      "outputs": [
        {
          "internalType": "uint256",
          "name": "",
          "type": "uint256"
        }
      ],
      "payable": false,
      "stateMutability": "view",
      "type": "function"
    },
    {
      "constant": false,
      "inputs": [
        {
          "internalType": "address",
          "name": "to",
          "type": "address"
        },
        {
          "internalType": "uint256",
          "name": "value",
          "type": "uint256"
        }
      ],
      "name": "transfer",
      "outputs": [
        {
          "internalType": "bool",
          "name": "",
          "type": "bool"
        }
      ],
      "payable": false,
      "stateMutability": "nonpayable",
      "type": "function"
    },
    {
      "constant": false,
      "inputs": [
        {
          "internalType": "address",
          "name": "from",
          "type": "address"
        },
        {
          "internalType": "address",
          "name": "to",
          "type": "address"
        },
        {
          "internalType": "uint256",
          "name": "value",
          "type": "uint256"
        }
      ],
      "name": "transferFrom",
      "outputs": [
        {
          "internalType": "bool",
          "name": "",
          "type": "bool"
        }
      ],
      "payable": false,
      "stateMutability": "nonpayable",
      "type": "function"
    }
  ],
  "evm": {
    "bytecode": {
      "linkReferences": {},
      "object": "6080604052600e805460ff191660011790553480156200001e57600080fd5b50604080518082018252600a8152692ab734b9bbb0b8102b1960b11b6020808301918252835180850190945260068452652aa72496ab1960d11b90840152815191929160129160009162000074918391620002d8565b5082516200008a906001906020860190620002d8565b506002805460ff191660ff84161790558015620000b657620000b633826001600160e01b03620001d016565b6040514690806052620028f882396052019050604051809103902060006040518082805460018160011615610100020316600290048015620001325780601f106200010f57610100808354040283529182019162000132565b820191906000526020600020905b8154815290600101906020018083116200011d575b505060408051918290038220828201825260018352603160f81b602093840152815180840196909652858201527fc89efdaa54c0f20c7adf612882df0950f5a951637e0307cdcb4c672f298b8bc6606086015260808501959095523060a0808601919091528551808603909101815260c0909401909452505080519101206006555050600880546001600160a01b03191633179055506200037d9050565b620001ec816003546200027960201b6200243c1790919060201c565b6003556001600160a01b038216600090815260046020908152604090912054620002219183906200243c62000279821b17901c565b6001600160a01b03831660008181526004602090815260408083209490945583518581529351929391927fddf252ad1be2c89b69c2b068fc378daa952ba7f163c4a11628f55a4df523b3ef9281900390910190a35050565b80820182811015620002d2576040805162461bcd60e51b815260206004820152601460248201527f64732d6d6174682d6164642d6f766572666c6f77000000000000000000000000604482015290519081900360640190fd5b92915050565b828054600181600116156101000203166002900490600052602060002090601f016020900481019282601f106200031b57805160ff19168380011785556200034b565b828001600101855582156200034b579182015b828111156200034b5782518255916020019190600101906200032e565b50620003599291506200035d565b5090565b6200037a91905b8082111562000359576000815560010162000364565b90565b61256b806200038d6000396000f3fe608060405234801561001057600080fd5b50600436106101cf5760003560e01c80635909c0d511610104578063987ff31c116100a2578063d21220a711610071578063d21220a7146104ee578063dbaef5e0146104f6578063dd62ed3e1461054e578063fff6cae91461057c576101cf565b8063987ff31c14610486578063a9059cbb146104b2578063c45a0155146104de578063c6dad082146104e6576101cf565b806370a08231116100de57806370a082311461040657806379cc67901461042c5780637ecebe001461045857806395d89b411461047e576101cf565b80635909c0d5146103ee5780635a3d5493146103f65780635a76f25e146103fe576101cf565b8063313ce5671161017157806342966c681161014b57806342966c681461035e578063443cb4bc1461037b578063485cc9551461039f57806349f92f2e146103cd576101cf565b8063313ce567146103175780633644e515146103355780633a4b942f1461033d576101cf565b806318160ddd116101ad57806318160ddd146102b55780631dd19cb4146102cf57806323b872dd146102d957806330adf81f1461030f576101cf565b806306fdde03146101d4578063095ea7b3146102515780630dfe168114610291575b600080fd5b6101dc610584565b6040805160208082528351818301528351919283929083019185019080838360005b838110156102165781810151838201526020016101fe565b50505050905090810190601f1680156102435780820380516001836020036101000a031916815260200191505b509250505060405180910390f35b61027d6004803603604081101561026757600080fd5b506001600160a01b038135169060200135610612565b604080519115158252519081900360200190f35b610299610629565b604080516001600160a01b039092168252519081900360200190f35b6102bd610638565b60408051918252519081900360200190f35b6102d761063e565b005b61027d600480360360608110156102ef57600080fd5b506001600160a01b038135811691602081013590911690604001356107ab565b6102bd610845565b61031f610869565b6040805160ff9092168252519081900360200190f35b6102bd610872565b610345610878565b6040805163ffffffff9092168252519081900360200190f35b6102d76004803603602081101561037457600080fd5b503561088b565b610383610898565b604080516001600160701b039092168252519081900360200190f35b6102d7600480360360408110156103b557600080fd5b506001600160a01b03813581169160200135166108a7565b6103d5610955565b6040805192835260208301919091528051918290030190f35b6102bd610bdb565b6102bd610be1565b610383610be7565b6102bd6004803603602081101561041c57600080fd5b50356001600160a01b0316610bfd565b6102d76004803603604081101561044257600080fd5b506001600160a01b038135169060200135610c0f565b6102bd6004803603602081101561046e57600080fd5b50356001600160a01b0316610ca2565b6101dc610cb4565b6102d76004803603604081101561049c57600080fd5b506001600160a01b038135169060200135610d0e565b61027d600480360360408110156104c857600080fd5b506001600160a01b038135169060200135611688565b610299611695565b6102bd6116a4565b610299611973565b6102d7600480360361010081101561050d57600080fd5b506001600160a01b03813581169160208101359091169060408101359060608101359060808101359060ff60a0820135169060c08101359060e00135611982565b6102bd6004803603604081101561056457600080fd5b506001600160a01b0381358116916020013516611c9a565b6102d7611cb7565b6000805460408051602060026001851615610100026000190190941693909304601f8101849004840282018401909252818152929183018282801561060a5780601f106105df5761010080835404028352916020019161060a565b820191906000526020600020905b8154815290600101906020018083116105ed57829003601f168201915b505050505081565b600061061f338484611d58565b5060015b92915050565b6009546001600160a01b031681565b60035481565b600e5460ff16610689576040805162461bcd60e51b8152602060048201526011602482015270155b9a5cddd85c158c8e881313d0d2d151607a1b604482015290519081900360640190fd5b600e805460ff19169055600954600b54604080516370a0823160e01b81523060048201529051610733936001600160a01b031692339261072e926001600160701b039092169185916370a08231916024808301926020929190829003018186803b1580156106f657600080fd5b505afa15801561070a573d6000803e3d6000fd5b505050506040513d602081101561072057600080fd5b50519063ffffffff611dba16565b611e0a565b600a54600b54604080516370a0823160e01b8152306004820152905161079c936001600160a01b031692339261072e92600160701b9092046001600160701b03169185916370a08231916024808301926020929190829003018186803b1580156106f657600080fd5b600e805460ff19166001179055565b6001600160a01b038316600090815260056020908152604080832033845290915281205460001914610830576001600160a01b038416600090815260056020908152604080832033845290915290205461080b908363ffffffff611dba16565b6001600160a01b03851660009081526005602090815260408083203384529091529020555b61083b848484611f74565b5060019392505050565b7f6e71edae12b1b97f4d1f60370fef10105fa2faae0126114a169c64845d6126c981565b60025460ff1681565b60065481565b600b54600160e01b900463ffffffff1681565b610895338261202e565b50565b600b546001600160701b031681565b6008546001600160a01b0316331480156108ca57506009546001600160a01b0316155b80156108df5750600a546001600160a01b0316155b610927576040805162461bcd60e51b81526020600482015260146024820152732ab734b9bbb0b82b191d102327a92124a22222a760611b604482015290519081900360640190fd5b600980546001600160a01b039384166001600160a01b031991821617909155600a8054929093169116179055565b600e54600090819060ff166109a5576040805162461bcd60e51b8152602060048201526011602482015270155b9a5cddd85c158c8e881313d0d2d151607a1b604482015290519081900360640190fd5b600e805460ff1916905530600090815260046020526040902054600354600b546109df9083906001600160701b031663ffffffff6120cb16565b816109e657fe5b600354600b5492909104945090610a0e908390600160701b90046001600160701b03166120cb565b81610a1557fe5b049150600083118015610a285750600082115b610a635760405162461bcd60e51b81526004018080602001828103825260288152602001806124e76028913960400191505060405180910390fd5b600954610a7a906001600160a01b03163385611e0a565b600a54610a91906001600160a01b03163384611e0a565b610a9b308261202e565b600954604080516370a0823160e01b81523060048201529051610b8f926001600160a01b0316916370a08231916024808301926020929190829003018186803b158015610ae757600080fd5b505afa158015610afb573d6000803e3d6000fd5b505050506040513d6020811015610b1157600080fd5b5051600a54604080516370a0823160e01b815230600482015290516001600160a01b03909216916370a0823191602480820192602092909190829003018186803b158015610b5e57600080fd5b505afa158015610b72573d6000803e3d6000fd5b505050506040513d6020811015610b8857600080fd5b505161212e565b6040805184815260208101849052815133927fd1d66712859310dd50fdfd62f5d969f18fc9b5b0e7a4c379acfe7d56fa07f29b928290030190a250600e805460ff191660011790559091565b600c5481565b600d5481565b600b54600160701b90046001600160701b031681565b60046020526000908152604090205481565b6001600160a01b038216600090815260056020908152604080832033845290915290205460001914610c94576001600160a01b0382166000908152600560209081526040808320338452909152902054610c6f908263ffffffff611dba16565b6001600160a01b03831660009081526005602090815260408083203384529091529020555b610c9e828261202e565b5050565b60076020526000908152604090205481565b60018054604080516020600284861615610100026000190190941693909304601f8101849004840282018401909252818152929183018282801561060a5780601f106105df5761010080835404028352916020019161060a565b600e5460ff16610d59576040805162461bcd60e51b8152602060048201526011602482015270155b9a5cddd85c158c8e881313d0d2d151607a1b604482015290519081900360640190fd5b600e805460ff191690556008546040805163011a412160e61b8152905160009283928392839283926001600160a01b0390911691634690484091600480820192602092909190829003018186803b158015610db357600080fd5b505afa158015610dc7573d6000803e3d6000fd5b505050506040513d6020811015610ddd57600080fd5b50516009549091506001600160a01b03888116911614156111e657856000108015610e195750600b54600160701b90046001600160701b031686105b610e6a576040805162461bcd60e51b815260206004820181905260248201527f556e697377617056323a20494e56414c49445f4f55545055545f414d4f554e54604482015290519081900360640190fd5b600954604080516370a0823160e01b815230600482015290516001600160a01b03909216916370a0823191602480820192602092909190829003018186803b158015610eb557600080fd5b505afa158015610ec9573d6000803e3d6000fd5b505050506040513d6020811015610edf57600080fd5b5051600b54909550610f019086906001600160701b031663ffffffff611dba16565b925060008311610f425760405162461bcd60e51b81526004018080602001828103825260248152602001806124c36024913960400191505060405180910390fd5b6001600160a01b03811615610f7257611388610f6584600363ffffffff6120cb16565b81610f6c57fe5b04610f75565b60005b915081156110b857600b54610fae9061271090610fa29089906001600160701b031663ffffffff6120cb16565b9063ffffffff6120cb16565b600b54610fd8906126f890610fa290600160701b90046001600160701b03168a9003818888611dba565b1015611023576040805162461bcd60e51b8152602060048201526015602482015274155b9a5cddd85c158c8e8812d7d59253d310551151605a1b604482015290519081900360640190fd5b60095461103a906001600160a01b03168284611e0a565b600954604080516370a0823160e01b815230600482015290516001600160a01b03909216916370a0823191602480820192602092909190829003018186803b15801561108557600080fd5b505afa158015611099573d6000803e3d6000fd5b505050506040513d60208110156110af57600080fd5b50519450611151565b600b546110dd906103e890610fa29089906001600160701b031663ffffffff6120cb16565b600b54611106906103e590610fa2908790600160701b90046001600160701b03168b90036120cb565b1015611151576040805162461bcd60e51b8152602060048201526015602482015274155b9a5cddd85c158c8e8812d7d59253d310551151605a1b604482015290519081900360640190fd5b600a54611168906001600160a01b03163388611e0a565b600a54604080516370a0823160e01b815230600482015290516001600160a01b03909216916370a0823191602480820192602092909190829003018186803b1580156111b357600080fd5b505afa1580156111c7573d6000803e3d6000fd5b505050506040513d60208110156111dd57600080fd5b50519350611620565b600a546001600160a01b03888116911614611248576040805162461bcd60e51b815260206004820152601e60248201527f556e697377617056323a20494e56414c49445f494e5055545f544f4b454e0000604482015290519081900360640190fd5b8560001080156112625750600b546001600160701b031686105b6112b3576040805162461bcd60e51b815260206004820181905260248201527f556e697377617056323a20494e56414c49445f4f55545055545f414d4f554e54604482015290519081900360640190fd5b600a54604080516370a0823160e01b815230600482015290516001600160a01b03909216916370a0823191602480820192602092909190829003018186803b1580156112fe57600080fd5b505afa158015611312573d6000803e3d6000fd5b505050506040513d602081101561132857600080fd5b5051600b5490945061134b908590600160701b90046001600160701b0316611dba565b92506000831161138c5760405162461bcd60e51b81526004018080602001828103825260248152602001806124c36024913960400191505060405180910390fd5b6001600160a01b038116156113bc576113886113af84600363ffffffff6120cb16565b816113b657fe5b046113bf565b60005b915081156114f657600b546113ed9061271090610fa2908990600160701b90046001600160701b03166120cb565b600b54611416906126f890610fa2906001600160701b03168a900381888863ffffffff611dba16565b1015611461576040805162461bcd60e51b8152602060048201526015602482015274155b9a5cddd85c158c8e8812d7d59253d310551151605a1b604482015290519081900360640190fd5b600a54611478906001600160a01b03168284611e0a565b600a54604080516370a0823160e01b815230600482015290516001600160a01b03909216916370a0823191602480820192602092909190829003018186803b1580156114c357600080fd5b505afa1580156114d7573d6000803e3d6000fd5b505050506040513d60208110156114ed57600080fd5b5051935061158f565b600b5461151c906103e890610fa2908990600160701b90046001600160701b03166120cb565b600b54611544906103e590610fa29087906001600160701b03168b900363ffffffff6120cb16565b101561158f576040805162461bcd60e51b8152602060048201526015602482015274155b9a5cddd85c158c8e8812d7d59253d310551151605a1b604482015290519081900360640190fd5b6009546115a6906001600160a01b03163388611e0a565b600954604080516370a0823160e01b815230600482015290516001600160a01b03909216916370a0823191602480820192602092909190829003018186803b1580156115f157600080fd5b505afa158015611605573d6000803e3d6000fd5b505050506040513d602081101561161b57600080fd5b505194505b61162a858561212e565b604080518481526020810188905281516001600160a01b038a169233927fd6da8ebf850f53609e85e48814c2653298f4dd7eae26867403289b64d17c5ebb929081900390910190a35050600e805460ff191660011790555050505050565b600061061f338484611f74565b6008546001600160a01b031681565b600e5460009060ff166116f2576040805162461bcd60e51b8152602060048201526011602482015270155b9a5cddd85c158c8e881313d0d2d151607a1b604482015290519081900360640190fd5b600e805460ff19169055600954604080516370a0823160e01b815230600482015290516000926001600160a01b0316916370a08231916024808301926020929190829003018186803b15801561174757600080fd5b505afa15801561175b573d6000803e3d6000fd5b505050506040513d602081101561177157600080fd5b5051600a54604080516370a0823160e01b815230600482015290519293506000926001600160a01b03909216916370a0823191602480820192602092909190829003018186803b1580156117c457600080fd5b505afa1580156117d8573d6000803e3d6000fd5b505050506040513d60208110156117ee57600080fd5b5051600b549091506000906118139084906001600160701b031663ffffffff611dba16565b600b54909150600090611837908490600160701b90046001600160701b0316611dba565b90506003546000146118b657600b546003546118b1916001600160701b03169061186890859063ffffffff6120cb16565b8161186f57fe5b04600b600e9054906101000a90046001600160701b03166001600160701b03166118a4600354856120cb90919063ffffffff16565b816118ab57fe5b0461233a565b6118ce565b6118ce6118c9838363ffffffff6120cb16565b612353565b94506000851161190f5760405162461bcd60e51b815260040180806020018281038252602881526020018061250f6028913960400191505060405180910390fd5b61191933866123a5565b611923848461212e565b6040805183815260208101839052815133927f3f280394642c42c8132e12eb42e2d9e378dbd7a457684ed25447c7cfe13a42a0928290030190a25050600e805460ff191660011790555090919050565b600a546001600160a01b031681565b6001600160a01b038816600090815260076020526040902080546001810190915585146119ed576040805162461bcd60e51b815260206004820152601460248201527345524332303a20494e56414c49445f4e4f4e434560601b604482015290519081900360640190fd5b428411611a32576040805162461bcd60e51b815260206004820152600e60248201526d115490cc8c0e881156141254915160921b604482015290519081900360640190fd5b8260ff16601b1480611a4757508260ff16601c145b611a8b576040805162461bcd60e51b815260206004820152601060248201526f22a92199181d1024a72b20a624a22fab60811b604482015290519081900360640190fd5b7f7fffffffffffffffffffffffffffffff5d576e7357a4501ddfe92f46681b20a0811115611af3576040805162461bcd60e51b815260206004820152601060248201526f45524332303a20494e56414c49445f5360801b604482015290519081900360640190fd5b600654604080517f6e71edae12b1b97f4d1f60370fef10105fa2faae0126114a169c64845d6126c96020808301919091526001600160a01b03808d16838501528b166060830152608082018a905260a0820189905260c08083018990528351808403909101815260e08301845280519082012061190160f01b61010084015261010283019490945261012280830194909452825180830390940184526101428201808452845194820194909420600094859052610162830180855281905260ff88166101828401526101a283018790526101c2830186905292519293926001926101e28082019392601f1981019281900390910190855afa158015611bfc573d6000803e3d6000fd5b5050604051601f1901519150506001600160a01b03811615801590611c325750896001600160a01b0316816001600160a01b0316145b611c83576040805162461bcd60e51b815260206004820152601860248201527f45524332303a20494e56414c49445f5349474e41545552450000000000000000604482015290519081900360640190fd5b611c8e8a8a8a611d58565b50505050505050505050565b600560209081526000928352604080842090915290825290205481565b600e5460ff16611d02576040805162461bcd60e51b8152602060048201526011602482015270155b9a5cddd85c158c8e881313d0d2d151607a1b604482015290519081900360640190fd5b600e805460ff19169055600954604080516370a0823160e01b8152306004820152905161079c926001600160a01b0316916370a08231916024808301926020929190829003018186803b158015610ae757600080fd5b6001600160a01b03808416600081815260056020908152604080832094871680845294825291829020859055815185815291517f8c5be1e5ebec7d5bd14f71427d1e84f3dd0314c0f7b2291e5b200ac8c7c3b9259281900390910190a3505050565b80820382811115610623576040805162461bcd60e51b815260206004820152601560248201527464732d6d6174682d7375622d756e646572666c6f7760581b604482015290519081900360640190fd5b604080516001600160a01b038481166024830152604480830185905283518084039091018152606490920183526020820180516001600160e01b031663a9059cbb60e01b178152925182516000946060949389169392918291908083835b60208310611e875780518252601f199092019160209182019101611e68565b6001836020036101000a0380198251168184511680821785525050505050509050019150506000604051808303816000865af19150503d8060008114611ee9576040519150601f19603f3d011682016040523d82523d6000602084013e611eee565b606091505b5091509150818015611f1c575080511580611f1c5750808060200190516020811015611f1957600080fd5b50515b611f6d576040805162461bcd60e51b815260206004820152601a60248201527f556e697377617056323a205452414e534645525f4641494c4544000000000000604482015290519081900360640190fd5b5050505050565b6001600160a01b038316600090815260046020526040902054611f9d908263ffffffff611dba16565b6001600160a01b038085166000908152600460205260408082209390935590841681522054611fd2908263ffffffff61243c16565b6001600160a01b0380841660008181526004602090815260409182902094909455805185815290519193928716927fddf252ad1be2c89b69c2b068fc378daa952ba7f163c4a11628f55a4df523b3ef92918290030190a3505050565b6001600160a01b038216600090815260046020526040902054612057908263ffffffff611dba16565b6001600160a01b038316600090815260046020526040902055600354612083908263ffffffff611dba16565b6003556040805182815290516000916001600160a01b038516917fddf252ad1be2c89b69c2b068fc378daa952ba7f163c4a11628f55a4df523b3ef9181900360200190a35050565b60008115806120e6575050808202828282816120e357fe5b04145b610623576040805162461bcd60e51b815260206004820152601460248201527364732d6d6174682d6d756c2d6f766572666c6f7760601b604482015290519081900360640190fd5b6001600160701b03821180159061214c57506001600160701b038111155b61219d576040805162461bcd60e51b815260206004820152601b60248201527f556e697377617056323a2042414c414e43455f4f564552464c4f570000000000604482015290519081900360640190fd5b600b5463ffffffff43811691600160e01b81049091168203906001600160701b0316158015906121de5750600b54600160701b90046001600160701b031615155b80156121f0575060008163ffffffff16115b1561229157600b5463ffffffff821690612235906001600160701b03600160701b8204811691612220911661248b565b6001600160e01b03169063ffffffff61249d16565b600c80546001600160e01b039290921692909202019055600b5463ffffffff821690612279906001600160701b038082169161222091600160701b9091041661248b565b600d80546001600160e01b0392909216929092020190555b600b80546dffffffffffffffffffffffffffff19166001600160701b03868116919091176dffffffffffffffffffffffffffff60701b1916600160701b8683168102919091176001600160e01b0316600160e01b63ffffffff871602179283905560408051848416815291909304909116602082015281517f1c411e9a96e071241c2f21f7726b17ae89e3cab4c78be50e062b03a9fffbbad1929181900390910190a150505050565b60008183111561234a578161234c565b825b9392505050565b60006003821115612396575080600260018201045b818110156123905780915060028182858161237f57fe5b04018161238857fe5b049050612368565b506123a0565b81156123a0575060015b919050565b6003546123b8908263ffffffff61243c16565b6003556001600160a01b0382166000908152600460205260409020546123e4908263ffffffff61243c16565b6001600160a01b03831660008181526004602090815260408083209490945583518581529351929391927fddf252ad1be2c89b69c2b068fc378daa952ba7f163c4a11628f55a4df523b3ef9281900390910190a35050565b80820182811015610623576040805162461bcd60e51b815260206004820152601460248201527364732d6d6174682d6164642d6f766572666c6f7760601b604482015290519081900360640190fd5b6001600160701b0316600160701b0290565b6000816001600160701b0316836001600160e01b0316816124ba57fe5b04939250505056fe556e697377617056323a20494e53554646494349454e545f494e5055545f414d4f554e54556e697377617056323a20494e53554646494349454e545f4c49515549444954595f4255524e4544556e697377617056323a20494e53554646494349454e545f4c49515549444954595f4d494e544544a265627a7a7231582043f85cca588c14e5dcd6351a7c09e05047af2412534312ec317ef6d4165c420f64736f6c634300050f0032454950373132446f6d61696e28737472696e67206e616d652c737472696e672076657273696f6e2c75696e7432353620636861696e49642c6164647265737320766572696679696e67436f6e747261637429",
      "opcodes": "PUSH1 0x80 PUSH1 0x40 MSTORE PUSH1 0xE DUP1 SLOAD PUSH1 0xFF NOT AND PUSH1 0x1 OR SWAP1 SSTORE CALLVALUE DUP1 ISZERO PUSH3 0x1E JUMPI PUSH1 0x0 DUP1 REVERT JUMPDEST POP PUSH1 0x40 DUP1 MLOAD DUP1 DUP3 ADD DUP3 MSTORE PUSH1 0xA DUP2 MSTORE PUSH10 0x2AB734B9BBB0B8102B19 PUSH1 0xB1 SHL PUSH1 0x20 DUP1 DUP4 ADD SWAP2 DUP3 MSTORE DUP4 MLOAD DUP1 DUP6 ADD SWAP1 SWAP5 MSTORE PUSH1 0x6 DUP5 MSTORE PUSH6 0x2AA72496AB19 PUSH1 0xD1 SHL SWAP1 DUP5 ADD MSTORE DUP2 MLOAD SWAP2 SWAP3 SWAP2 PUSH1 0x12 SWAP2 PUSH1 0x0 SWAP2 PUSH3 0x74 SWAP2 DUP4 SWAP2 PUSH3 0x2D8 JUMP JUMPDEST POP DUP3 MLOAD PUSH3 0x8A SWAP1 PUSH1 0x1 SWAP1 PUSH1 0x20 DUP7 ADD SWAP1 PUSH3 0x2D8 JUMP JUMPDEST POP PUSH1 0x2 DUP1 SLOAD PUSH1 0xFF NOT AND PUSH1 0xFF DUP5 AND OR SWAP1 SSTORE DUP1 ISZERO PUSH3 0xB6 JUMPI PUSH3 0xB6 CALLER DUP3 PUSH1 0x1 PUSH1 0x1 PUSH1 0xE0 SHL SUB PUSH3 0x1D0 AND JUMP JUMPDEST PUSH1 0x40 MLOAD CHAINID SWAP1 DUP1 PUSH1 0x52 PUSH3 0x28F8 DUP3 CODECOPY PUSH1 0x52 ADD SWAP1 POP PUSH1 0x40 MLOAD DUP1 SWAP2 SUB SWAP1 KECCAK256 PUSH1 0x0 PUSH1 0x40 MLOAD DUP1 DUP3 DUP1 SLOAD PUSH1 0x1 DUP2 PUSH1 0x1 AND ISZERO PUSH2 0x100 MUL SUB AND PUSH1 0x2 SWAP1 DIV DUP1 ISZERO PUSH3 0x132 JUMPI DUP1 PUSH1 0x1F LT PUSH3 0x10F JUMPI PUSH2 0x100 DUP1 DUP4 SLOAD DIV MUL DUP4 MSTORE SWAP2 DUP3 ADD SWAP2 PUSH3 0x132 JUMP JUMPDEST DUP3 ADD SWAP2 SWAP1 PUSH1 0x0 MSTORE PUSH1 0x20 PUSH1 0x0 KECCAK256 SWAP1 JUMPDEST DUP2 SLOAD DUP2 MSTORE SWAP1 PUSH1 0x1 ADD SWAP1 PUSH1 0x20 ADD DUP1 DUP4 GT PUSH3 0x11D JUMPI JUMPDEST POP POP PUSH1 0x40 DUP1 MLOAD SWAP2 DUP3 SWAP1 SUB DUP3 KECCAK256 DUP3 DUP3 ADD DUP3 MSTORE PUSH1 0x1 DUP4 MSTORE PUSH1 0x31 PUSH1 0xF8 SHL PUSH1 0x20 SWAP4 DUP5 ADD MSTORE DUP2 MLOAD DUP1 DUP5 ADD SWAP7 SWAP1 SWAP7 MSTORE DUP6 DUP3 ADD MSTORE PUSH32 0xC89EFDAA54C0F20C7ADF612882DF0950F5A951637E0307CDCB4C672F298B8BC6 PUSH1 0x60 DUP7 ADD MSTORE PUSH1 0x80 DUP6 ADD SWAP6 SWAP1 SWAP6 MSTORE ADDRESS PUSH1 0xA0 DUP1 DUP7 ADD SWAP2 SWAP1 SWAP2 MSTORE DUP6 MLOAD DUP1 DUP7 SUB SWAP1 SWAP2 ADD DUP2 MSTORE PUSH1 0xC0 SWAP1 SWAP5 ADD SWAP1 SWAP5 MSTORE POP POP DUP1 MLOAD SWAP2 ADD KECCAK256 PUSH1 0x6 SSTORE POP POP PUSH1 0x8 DUP1 SLOAD PUSH1 0x1 PUSH1 0x1 PUSH1 0xA0 SHL SUB NOT AND CALLER OR SWAP1 SSTORE POP PUSH3 0x37D SWAP1 POP JUMP JUMPDEST PUSH3 0x1EC DUP2 PUSH1 0x3 SLOAD PUSH3 0x279 PUSH1 0x20 SHL PUSH3 0x243C OR SWAP1 SWAP2 SWAP1 PUSH1 0x20 SHR JUMP JUMPDEST PUSH1 0x3 SSTORE PUSH1 0x1 PUSH1 0x1 PUSH1 0xA0 SHL SUB DUP3 AND PUSH1 0x0 SWAP1 DUP2 MSTORE PUSH1 0x4 PUSH1 0x20 SWAP1 DUP2 MSTORE PUSH1 0x40 SWAP1 SWAP2 KECCAK256 SLOAD PUSH3 0x221 SWAP2 DUP4 SWAP1 PUSH3 0x243C PUSH3 0x279 DUP3 SHL OR SWAP1 SHR JUMP JUMPDEST PUSH1 0x1 PUSH1 0x1 PUSH1 0xA0 SHL SUB DUP4 AND PUSH1 0x0 DUP2 DUP2 MSTORE PUSH1 0x4 PUSH1 0x20 SWAP1 DUP2 MSTORE PUSH1 0x40 DUP1 DUP4 KECCAK256 SWAP5 SWAP1 SWAP5 SSTORE DUP4 MLOAD DUP6 DUP2 MSTORE SWAP4 MLOAD SWAP3 SWAP4 SWAP2 SWAP3 PUSH32 0xDDF252AD1BE2C89B69C2B068FC378DAA952BA7F163C4A11628F55A4DF523B3EF SWAP3 DUP2 SWAP1 SUB SWAP1 SWAP2 ADD SWAP1 LOG3 POP POP JUMP JUMPDEST DUP1 DUP3 ADD DUP3 DUP2 LT ISZERO PUSH3 0x2D2 JUMPI PUSH1 0x40 DUP1 MLOAD PUSH3 0x461BCD PUSH1 0xE5 SHL DUP2 MSTORE PUSH1 0x20 PUSH1 0x4 DUP3 ADD MSTORE PUSH1 0x14 PUSH1 0x24 DUP3 ADD MSTORE PUSH32 0x64732D6D6174682D6164642D6F766572666C6F77000000000000000000000000 PUSH1 0x44 DUP3 ADD MSTORE SWAP1 MLOAD SWAP1 DUP2 SWAP1 SUB PUSH1 0x64 ADD SWAP1 REVERT JUMPDEST SWAP3 SWAP2 POP POP JUMP JUMPDEST DUP3 DUP1 SLOAD PUSH1 0x1 DUP2 PUSH1 0x1 AND ISZERO PUSH2 0x100 MUL SUB AND PUSH1 0x2 SWAP1 DIV SWAP1 PUSH1 0x0 MSTORE PUSH1 0x20 PUSH1 0x0 KECCAK256 SWAP1 PUSH1 0x1F ADD PUSH1 0x20 SWAP1 DIV DUP2 ADD SWAP3 DUP3 PUSH1 0x1F LT PUSH3 0x31B JUMPI DUP1 MLOAD PUSH1 0xFF NOT AND DUP4 DUP1 ADD OR DUP6 SSTORE PUSH3 0x34B JUMP JUMPDEST DUP3 DUP1 ADD PUSH1 0x1 ADD DUP6 SSTORE DUP3 ISZERO PUSH3 0x34B JUMPI SWAP2 DUP3 ADD JUMPDEST DUP3 DUP2 GT ISZERO PUSH3 0x34B JUMPI DUP3 MLOAD DUP3 SSTORE SWAP2 PUSH1 0x20 ADD SWAP2 SWAP1 PUSH1 0x1 ADD SWAP1 PUSH3 0x32E JUMP JUMPDEST POP PUSH3 0x359 SWAP3 SWAP2 POP PUSH3 0x35D JUMP JUMPDEST POP SWAP1 JUMP JUMPDEST PUSH3 0x37A SWAP2 SWAP1 JUMPDEST DUP1 DUP3 GT ISZERO PUSH3 0x359 JUMPI PUSH1 0x0 DUP2 SSTORE PUSH1 0x1 ADD PUSH3 0x364 JUMP JUMPDEST SWAP1 JUMP JUMPDEST PUSH2 0x256B DUP1 PUSH3 0x38D PUSH1 0x0 CODECOPY PUSH1 0x0 RETURN INVALID PUSH1 0x80 PUSH1 0x40 MSTORE CALLVALUE DUP1 ISZERO PUSH2 0x10 JUMPI PUSH1 0x0 DUP1 REVERT JUMPDEST POP PUSH1 0x4 CALLDATASIZE LT PUSH2 0x1CF JUMPI PUSH1 0x0 CALLDATALOAD PUSH1 0xE0 SHR DUP1 PUSH4 0x5909C0D5 GT PUSH2 0x104 JUMPI DUP1 PUSH4 0x987FF31C GT PUSH2 0xA2 JUMPI DUP1 PUSH4 0xD21220A7 GT PUSH2 0x71 JUMPI DUP1 PUSH4 0xD21220A7 EQ PUSH2 0x4EE JUMPI DUP1 PUSH4 0xDBAEF5E0 EQ PUSH2 0x4F6 JUMPI DUP1 PUSH4 0xDD62ED3E EQ PUSH2 0x54E JUMPI DUP1 PUSH4 0xFFF6CAE9 EQ PUSH2 0x57C JUMPI PUSH2 0x1CF JUMP JUMPDEST DUP1 PUSH4 0x987FF31C EQ PUSH2 0x486 JUMPI DUP1 PUSH4 0xA9059CBB EQ PUSH2 0x4B2 JUMPI DUP1 PUSH4 0xC45A0155 EQ PUSH2 0x4DE JUMPI DUP1 PUSH4 0xC6DAD082 EQ PUSH2 0x4E6 JUMPI PUSH2 0x1CF JUMP JUMPDEST DUP1 PUSH4 0x70A08231 GT PUSH2 0xDE JUMPI DUP1 PUSH4 0x70A08231 EQ PUSH2 0x406 JUMPI DUP1 PUSH4 0x79CC6790 EQ PUSH2 0x42C JUMPI DUP1 PUSH4 0x7ECEBE00 EQ PUSH2 0x458 JUMPI DUP1 PUSH4 0x95D89B41 EQ PUSH2 0x47E JUMPI PUSH2 0x1CF JUMP JUMPDEST DUP1 PUSH4 0x5909C0D5 EQ PUSH2 0x3EE JUMPI DUP1 PUSH4 0x5A3D5493 EQ PUSH2 0x3F6 JUMPI DUP1 PUSH4 0x5A76F25E EQ PUSH2 0x3FE JUMPI PUSH2 0x1CF JUMP JUMPDEST DUP1 PUSH4 0x313CE567 GT PUSH2 0x171 JUMPI DUP1 PUSH4 0x42966C68 GT PUSH2 0x14B JUMPI DUP1 PUSH4 0x42966C68 EQ PUSH2 0x35E JUMPI DUP1 PUSH4 0x443CB4BC EQ PUSH2 0x37B JUMPI DUP1 PUSH4 0x485CC955 EQ PUSH2 0x39F JUMPI DUP1 PUSH4 0x49F92F2E EQ PUSH2 0x3CD JUMPI PUSH2 0x1CF JUMP JUMPDEST DUP1 PUSH4 0x313CE567 EQ PUSH2 0x317 JUMPI DUP1 PUSH4 0x3644E515 EQ PUSH2 0x335 JUMPI DUP1 PUSH4 0x3A4B942F EQ PUSH2 0x33D JUMPI PUSH2 0x1CF JUMP JUMPDEST DUP1 PUSH4 0x18160DDD GT PUSH2 0x1AD JUMPI DUP1 PUSH4 0x18160DDD EQ PUSH2 0x2B5 JUMPI DUP1 PUSH4 0x1DD19CB4 EQ PUSH2 0x2CF JUMPI DUP1 PUSH4 0x23B872DD EQ PUSH2 0x2D9 JUMPI DUP1 PUSH4 0x30ADF81F EQ PUSH2 0x30F JUMPI PUSH2 0x1CF JUMP JUMPDEST DUP1 PUSH4 0x6FDDE03 EQ PUSH2 0x1D4 JUMPI DUP1 PUSH4 0x95EA7B3 EQ PUSH2 0x251 JUMPI DUP1 PUSH4 0xDFE1681 EQ PUSH2 0x291 JUMPI JUMPDEST PUSH1 0x0 DUP1 REVERT JUMPDEST PUSH2 0x1DC PUSH2 0x584 JUMP JUMPDEST PUSH1 0x40 DUP1 MLOAD PUSH1 0x20 DUP1 DUP3 MSTORE DUP4 MLOAD DUP2 DUP4 ADD MSTORE DUP4 MLOAD SWAP2 SWAP3 DUP4 SWAP3 SWAP1 DUP4 ADD SWAP2 DUP6 ADD SWAP1 DUP1 DUP4 DUP4 PUSH1 0x0 JUMPDEST DUP4 DUP2 LT ISZERO PUSH2 0x216 JUMPI DUP2 DUP2 ADD MLOAD DUP4 DUP3 ADD MSTORE PUSH1 0x20 ADD PUSH2 0x1FE JUMP JUMPDEST POP POP POP POP SWAP1 POP SWAP1 DUP2 ADD SWAP1 PUSH1 0x1F AND DUP1 ISZERO PUSH2 0x243 JUMPI DUP1 DUP3 SUB DUP1 MLOAD PUSH1 0x1 DUP4 PUSH1 0x20 SUB PUSH2 0x100 EXP SUB NOT AND DUP2 MSTORE PUSH1 0x20 ADD SWAP2 POP JUMPDEST POP SWAP3 POP POP POP PUSH1 0x40 MLOAD DUP1 SWAP2 SUB SWAP1 RETURN JUMPDEST PUSH2 0x27D PUSH1 0x4 DUP1 CALLDATASIZE SUB PUSH1 0x40 DUP2 LT ISZERO PUSH2 0x267 JUMPI PUSH1 0x0 DUP1 REVERT JUMPDEST POP PUSH1 0x1 PUSH1 0x1 PUSH1 0xA0 SHL SUB DUP2 CALLDATALOAD AND SWAP1 PUSH1 0x20 ADD CALLDATALOAD PUSH2 0x612 JUMP JUMPDEST PUSH1 0x40 DUP1 MLOAD SWAP2 ISZERO ISZERO DUP3 MSTORE MLOAD SWAP1 DUP2 SWAP1 SUB PUSH1 0x20 ADD SWAP1 RETURN JUMPDEST PUSH2 0x299 PUSH2 0x629 JUMP JUMPDEST PUSH1 0x40 DUP1 MLOAD PUSH1 0x1 PUSH1 0x1 PUSH1 0xA0 SHL SUB SWAP1 SWAP3 AND DUP3 MSTORE MLOAD SWAP1 DUP2 SWAP1 SUB PUSH1 0x20 ADD SWAP1 RETURN JUMPDEST PUSH2 0x2BD PUSH2 0x638 JUMP JUMPDEST PUSH1 0x40 DUP1 MLOAD SWAP2 DUP3 MSTORE MLOAD SWAP1 DUP2 SWAP1 SUB PUSH1 0x20 ADD SWAP1 RETURN JUMPDEST PUSH2 0x2D7 PUSH2 0x63E JUMP JUMPDEST STOP JUMPDEST PUSH2 0x27D PUSH1 0x4 DUP1 CALLDATASIZE SUB PUSH1 0x60 DUP2 LT ISZERO PUSH2 0x2EF JUMPI PUSH1 0x0 DUP1 REVERT JUMPDEST POP PUSH1 0x1 PUSH1 0x1 PUSH1 0xA0 SHL SUB DUP2 CALLDATALOAD DUP2 AND SWAP2 PUSH1 0x20 DUP2 ADD CALLDATALOAD SWAP1 SWAP2 AND SWAP1 PUSH1 0x40 ADD CALLDATALOAD PUSH2 0x7AB JUMP JUMPDEST PUSH2 0x2BD PUSH2 0x845 JUMP JUMPDEST PUSH2 0x31F PUSH2 0x869 JUMP JUMPDEST PUSH1 0x40 DUP1 MLOAD PUSH1 0xFF SWAP1 SWAP3 AND DUP3 MSTORE MLOAD SWAP1 DUP2 SWAP1 SUB PUSH1 0x20 ADD SWAP1 RETURN JUMPDEST PUSH2 0x2BD PUSH2 0x872 JUMP JUMPDEST PUSH2 0x345 PUSH2 0x878 JUMP JUMPDEST PUSH1 0x40 DUP1 MLOAD PUSH4 0xFFFFFFFF SWAP1 SWAP3 AND DUP3 MSTORE MLOAD SWAP1 DUP2 SWAP1 SUB PUSH1 0x20 ADD SWAP1 RETURN JUMPDEST PUSH2 0x2D7 PUSH1 0x4 DUP1 CALLDATASIZE SUB PUSH1 0x20 DUP2 LT ISZERO PUSH2 0x374 JUMPI PUSH1 0x0 DUP1 REVERT JUMPDEST POP CALLDATALOAD PUSH2 0x88B JUMP JUMPDEST PUSH2 0x383 PUSH2 0x898 JUMP JUMPDEST PUSH1 0x40 DUP1 MLOAD PUSH1 0x1 PUSH1 0x1 PUSH1 0x70 SHL SUB SWAP1 SWAP3 AND DUP3 MSTORE MLOAD SWAP1 DUP2 SWAP1 SUB PUSH1 0x20 ADD SWAP1 RETURN JUMPDEST PUSH2 0x2D7 PUSH1 0x4 DUP1 CALLDATASIZE SUB PUSH1 0x40 DUP2 LT ISZERO PUSH2 0x3B5 JUMPI PUSH1 0x0 DUP1 REVERT JUMPDEST POP PUSH1 0x1 PUSH1 0x1 PUSH1 0xA0 SHL SUB DUP2 CALLDATALOAD DUP2 AND SWAP2 PUSH1 0x20 ADD CALLDATALOAD AND PUSH2 0x8A7 JUMP JUMPDEST PUSH2 0x3D5 PUSH2 0x955 JUMP JUMPDEST PUSH1 0x40 DUP1 MLOAD SWAP3 DUP4 MSTORE PUSH1 0x20 DUP4 ADD SWAP2 SWAP1 SWAP2 MSTORE DUP1 MLOAD SWAP2 DUP3 SWAP1 SUB ADD SWAP1 RETURN JUMPDEST PUSH2 0x2BD PUSH2 0xBDB JUMP JUMPDEST PUSH2 0x2BD PUSH2 0xBE1 JUMP JUMPDEST PUSH2 0x383 PUSH2 0xBE7 JUMP JUMPDEST PUSH2 0x2BD PUSH1 0x4 DUP1 CALLDATASIZE SUB PUSH1 0x20 DUP2 LT ISZERO PUSH2 0x41C JUMPI PUSH1 0x0 DUP1 REVERT JUMPDEST POP CALLDATALOAD PUSH1 0x1 PUSH1 0x1 PUSH1 0xA0 SHL SUB AND PUSH2 0xBFD JUMP JUMPDEST PUSH2 0x2D7 PUSH1 0x4 DUP1 CALLDATASIZE SUB PUSH1 0x40 DUP2 LT ISZERO PUSH2 0x442 JUMPI PUSH1 0x0 DUP1 REVERT JUMPDEST POP PUSH1 0x1 PUSH1 0x1 PUSH1 0xA0 SHL SUB DUP2 CALLDATALOAD AND SWAP1 PUSH1 0x20 ADD CALLDATALOAD PUSH2 0xC0F JUMP JUMPDEST PUSH2 0x2BD PUSH1 0x4 DUP1 CALLDATASIZE SUB PUSH1 0x20 DUP2 LT ISZERO PUSH2 0x46E JUMPI PUSH1 0x0 DUP1 REVERT JUMPDEST POP CALLDATALOAD PUSH1 0x1 PUSH1 0x1 PUSH1 0xA0 SHL SUB AND PUSH2 0xCA2 JUMP JUMPDEST PUSH2 0x1DC PUSH2 0xCB4 JUMP JUMPDEST PUSH2 0x2D7 PUSH1 0x4 DUP1 CALLDATASIZE SUB PUSH1 0x40 DUP2 LT ISZERO PUSH2 0x49C JUMPI PUSH1 0x0 DUP1 REVERT JUMPDEST POP PUSH1 0x1 PUSH1 0x1 PUSH1 0xA0 SHL SUB DUP2 CALLDATALOAD AND SWAP1 PUSH1 0x20 ADD CALLDATALOAD PUSH2 0xD0E JUMP JUMPDEST PUSH2 0x27D PUSH1 0x4 DUP1 CALLDATASIZE SUB PUSH1 0x40 DUP2 LT ISZERO PUSH2 0x4C8 JUMPI PUSH1 0x0 DUP1 REVERT JUMPDEST POP PUSH1 0x1 PUSH1 0x1 PUSH1 0xA0 SHL SUB DUP2 CALLDATALOAD AND SWAP1 PUSH1 0x20 ADD CALLDATALOAD PUSH2 0x1688 JUMP JUMPDEST PUSH2 0x299 PUSH2 0x1695 JUMP JUMPDEST PUSH2 0x2BD PUSH2 0x16A4 JUMP JUMPDEST PUSH2 0x299 PUSH2 0x1973 JUMP JUMPDEST PUSH2 0x2D7 PUSH1 0x4 DUP1 CALLDATASIZE SUB PUSH2 0x100 DUP2 LT ISZERO PUSH2 0x50D JUMPI PUSH1 0x0 DUP1 REVERT JUMPDEST POP PUSH1 0x1 PUSH1 0x1 PUSH1 0xA0 SHL SUB DUP2 CALLDATALOAD DUP2 AND SWAP2 PUSH1 0x20 DUP2 ADD CALLDATALOAD SWAP1 SWAP2 AND SWAP1 PUSH1 0x40 DUP2 ADD CALLDATALOAD SWAP1 PUSH1 0x60 DUP2 ADD CALLDATALOAD SWAP1 PUSH1 0x80 DUP2 ADD CALLDATALOAD SWAP1 PUSH1 0xFF PUSH1 0xA0 DUP3 ADD CALLDATALOAD AND SWAP1 PUSH1 0xC0 DUP2 ADD CALLDATALOAD SWAP1 PUSH1 0xE0 ADD CALLDATALOAD PUSH2 0x1982 JUMP JUMPDEST PUSH2 0x2BD PUSH1 0x4 DUP1 CALLDATASIZE SUB PUSH1 0x40 DUP2 LT ISZERO PUSH2 0x564 JUMPI PUSH1 0x0 DUP1 REVERT JUMPDEST POP PUSH1 0x1 PUSH1 0x1 PUSH1 0xA0 SHL SUB DUP2 CALLDATALOAD DUP2 AND SWAP2 PUSH1 0x20 ADD CALLDATALOAD AND PUSH2 0x1C9A JUMP JUMPDEST PUSH2 0x2D7 PUSH2 0x1CB7 JUMP JUMPDEST PUSH1 0x0 DUP1 SLOAD PUSH1 0x40 DUP1 MLOAD PUSH1 0x20 PUSH1 0x2 PUSH1 0x1 DUP6 AND ISZERO PUSH2 0x100 MUL PUSH1 0x0 NOT ADD SWAP1 SWAP5 AND SWAP4 SWAP1 SWAP4 DIV PUSH1 0x1F DUP2 ADD DUP5 SWAP1 DIV DUP5 MUL DUP3 ADD DUP5 ADD SWAP1 SWAP3 MSTORE DUP2 DUP2 MSTORE SWAP3 SWAP2 DUP4 ADD DUP3 DUP3 DUP1 ISZERO PUSH2 0x60A JUMPI DUP1 PUSH1 0x1F LT PUSH2 0x5DF JUMPI PUSH2 0x100 DUP1 DUP4 SLOAD DIV MUL DUP4 MSTORE SWAP2 PUSH1 0x20 ADD SWAP2 PUSH2 0x60A JUMP JUMPDEST DUP3 ADD SWAP2 SWAP1 PUSH1 0x0 MSTORE PUSH1 0x20 PUSH1 0x0 KECCAK256 SWAP1 JUMPDEST DUP2 SLOAD DUP2 MSTORE SWAP1 PUSH1 0x1 ADD SWAP1 PUSH1 0x20 ADD DUP1 DUP4 GT PUSH2 0x5ED JUMPI DUP3 SWAP1 SUB PUSH1 0x1F AND DUP3 ADD SWAP2 JUMPDEST POP POP POP POP POP DUP2 JUMP JUMPDEST PUSH1 0x0 PUSH2 0x61F CALLER DUP5 DUP5 PUSH2 0x1D58 JUMP JUMPDEST POP PUSH1 0x1 JUMPDEST SWAP3 SWAP2 POP POP JUMP JUMPDEST PUSH1 0x9 SLOAD PUSH1 0x1 PUSH1 0x1 PUSH1 0xA0 SHL SUB AND DUP2 JUMP JUMPDEST PUSH1 0x3 SLOAD DUP2 JUMP JUMPDEST PUSH1 0xE SLOAD PUSH1 0xFF AND PUSH2 0x689 JUMPI PUSH1 0x40 DUP1 MLOAD PUSH3 0x461BCD PUSH1 0xE5 SHL DUP2 MSTORE PUSH1 0x20 PUSH1 0x4 DUP3 ADD MSTORE PUSH1 0x11 PUSH1 0x24 DUP3 ADD MSTORE PUSH17 0x155B9A5CDDD85C158C8E881313D0D2D151 PUSH1 0x7A SHL PUSH1 0x44 DUP3 ADD MSTORE SWAP1 MLOAD SWAP1 DUP2 SWAP1 SUB PUSH1 0x64 ADD SWAP1 REVERT JUMPDEST PUSH1 0xE DUP1 SLOAD PUSH1 0xFF NOT AND SWAP1 SSTORE PUSH1 0x9 SLOAD PUSH1 0xB SLOAD PUSH1 0x40 DUP1 MLOAD PUSH4 0x70A08231 PUSH1 0xE0 SHL DUP2 MSTORE ADDRESS PUSH1 0x4 DUP3 ADD MSTORE SWAP1 MLOAD PUSH2 0x733 SWAP4 PUSH1 0x1 PUSH1 0x1 PUSH1 0xA0 SHL SUB AND SWAP3 CALLER SWAP3 PUSH2 0x72E SWAP3 PUSH1 0x1 PUSH1 0x1 PUSH1 0x70 SHL SUB SWAP1 SWAP3 AND SWAP2 DUP6 SWAP2 PUSH4 0x70A08231 SWAP2 PUSH1 0x24 DUP1 DUP4 ADD SWAP3 PUSH1 0x20 SWAP3 SWAP2 SWAP1 DUP3 SWAP1 SUB ADD DUP2 DUP7 DUP1 EXTCODESIZE ISZERO DUP1 ISZERO PUSH2 0x6F6 JUMPI PUSH1 0x0 DUP1 REVERT JUMPDEST POP GAS STATICCALL ISZERO DUP1 ISZERO PUSH2 0x70A JUMPI RETURNDATASIZE PUSH1 0x0 DUP1 RETURNDATACOPY RETURNDATASIZE PUSH1 0x0 REVERT JUMPDEST POP POP POP POP PUSH1 0x40 MLOAD RETURNDATASIZE PUSH1 0x20 DUP2 LT ISZERO PUSH2 0x720 JUMPI PUSH1 0x0 DUP1 REVERT JUMPDEST POP MLOAD SWAP1 PUSH4 0xFFFFFFFF PUSH2 0x1DBA AND JUMP JUMPDEST PUSH2 0x1E0A JUMP JUMPDEST PUSH1 0xA SLOAD PUSH1 0xB SLOAD PUSH1 0x40 DUP1 MLOAD PUSH4 0x70A08231 PUSH1 0xE0 SHL DUP2 MSTORE ADDRESS PUSH1 0x4 DUP3 ADD MSTORE SWAP1 MLOAD PUSH2 0x79C SWAP4 PUSH1 0x1 PUSH1 0x1 PUSH1 0xA0 SHL SUB AND SWAP3 CALLER SWAP3 PUSH2 0x72E SWAP3 PUSH1 0x1 PUSH1 0x70 SHL SWAP1 SWAP3 DIV PUSH1 0x1 PUSH1 0x1 PUSH1 0x70 SHL SUB AND SWAP2 DUP6 SWAP2 PUSH4 0x70A08231 SWAP2 PUSH1 0x24 DUP1 DUP4 ADD SWAP3 PUSH1 0x20 SWAP3 SWAP2 SWAP1 DUP3 SWAP1 SUB ADD DUP2 DUP7 DUP1 EXTCODESIZE ISZERO DUP1 ISZERO PUSH2 0x6F6 JUMPI PUSH1 0x0 DUP1 REVERT JUMPDEST PUSH1 0xE DUP1 SLOAD PUSH1 0xFF NOT AND PUSH1 0x1 OR SWAP1 SSTORE JUMP JUMPDEST PUSH1 0x1 PUSH1 0x1 PUSH1 0xA0 SHL SUB DUP4 AND PUSH1 0x0 SWAP1 DUP2 MSTORE PUSH1 0x5 PUSH1 0x20 SWAP1 DUP2 MSTORE PUSH1 0x40 DUP1 DUP4 KECCAK256 CALLER DUP5 MSTORE SWAP1 SWAP2 MSTORE DUP2 KECCAK256 SLOAD PUSH1 0x0 NOT EQ PUSH2 0x830 JUMPI PUSH1 0x1 PUSH1 0x1 PUSH1 0xA0 SHL SUB DUP5 AND PUSH1 0x0 SWAP1 DUP2 MSTORE PUSH1 0x5 PUSH1 0x20 SWAP1 DUP2 MSTORE PUSH1 0x40 DUP1 DUP4 KECCAK256 CALLER DUP5 MSTORE SWAP1 SWAP2 MSTORE SWAP1 KECCAK256 SLOAD PUSH2 0x80B SWAP1 DUP4 PUSH4 0xFFFFFFFF PUSH2 0x1DBA AND JUMP JUMPDEST PUSH1 0x1 PUSH1 0x1 PUSH1 0xA0 SHL SUB DUP6 AND PUSH1 0x0 SWAP1 DUP2 MSTORE PUSH1 0x5 PUSH1 0x20 SWAP1 DUP2 MSTORE PUSH1 0x40 DUP1 DUP4 KECCAK256 CALLER DUP5 MSTORE SWAP1 SWAP2 MSTORE SWAP1 KECCAK256 SSTORE JUMPDEST PUSH2 0x83B DUP5 DUP5 DUP5 PUSH2 0x1F74 JUMP JUMPDEST POP PUSH1 0x1 SWAP4 SWAP3 POP POP POP JUMP JUMPDEST PUSH32 0x6E71EDAE12B1B97F4D1F60370FEF10105FA2FAAE0126114A169C64845D6126C9 DUP2 JUMP JUMPDEST PUSH1 0x2 SLOAD PUSH1 0xFF AND DUP2 JUMP JUMPDEST PUSH1 0x6 SLOAD DUP2 JUMP JUMPDEST PUSH1 0xB SLOAD PUSH1 0x1 PUSH1 0xE0 SHL SWAP1 DIV PUSH4 0xFFFFFFFF AND DUP2 JUMP JUMPDEST PUSH2 0x895 CALLER DUP3 PUSH2 0x202E JUMP JUMPDEST POP JUMP JUMPDEST PUSH1 0xB SLOAD PUSH1 0x1 PUSH1 0x1 PUSH1 0x70 SHL SUB AND DUP2 JUMP JUMPDEST PUSH1 0x8 SLOAD PUSH1 0x1 PUSH1 0x1 PUSH1 0xA0 SHL SUB AND CALLER EQ DUP1 ISZERO PUSH2 0x8CA JUMPI POP PUSH1 0x9 SLOAD PUSH1 0x1 PUSH1 0x1 PUSH1 0xA0 SHL SUB AND ISZERO JUMPDEST DUP1 ISZERO PUSH2 0x8DF JUMPI POP PUSH1 0xA SLOAD PUSH1 0x1 PUSH1 0x1 PUSH1 0xA0 SHL SUB AND ISZERO JUMPDEST PUSH2 0x927 JUMPI PUSH1 0x40 DUP1 MLOAD PUSH3 0x461BCD PUSH1 0xE5 SHL DUP2 MSTORE PUSH1 0x20 PUSH1 0x4 DUP3 ADD MSTORE PUSH1 0x14 PUSH1 0x24 DUP3 ADD MSTORE PUSH20 0x2AB734B9BBB0B82B191D102327A92124A22222A7 PUSH1 0x61 SHL PUSH1 0x44 DUP3 ADD MSTORE SWAP1 MLOAD SWAP1 DUP2 SWAP1 SUB PUSH1 0x64 ADD SWAP1 REVERT JUMPDEST PUSH1 0x9 DUP1 SLOAD PUSH1 0x1 PUSH1 0x1 PUSH1 0xA0 SHL SUB SWAP4 DUP5 AND PUSH1 0x1 PUSH1 0x1 PUSH1 0xA0 SHL SUB NOT SWAP2 DUP3 AND OR SWAP1 SWAP2 SSTORE PUSH1 0xA DUP1 SLOAD SWAP3 SWAP1 SWAP4 AND SWAP2 AND OR SWAP1 SSTORE JUMP JUMPDEST PUSH1 0xE SLOAD PUSH1 0x0 SWAP1 DUP2 SWAP1 PUSH1 0xFF AND PUSH2 0x9A5 JUMPI PUSH1 0x40 DUP1 MLOAD PUSH3 0x461BCD PUSH1 0xE5 SHL DUP2 MSTORE PUSH1 0x20 PUSH1 0x4 DUP3 ADD MSTORE PUSH1 0x11 PUSH1 0x24 DUP3 ADD MSTORE PUSH17 0x155B9A5CDDD85C158C8E881313D0D2D151 PUSH1 0x7A SHL PUSH1 0x44 DUP3 ADD MSTORE SWAP1 MLOAD SWAP1 DUP2 SWAP1 SUB PUSH1 0x64 ADD SWAP1 REVERT JUMPDEST PUSH1 0xE DUP1 SLOAD PUSH1 0xFF NOT AND SWAP1 SSTORE ADDRESS PUSH1 0x0 SWAP1 DUP2 MSTORE PUSH1 0x4 PUSH1 0x20 MSTORE PUSH1 0x40 SWAP1 KECCAK256 SLOAD PUSH1 0x3 SLOAD PUSH1 0xB SLOAD PUSH2 0x9DF SWAP1 DUP4 SWAP1 PUSH1 0x1 PUSH1 0x1 PUSH1 0x70 SHL SUB AND PUSH4 0xFFFFFFFF PUSH2 0x20CB AND JUMP JUMPDEST DUP2 PUSH2 0x9E6 JUMPI INVALID JUMPDEST PUSH1 0x3 SLOAD PUSH1 0xB SLOAD SWAP3 SWAP1 SWAP2 DIV SWAP5 POP SWAP1 PUSH2 0xA0E SWAP1 DUP4 SWAP1 PUSH1 0x1 PUSH1 0x70 SHL SWAP1 DIV PUSH1 0x1 PUSH1 0x1 PUSH1 0x70 SHL SUB AND PUSH2 0x20CB JUMP JUMPDEST DUP2 PUSH2 0xA15 JUMPI INVALID JUMPDEST DIV SWAP2 POP PUSH1 0x0 DUP4 GT DUP1 ISZERO PUSH2 0xA28 JUMPI POP PUSH1 0x0 DUP3 GT JUMPDEST PUSH2 0xA63 JUMPI PUSH1 0x40 MLOAD PUSH3 0x461BCD PUSH1 0xE5 SHL DUP2 MSTORE PUSH1 0x4 ADD DUP1 DUP1 PUSH1 0x20 ADD DUP3 DUP2 SUB DUP3 MSTORE PUSH1 0x28 DUP2 MSTORE PUSH1 0x20 ADD DUP1 PUSH2 0x24E7 PUSH1 0x28 SWAP2 CODECOPY PUSH1 0x40 ADD SWAP2 POP POP PUSH1 0x40 MLOAD DUP1 SWAP2 SUB SWAP1 REVERT JUMPDEST PUSH1 0x9 SLOAD PUSH2 0xA7A SWAP1 PUSH1 0x1 PUSH1 0x1 PUSH1 0xA0 SHL SUB AND CALLER DUP6 PUSH2 0x1E0A JUMP JUMPDEST PUSH1 0xA SLOAD PUSH2 0xA91 SWAP1 PUSH1 0x1 PUSH1 0x1 PUSH1 0xA0 SHL SUB AND CALLER DUP5 PUSH2 0x1E0A JUMP JUMPDEST PUSH2 0xA9B ADDRESS DUP3 PUSH2 0x202E JUMP JUMPDEST PUSH1 0x9 SLOAD PUSH1 0x40 DUP1 MLOAD PUSH4 0x70A08231 PUSH1 0xE0 SHL DUP2 MSTORE ADDRESS PUSH1 0x4 DUP3 ADD MSTORE SWAP1 MLOAD PUSH2 0xB8F SWAP3 PUSH1 0x1 PUSH1 0x1 PUSH1 0xA0 SHL SUB AND SWAP2 PUSH4 0x70A08231 SWAP2 PUSH1 0x24 DUP1 DUP4 ADD SWAP3 PUSH1 0x20 SWAP3 SWAP2 SWAP1 DUP3 SWAP1 SUB ADD DUP2 DUP7 DUP1 EXTCODESIZE ISZERO DUP1 ISZERO PUSH2 0xAE7 JUMPI PUSH1 0x0 DUP1 REVERT JUMPDEST POP GAS STATICCALL ISZERO DUP1 ISZERO PUSH2 0xAFB JUMPI RETURNDATASIZE PUSH1 0x0 DUP1 RETURNDATACOPY RETURNDATASIZE PUSH1 0x0 REVERT JUMPDEST POP POP POP POP PUSH1 0x40 MLOAD RETURNDATASIZE PUSH1 0x20 DUP2 LT ISZERO PUSH2 0xB11 JUMPI PUSH1 0x0 DUP1 REVERT JUMPDEST POP MLOAD PUSH1 0xA SLOAD PUSH1 0x40 DUP1 MLOAD PUSH4 0x70A08231 PUSH1 0xE0 SHL DUP2 MSTORE ADDRESS PUSH1 0x4 DUP3 ADD MSTORE SWAP1 MLOAD PUSH1 0x1 PUSH1 0x1 PUSH1 0xA0 SHL SUB SWAP1 SWAP3 AND SWAP2 PUSH4 0x70A08231 SWAP2 PUSH1 0x24 DUP1 DUP3 ADD SWAP3 PUSH1 0x20 SWAP3 SWAP1 SWAP2 SWAP1 DUP3 SWAP1 SUB ADD DUP2 DUP7 DUP1 EXTCODESIZE ISZERO DUP1 ISZERO PUSH2 0xB5E JUMPI PUSH1 0x0 DUP1 REVERT JUMPDEST POP GAS STATICCALL ISZERO DUP1 ISZERO PUSH2 0xB72 JUMPI RETURNDATASIZE PUSH1 0x0 DUP1 RETURNDATACOPY RETURNDATASIZE PUSH1 0x0 REVERT JUMPDEST POP POP POP POP PUSH1 0x40 MLOAD RETURNDATASIZE PUSH1 0x20 DUP2 LT ISZERO PUSH2 0xB88 JUMPI PUSH1 0x0 DUP1 REVERT JUMPDEST POP MLOAD PUSH2 0x212E JUMP JUMPDEST PUSH1 0x40 DUP1 MLOAD DUP5 DUP2 MSTORE PUSH1 0x20 DUP2 ADD DUP5 SWAP1 MSTORE DUP2 MLOAD CALLER SWAP3 PUSH32 0xD1D66712859310DD50FDFD62F5D969F18FC9B5B0E7A4C379ACFE7D56FA07F29B SWAP3 DUP3 SWAP1 SUB ADD SWAP1 LOG2 POP PUSH1 0xE DUP1 SLOAD PUSH1 0xFF NOT AND PUSH1 0x1 OR SWAP1 SSTORE SWAP1 SWAP2 JUMP JUMPDEST PUSH1 0xC SLOAD DUP2 JUMP JUMPDEST PUSH1 0xD SLOAD DUP2 JUMP JUMPDEST PUSH1 0xB SLOAD PUSH1 0x1 PUSH1 0x70 SHL SWAP1 DIV PUSH1 0x1 PUSH1 0x1 PUSH1 0x70 SHL SUB AND DUP2 JUMP JUMPDEST PUSH1 0x4 PUSH1 0x20 MSTORE PUSH1 0x0 SWAP1 DUP2 MSTORE PUSH1 0x40 SWAP1 KECCAK256 SLOAD DUP2 JUMP JUMPDEST PUSH1 0x1 PUSH1 0x1 PUSH1 0xA0 SHL SUB DUP3 AND PUSH1 0x0 SWAP1 DUP2 MSTORE PUSH1 0x5 PUSH1 0x20 SWAP1 DUP2 MSTORE PUSH1 0x40 DUP1 DUP4 KECCAK256 CALLER DUP5 MSTORE SWAP1 SWAP2 MSTORE SWAP1 KECCAK256 SLOAD PUSH1 0x0 NOT EQ PUSH2 0xC94 JUMPI PUSH1 0x1 PUSH1 0x1 PUSH1 0xA0 SHL SUB DUP3 AND PUSH1 0x0 SWAP1 DUP2 MSTORE PUSH1 0x5 PUSH1 0x20 SWAP1 DUP2 MSTORE PUSH1 0x40 DUP1 DUP4 KECCAK256 CALLER DUP5 MSTORE SWAP1 SWAP2 MSTORE SWAP1 KECCAK256 SLOAD PUSH2 0xC6F SWAP1 DUP3 PUSH4 0xFFFFFFFF PUSH2 0x1DBA AND JUMP JUMPDEST PUSH1 0x1 PUSH1 0x1 PUSH1 0xA0 SHL SUB DUP4 AND PUSH1 0x0 SWAP1 DUP2 MSTORE PUSH1 0x5 PUSH1 0x20 SWAP1 DUP2 MSTORE PUSH1 0x40 DUP1 DUP4 KECCAK256 CALLER DUP5 MSTORE SWAP1 SWAP2 MSTORE SWAP1 KECCAK256 SSTORE JUMPDEST PUSH2 0xC9E DUP3 DUP3 PUSH2 0x202E JUMP JUMPDEST POP POP JUMP JUMPDEST PUSH1 0x7 PUSH1 0x20 MSTORE PUSH1 0x0 SWAP1 DUP2 MSTORE PUSH1 0x40 SWAP1 KECCAK256 SLOAD DUP2 JUMP JUMPDEST PUSH1 0x1 DUP1 SLOAD PUSH1 0x40 DUP1 MLOAD PUSH1 0x20 PUSH1 0x2 DUP5 DUP7 AND ISZERO PUSH2 0x100 MUL PUSH1 0x0 NOT ADD SWAP1 SWAP5 AND SWAP4 SWAP1 SWAP4 DIV PUSH1 0x1F DUP2 ADD DUP5 SWAP1 DIV DUP5 MUL DUP3 ADD DUP5 ADD SWAP1 SWAP3 MSTORE DUP2 DUP2 MSTORE SWAP3 SWAP2 DUP4 ADD DUP3 DUP3 DUP1 ISZERO PUSH2 0x60A JUMPI DUP1 PUSH1 0x1F LT PUSH2 0x5DF JUMPI PUSH2 0x100 DUP1 DUP4 SLOAD DIV MUL DUP4 MSTORE SWAP2 PUSH1 0x20 ADD SWAP2 PUSH2 0x60A JUMP JUMPDEST PUSH1 0xE SLOAD PUSH1 0xFF AND PUSH2 0xD59 JUMPI PUSH1 0x40 DUP1 MLOAD PUSH3 0x461BCD PUSH1 0xE5 SHL DUP2 MSTORE PUSH1 0x20 PUSH1 0x4 DUP3 ADD MSTORE PUSH1 0x11 PUSH1 0x24 DUP3 ADD MSTORE PUSH17 0x155B9A5CDDD85C158C8E881313D0D2D151 PUSH1 0x7A SHL PUSH1 0x44 DUP3 ADD MSTORE SWAP1 MLOAD SWAP1 DUP2 SWAP1 SUB PUSH1 0x64 ADD SWAP1 REVERT JUMPDEST PUSH1 0xE DUP1 SLOAD PUSH1 0xFF NOT AND SWAP1 SSTORE PUSH1 0x8 SLOAD PUSH1 0x40 DUP1 MLOAD PUSH4 0x11A4121 PUSH1 0xE6 SHL DUP2 MSTORE SWAP1 MLOAD PUSH1 0x0 SWAP3 DUP4 SWAP3 DUP4 SWAP3 DUP4 SWAP3 DUP4 SWAP3 PUSH1 0x1 PUSH1 0x1 PUSH1 0xA0 SHL SUB SWAP1 SWAP2 AND SWAP2 PUSH4 0x46904840 SWAP2 PUSH1 0x4 DUP1 DUP3 ADD SWAP3 PUSH1 0x20 SWAP3 SWAP1 SWAP2 SWAP1 DUP3 SWAP1 SUB ADD DUP2 DUP7 DUP1 EXTCODESIZE ISZERO DUP1 ISZERO PUSH2 0xDB3 JUMPI PUSH1 0x0 DUP1 REVERT JUMPDEST POP GAS STATICCALL ISZERO DUP1 ISZERO PUSH2 0xDC7 JUMPI RETURNDATASIZE PUSH1 0x0 DUP1 RETURNDATACOPY RETURNDATASIZE PUSH1 0x0 REVERT JUMPDEST POP POP POP POP PUSH1 0x40 MLOAD RETURNDATASIZE PUSH1 0x20 DUP2 LT ISZERO PUSH2 0xDDD JUMPI PUSH1 0x0 DUP1 REVERT JUMPDEST POP MLOAD PUSH1 0x9 SLOAD SWAP1 SWAP2 POP PUSH1 0x1 PUSH1 0x1 PUSH1 0xA0 SHL SUB DUP9 DUP2 AND SWAP2 AND EQ ISZERO PUSH2 0x11E6 JUMPI DUP6 PUSH1 0x0 LT DUP1 ISZERO PUSH2 0xE19 JUMPI POP PUSH1 0xB SLOAD PUSH1 0x1 PUSH1 0x70 SHL SWAP1 DIV PUSH1 0x1 PUSH1 0x1 PUSH1 0x70 SHL SUB AND DUP7 LT JUMPDEST PUSH2 0xE6A JUMPI PUSH1 0x40 DUP1 MLOAD PUSH3 0x461BCD PUSH1 0xE5 SHL DUP2 MSTORE PUSH1 0x20 PUSH1 0x4 DUP3 ADD DUP2 SWAP1 MSTORE PUSH1 0x24 DUP3 ADD MSTORE PUSH32 0x556E697377617056323A20494E56414C49445F4F55545055545F414D4F554E54 PUSH1 0x44 DUP3 ADD MSTORE SWAP1 MLOAD SWAP1 DUP2 SWAP1 SUB PUSH1 0x64 ADD SWAP1 REVERT JUMPDEST PUSH1 0x9 SLOAD PUSH1 0x40 DUP1 MLOAD PUSH4 0x70A08231 PUSH1 0xE0 SHL DUP2 MSTORE ADDRESS PUSH1 0x4 DUP3 ADD MSTORE SWAP1 MLOAD PUSH1 0x1 PUSH1 0x1 PUSH1 0xA0 SHL SUB SWAP1 SWAP3 AND SWAP2 PUSH4 0x70A08231 SWAP2 PUSH1 0x24 DUP1 DUP3 ADD SWAP3 PUSH1 0x20 SWAP3 SWAP1 SWAP2 SWAP1 DUP3 SWAP1 SUB ADD DUP2 DUP7 DUP1 EXTCODESIZE ISZERO DUP1 ISZERO PUSH2 0xEB5 JUMPI PUSH1 0x0 DUP1 REVERT JUMPDEST POP GAS STATICCALL ISZERO DUP1 ISZERO PUSH2 0xEC9 JUMPI RETURNDATASIZE PUSH1 0x0 DUP1 RETURNDATACOPY RETURNDATASIZE PUSH1 0x0 REVERT JUMPDEST POP POP POP POP PUSH1 0x40 MLOAD RETURNDATASIZE PUSH1 0x20 DUP2 LT ISZERO PUSH2 0xEDF JUMPI PUSH1 0x0 DUP1 REVERT JUMPDEST POP MLOAD PUSH1 0xB SLOAD SWAP1 SWAP6 POP PUSH2 0xF01 SWAP1 DUP7 SWAP1 PUSH1 0x1 PUSH1 0x1 PUSH1 0x70 SHL SUB AND PUSH4 0xFFFFFFFF PUSH2 0x1DBA AND JUMP JUMPDEST SWAP3 POP PUSH1 0x0 DUP4 GT PUSH2 0xF42 JUMPI PUSH1 0x40 MLOAD PUSH3 0x461BCD PUSH1 0xE5 SHL DUP2 MSTORE PUSH1 0x4 ADD DUP1 DUP1 PUSH1 0x20 ADD DUP3 DUP2 SUB DUP3 MSTORE PUSH1 0x24 DUP2 MSTORE PUSH1 0x20 ADD DUP1 PUSH2 0x24C3 PUSH1 0x24 SWAP2 CODECOPY PUSH1 0x40 ADD SWAP2 POP POP PUSH1 0x40 MLOAD DUP1 SWAP2 SUB SWAP1 REVERT JUMPDEST PUSH1 0x1 PUSH1 0x1 PUSH1 0xA0 SHL SUB DUP2 AND ISZERO PUSH2 0xF72 JUMPI PUSH2 0x1388 PUSH2 0xF65 DUP5 PUSH1 0x3 PUSH4 0xFFFFFFFF PUSH2 0x20CB AND JUMP JUMPDEST DUP2 PUSH2 0xF6C JUMPI INVALID JUMPDEST DIV PUSH2 0xF75 JUMP JUMPDEST PUSH1 0x0 JUMPDEST SWAP2 POP DUP2 ISZERO PUSH2 0x10B8 JUMPI PUSH1 0xB SLOAD PUSH2 0xFAE SWAP1 PUSH2 0x2710 SWAP1 PUSH2 0xFA2 SWAP1 DUP10 SWAP1 PUSH1 0x1 PUSH1 0x1 PUSH1 0x70 SHL SUB AND PUSH4 0xFFFFFFFF PUSH2 0x20CB AND JUMP JUMPDEST SWAP1 PUSH4 0xFFFFFFFF PUSH2 0x20CB AND JUMP JUMPDEST PUSH1 0xB SLOAD PUSH2 0xFD8 SWAP1 PUSH2 0x26F8 SWAP1 PUSH2 0xFA2 SWAP1 PUSH1 0x1 PUSH1 0x70 SHL SWAP1 DIV PUSH1 0x1 PUSH1 0x1 PUSH1 0x70 SHL SUB AND DUP11 SWAP1 SUB DUP2 DUP9 DUP9 PUSH2 0x1DBA JUMP JUMPDEST LT ISZERO PUSH2 0x1023 JUMPI PUSH1 0x40 DUP1 MLOAD PUSH3 0x461BCD PUSH1 0xE5 SHL DUP2 MSTORE PUSH1 0x20 PUSH1 0x4 DUP3 ADD MSTORE PUSH1 0x15 PUSH1 0x24 DUP3 ADD MSTORE PUSH21 0x155B9A5CDDD85C158C8E8812D7D59253D310551151 PUSH1 0x5A SHL PUSH1 0x44 DUP3 ADD MSTORE SWAP1 MLOAD SWAP1 DUP2 SWAP1 SUB PUSH1 0x64 ADD SWAP1 REVERT JUMPDEST PUSH1 0x9 SLOAD PUSH2 0x103A SWAP1 PUSH1 0x1 PUSH1 0x1 PUSH1 0xA0 SHL SUB AND DUP3 DUP5 PUSH2 0x1E0A JUMP JUMPDEST PUSH1 0x9 SLOAD PUSH1 0x40 DUP1 MLOAD PUSH4 0x70A08231 PUSH1 0xE0 SHL DUP2 MSTORE ADDRESS PUSH1 0x4 DUP3 ADD MSTORE SWAP1 MLOAD PUSH1 0x1 PUSH1 0x1 PUSH1 0xA0 SHL SUB SWAP1 SWAP3 AND SWAP2 PUSH4 0x70A08231 SWAP2 PUSH1 0x24 DUP1 DUP3 ADD SWAP3 PUSH1 0x20 SWAP3 SWAP1 SWAP2 SWAP1 DUP3 SWAP1 SUB ADD DUP2 DUP7 DUP1 EXTCODESIZE ISZERO DUP1 ISZERO PUSH2 0x1085 JUMPI PUSH1 0x0 DUP1 REVERT JUMPDEST POP GAS STATICCALL ISZERO DUP1 ISZERO PUSH2 0x1099 JUMPI RETURNDATASIZE PUSH1 0x0 DUP1 RETURNDATACOPY RETURNDATASIZE PUSH1 0x0 REVERT JUMPDEST POP POP POP POP PUSH1 0x40 MLOAD RETURNDATASIZE PUSH1 0x20 DUP2 LT ISZERO PUSH2 0x10AF JUMPI PUSH1 0x0 DUP1 REVERT JUMPDEST POP MLOAD SWAP5 POP PUSH2 0x1151 JUMP JUMPDEST PUSH1 0xB SLOAD PUSH2 0x10DD SWAP1 PUSH2 0x3E8 SWAP1 PUSH2 0xFA2 SWAP1 DUP10 SWAP1 PUSH1 0x1 PUSH1 0x1 PUSH1 0x70 SHL SUB AND PUSH4 0xFFFFFFFF PUSH2 0x20CB AND JUMP JUMPDEST PUSH1 0xB SLOAD PUSH2 0x1106 SWAP1 PUSH2 0x3E5 SWAP1 PUSH2 0xFA2 SWAP1 DUP8 SWAP1 PUSH1 0x1 PUSH1 0x70 SHL SWAP1 DIV PUSH1 0x1 PUSH1 0x1 PUSH1 0x70 SHL SUB AND DUP12 SWAP1 SUB PUSH2 0x20CB JUMP JUMPDEST LT ISZERO PUSH2 0x1151 JUMPI PUSH1 0x40 DUP1 MLOAD PUSH3 0x461BCD PUSH1 0xE5 SHL DUP2 MSTORE PUSH1 0x20 PUSH1 0x4 DUP3 ADD MSTORE PUSH1 0x15 PUSH1 0x24 DUP3 ADD MSTORE PUSH21 0x155B9A5CDDD85C158C8E8812D7D59253D310551151 PUSH1 0x5A SHL PUSH1 0x44 DUP3 ADD MSTORE SWAP1 MLOAD SWAP1 DUP2 SWAP1 SUB PUSH1 0x64 ADD SWAP1 REVERT JUMPDEST PUSH1 0xA SLOAD PUSH2 0x1168 SWAP1 PUSH1 0x1 PUSH1 0x1 PUSH1 0xA0 SHL SUB AND CALLER DUP9 PUSH2 0x1E0A JUMP JUMPDEST PUSH1 0xA SLOAD PUSH1 0x40 DUP1 MLOAD PUSH4 0x70A08231 PUSH1 0xE0 SHL DUP2 MSTORE ADDRESS PUSH1 0x4 DUP3 ADD MSTORE SWAP1 MLOAD PUSH1 0x1 PUSH1 0x1 PUSH1 0xA0 SHL SUB SWAP1 SWAP3 AND SWAP2 PUSH4 0x70A08231 SWAP2 PUSH1 0x24 DUP1 DUP3 ADD SWAP3 PUSH1 0x20 SWAP3 SWAP1 SWAP2 SWAP1 DUP3 SWAP1 SUB ADD DUP2 DUP7 DUP1 EXTCODESIZE ISZERO DUP1 ISZERO PUSH2 0x11B3 JUMPI PUSH1 0x0 DUP1 REVERT JUMPDEST POP GAS STATICCALL ISZERO DUP1 ISZERO PUSH2 0x11C7 JUMPI RETURNDATASIZE PUSH1 0x0 DUP1 RETURNDATACOPY RETURNDATASIZE PUSH1 0x0 REVERT JUMPDEST POP POP POP POP PUSH1 0x40 MLOAD RETURNDATASIZE PUSH1 0x20 DUP2 LT ISZERO PUSH2 0x11DD JUMPI PUSH1 0x0 DUP1 REVERT JUMPDEST POP MLOAD SWAP4 POP PUSH2 0x1620 JUMP JUMPDEST PUSH1 0xA SLOAD PUSH1 0x1 PUSH1 0x1 PUSH1 0xA0 SHL SUB DUP9 DUP2 AND SWAP2 AND EQ PUSH2 0x1248 JUMPI PUSH1 0x40 DUP1 MLOAD PUSH3 0x461BCD PUSH1 0xE5 SHL DUP2 MSTORE PUSH1 0x20 PUSH1 0x4 DUP3 ADD MSTORE PUSH1 0x1E PUSH1 0x24 DUP3 ADD MSTORE PUSH32 0x556E697377617056323A20494E56414C49445F494E5055545F544F4B454E0000 PUSH1 0x44 DUP3 ADD MSTORE SWAP1 MLOAD SWAP1 DUP2 SWAP1 SUB PUSH1 0x64 ADD SWAP1 REVERT JUMPDEST DUP6 PUSH1 0x0 LT DUP1 ISZERO PUSH2 0x1262 JUMPI POP PUSH1 0xB SLOAD PUSH1 0x1 PUSH1 0x1 PUSH1 0x70 SHL SUB AND DUP7 LT JUMPDEST PUSH2 0x12B3 JUMPI PUSH1 0x40 DUP1 MLOAD PUSH3 0x461BCD PUSH1 0xE5 SHL DUP2 MSTORE PUSH1 0x20 PUSH1 0x4 DUP3 ADD DUP2 SWAP1 MSTORE PUSH1 0x24 DUP3 ADD MSTORE PUSH32 0x556E697377617056323A20494E56414C49445F4F55545055545F414D4F554E54 PUSH1 0x44 DUP3 ADD MSTORE SWAP1 MLOAD SWAP1 DUP2 SWAP1 SUB PUSH1 0x64 ADD SWAP1 REVERT JUMPDEST PUSH1 0xA SLOAD PUSH1 0x40 DUP1 MLOAD PUSH4 0x70A08231 PUSH1 0xE0 SHL DUP2 MSTORE ADDRESS PUSH1 0x4 DUP3 ADD MSTORE SWAP1 MLOAD PUSH1 0x1 PUSH1 0x1 PUSH1 0xA0 SHL SUB SWAP1 SWAP3 AND SWAP2 PUSH4 0x70A08231 SWAP2 PUSH1 0x24 DUP1 DUP3 ADD SWAP3 PUSH1 0x20 SWAP3 SWAP1 SWAP2 SWAP1 DUP3 SWAP1 SUB ADD DUP2 DUP7 DUP1 EXTCODESIZE ISZERO DUP1 ISZERO PUSH2 0x12FE JUMPI PUSH1 0x0 DUP1 REVERT JUMPDEST POP GAS STATICCALL ISZERO DUP1 ISZERO PUSH2 0x1312 JUMPI RETURNDATASIZE PUSH1 0x0 DUP1 RETURNDATACOPY RETURNDATASIZE PUSH1 0x0 REVERT JUMPDEST POP POP POP POP PUSH1 0x40 MLOAD RETURNDATASIZE PUSH1 0x20 DUP2 LT ISZERO PUSH2 0x1328 JUMPI PUSH1 0x0 DUP1 REVERT JUMPDEST POP MLOAD PUSH1 0xB SLOAD SWAP1 SWAP5 POP PUSH2 0x134B SWAP1 DUP6 SWAP1 PUSH1 0x1 PUSH1 0x70 SHL SWAP1 DIV PUSH1 0x1 PUSH1 0x1 PUSH1 0x70 SHL SUB AND PUSH2 0x1DBA JUMP JUMPDEST SWAP3 POP PUSH1 0x0 DUP4 GT PUSH2 0x138C JUMPI PUSH1 0x40 MLOAD PUSH3 0x461BCD PUSH1 0xE5 SHL DUP2 MSTORE PUSH1 0x4 ADD DUP1 DUP1 PUSH1 0x20 ADD DUP3 DUP2 SUB DUP3 MSTORE PUSH1 0x24 DUP2 MSTORE PUSH1 0x20 ADD DUP1 PUSH2 0x24C3 PUSH1 0x24 SWAP2 CODECOPY PUSH1 0x40 ADD SWAP2 POP POP PUSH1 0x40 MLOAD DUP1 SWAP2 SUB SWAP1 REVERT JUMPDEST PUSH1 0x1 PUSH1 0x1 PUSH1 0xA0 SHL SUB DUP2 AND ISZERO PUSH2 0x13BC JUMPI PUSH2 0x1388 PUSH2 0x13AF DUP5 PUSH1 0x3 PUSH4 0xFFFFFFFF PUSH2 0x20CB AND JUMP JUMPDEST DUP2 PUSH2 0x13B6 JUMPI INVALID JUMPDEST DIV PUSH2 0x13BF JUMP JUMPDEST PUSH1 0x0 JUMPDEST SWAP2 POP DUP2 ISZERO PUSH2 0x14F6 JUMPI PUSH1 0xB SLOAD PUSH2 0x13ED SWAP1 PUSH2 0x2710 SWAP1 PUSH2 0xFA2 SWAP1 DUP10 SWAP1 PUSH1 0x1 PUSH1 0x70 SHL SWAP1 DIV PUSH1 0x1 PUSH1 0x1 PUSH1 0x70 SHL SUB AND PUSH2 0x20CB JUMP JUMPDEST PUSH1 0xB SLOAD PUSH2 0x1416 SWAP1 PUSH2 0x26F8 SWAP1 PUSH2 0xFA2 SWAP1 PUSH1 0x1 PUSH1 0x1 PUSH1 0x70 SHL SUB AND DUP11 SWAP1 SUB DUP2 DUP9 DUP9 PUSH4 0xFFFFFFFF PUSH2 0x1DBA AND JUMP JUMPDEST LT ISZERO PUSH2 0x1461 JUMPI PUSH1 0x40 DUP1 MLOAD PUSH3 0x461BCD PUSH1 0xE5 SHL DUP2 MSTORE PUSH1 0x20 PUSH1 0x4 DUP3 ADD MSTORE PUSH1 0x15 PUSH1 0x24 DUP3 ADD MSTORE PUSH21 0x155B9A5CDDD85C158C8E8812D7D59253D310551151 PUSH1 0x5A SHL PUSH1 0x44 DUP3 ADD MSTORE SWAP1 MLOAD SWAP1 DUP2 SWAP1 SUB PUSH1 0x64 ADD SWAP1 REVERT JUMPDEST PUSH1 0xA SLOAD PUSH2 0x1478 SWAP1 PUSH1 0x1 PUSH1 0x1 PUSH1 0xA0 SHL SUB AND DUP3 DUP5 PUSH2 0x1E0A JUMP JUMPDEST PUSH1 0xA SLOAD PUSH1 0x40 DUP1 MLOAD PUSH4 0x70A08231 PUSH1 0xE0 SHL DUP2 MSTORE ADDRESS PUSH1 0x4 DUP3 ADD MSTORE SWAP1 MLOAD PUSH1 0x1 PUSH1 0x1 PUSH1 0xA0 SHL SUB SWAP1 SWAP3 AND SWAP2 PUSH4 0x70A08231 SWAP2 PUSH1 0x24 DUP1 DUP3 ADD SWAP3 PUSH1 0x20 SWAP3 SWAP1 SWAP2 SWAP1 DUP3 SWAP1 SUB ADD DUP2 DUP7 DUP1 EXTCODESIZE ISZERO DUP1 ISZERO PUSH2 0x14C3 JUMPI PUSH1 0x0 DUP1 REVERT JUMPDEST POP GAS STATICCALL ISZERO DUP1 ISZERO PUSH2 0x14D7 JUMPI RETURNDATASIZE PUSH1 0x0 DUP1 RETURNDATACOPY RETURNDATASIZE PUSH1 0x0 REVERT JUMPDEST POP POP POP POP PUSH1 0x40 MLOAD RETURNDATASIZE PUSH1 0x20 DUP2 LT ISZERO PUSH2 0x14ED JUMPI PUSH1 0x0 DUP1 REVERT JUMPDEST POP MLOAD SWAP4 POP PUSH2 0x158F JUMP JUMPDEST PUSH1 0xB SLOAD PUSH2 0x151C SWAP1 PUSH2 0x3E8 SWAP1 PUSH2 0xFA2 SWAP1 DUP10 SWAP1 PUSH1 0x1 PUSH1 0x70 SHL SWAP1 DIV PUSH1 0x1 PUSH1 0x1 PUSH1 0x70 SHL SUB AND PUSH2 0x20CB JUMP JUMPDEST PUSH1 0xB SLOAD PUSH2 0x1544 SWAP1 PUSH2 0x3E5 SWAP1 PUSH2 0xFA2 SWAP1 DUP8 SWAP1 PUSH1 0x1 PUSH1 0x1 PUSH1 0x70 SHL SUB AND DUP12 SWAP1 SUB PUSH4 0xFFFFFFFF PUSH2 0x20CB AND JUMP JUMPDEST LT ISZERO PUSH2 0x158F JUMPI PUSH1 0x40 DUP1 MLOAD PUSH3 0x461BCD PUSH1 0xE5 SHL DUP2 MSTORE PUSH1 0x20 PUSH1 0x4 DUP3 ADD MSTORE PUSH1 0x15 PUSH1 0x24 DUP3 ADD MSTORE PUSH21 0x155B9A5CDDD85C158C8E8812D7D59253D310551151 PUSH1 0x5A SHL PUSH1 0x44 DUP3 ADD MSTORE SWAP1 MLOAD SWAP1 DUP2 SWAP1 SUB PUSH1 0x64 ADD SWAP1 REVERT JUMPDEST PUSH1 0x9 SLOAD PUSH2 0x15A6 SWAP1 PUSH1 0x1 PUSH1 0x1 PUSH1 0xA0 SHL SUB AND CALLER DUP9 PUSH2 0x1E0A JUMP JUMPDEST PUSH1 0x9 SLOAD PUSH1 0x40 DUP1 MLOAD PUSH4 0x70A08231 PUSH1 0xE0 SHL DUP2 MSTORE ADDRESS PUSH1 0x4 DUP3 ADD MSTORE SWAP1 MLOAD PUSH1 0x1 PUSH1 0x1 PUSH1 0xA0 SHL SUB SWAP1 SWAP3 AND SWAP2 PUSH4 0x70A08231 SWAP2 PUSH1 0x24 DUP1 DUP3 ADD SWAP3 PUSH1 0x20 SWAP3 SWAP1 SWAP2 SWAP1 DUP3 SWAP1 SUB ADD DUP2 DUP7 DUP1 EXTCODESIZE ISZERO DUP1 ISZERO PUSH2 0x15F1 JUMPI PUSH1 0x0 DUP1 REVERT JUMPDEST POP GAS STATICCALL ISZERO DUP1 ISZERO PUSH2 0x1605 JUMPI RETURNDATASIZE PUSH1 0x0 DUP1 RETURNDATACOPY RETURNDATASIZE PUSH1 0x0 REVERT JUMPDEST POP POP POP POP PUSH1 0x40 MLOAD RETURNDATASIZE PUSH1 0x20 DUP2 LT ISZERO PUSH2 0x161B JUMPI PUSH1 0x0 DUP1 REVERT JUMPDEST POP MLOAD SWAP5 POP JUMPDEST PUSH2 0x162A DUP6 DUP6 PUSH2 0x212E JUMP JUMPDEST PUSH1 0x40 DUP1 MLOAD DUP5 DUP2 MSTORE PUSH1 0x20 DUP2 ADD DUP9 SWAP1 MSTORE DUP2 MLOAD PUSH1 0x1 PUSH1 0x1 PUSH1 0xA0 SHL SUB DUP11 AND SWAP3 CALLER SWAP3 PUSH32 0xD6DA8EBF850F53609E85E48814C2653298F4DD7EAE26867403289B64D17C5EBB SWAP3 SWAP1 DUP2 SWAP1 SUB SWAP1 SWAP2 ADD SWAP1 LOG3 POP POP PUSH1 0xE DUP1 SLOAD PUSH1 0xFF NOT AND PUSH1 0x1 OR SWAP1 SSTORE POP POP POP POP POP JUMP JUMPDEST PUSH1 0x0 PUSH2 0x61F CALLER DUP5 DUP5 PUSH2 0x1F74 JUMP JUMPDEST PUSH1 0x8 SLOAD PUSH1 0x1 PUSH1 0x1 PUSH1 0xA0 SHL SUB AND DUP2 JUMP JUMPDEST PUSH1 0xE SLOAD PUSH1 0x0 SWAP1 PUSH1 0xFF AND PUSH2 0x16F2 JUMPI PUSH1 0x40 DUP1 MLOAD PUSH3 0x461BCD PUSH1 0xE5 SHL DUP2 MSTORE PUSH1 0x20 PUSH1 0x4 DUP3 ADD MSTORE PUSH1 0x11 PUSH1 0x24 DUP3 ADD MSTORE PUSH17 0x155B9A5CDDD85C158C8E881313D0D2D151 PUSH1 0x7A SHL PUSH1 0x44 DUP3 ADD MSTORE SWAP1 MLOAD SWAP1 DUP2 SWAP1 SUB PUSH1 0x64 ADD SWAP1 REVERT JUMPDEST PUSH1 0xE DUP1 SLOAD PUSH1 0xFF NOT AND SWAP1 SSTORE PUSH1 0x9 SLOAD PUSH1 0x40 DUP1 MLOAD PUSH4 0x70A08231 PUSH1 0xE0 SHL DUP2 MSTORE ADDRESS PUSH1 0x4 DUP3 ADD MSTORE SWAP1 MLOAD PUSH1 0x0 SWAP3 PUSH1 0x1 PUSH1 0x1 PUSH1 0xA0 SHL SUB AND SWAP2 PUSH4 0x70A08231 SWAP2 PUSH1 0x24 DUP1 DUP4 ADD SWAP3 PUSH1 0x20 SWAP3 SWAP2 SWAP1 DUP3 SWAP1 SUB ADD DUP2 DUP7 DUP1 EXTCODESIZE ISZERO DUP1 ISZERO PUSH2 0x1747 JUMPI PUSH1 0x0 DUP1 REVERT JUMPDEST POP GAS STATICCALL ISZERO DUP1 ISZERO PUSH2 0x175B JUMPI RETURNDATASIZE PUSH1 0x0 DUP1 RETURNDATACOPY RETURNDATASIZE PUSH1 0x0 REVERT JUMPDEST POP POP POP POP PUSH1 0x40 MLOAD RETURNDATASIZE PUSH1 0x20 DUP2 LT ISZERO PUSH2 0x1771 JUMPI PUSH1 0x0 DUP1 REVERT JUMPDEST POP MLOAD PUSH1 0xA SLOAD PUSH1 0x40 DUP1 MLOAD PUSH4 0x70A08231 PUSH1 0xE0 SHL DUP2 MSTORE ADDRESS PUSH1 0x4 DUP3 ADD MSTORE SWAP1 MLOAD SWAP3 SWAP4 POP PUSH1 0x0 SWAP3 PUSH1 0x1 PUSH1 0x1 PUSH1 0xA0 SHL SUB SWAP1 SWAP3 AND SWAP2 PUSH4 0x70A08231 SWAP2 PUSH1 0x24 DUP1 DUP3 ADD SWAP3 PUSH1 0x20 SWAP3 SWAP1 SWAP2 SWAP1 DUP3 SWAP1 SUB ADD DUP2 DUP7 DUP1 EXTCODESIZE ISZERO DUP1 ISZERO PUSH2 0x17C4 JUMPI PUSH1 0x0 DUP1 REVERT JUMPDEST POP GAS STATICCALL ISZERO DUP1 ISZERO PUSH2 0x17D8 JUMPI RETURNDATASIZE PUSH1 0x0 DUP1 RETURNDATACOPY RETURNDATASIZE PUSH1 0x0 REVERT JUMPDEST POP POP POP POP PUSH1 0x40 MLOAD RETURNDATASIZE PUSH1 0x20 DUP2 LT ISZERO PUSH2 0x17EE JUMPI PUSH1 0x0 DUP1 REVERT JUMPDEST POP MLOAD PUSH1 0xB SLOAD SWAP1 SWAP2 POP PUSH1 0x0 SWAP1 PUSH2 0x1813 SWAP1 DUP5 SWAP1 PUSH1 0x1 PUSH1 0x1 PUSH1 0x70 SHL SUB AND PUSH4 0xFFFFFFFF PUSH2 0x1DBA AND JUMP JUMPDEST PUSH1 0xB SLOAD SWAP1 SWAP2 POP PUSH1 0x0 SWAP1 PUSH2 0x1837 SWAP1 DUP5 SWAP1 PUSH1 0x1 PUSH1 0x70 SHL SWAP1 DIV PUSH1 0x1 PUSH1 0x1 PUSH1 0x70 SHL SUB AND PUSH2 0x1DBA JUMP JUMPDEST SWAP1 POP PUSH1 0x3 SLOAD PUSH1 0x0 EQ PUSH2 0x18B6 JUMPI PUSH1 0xB SLOAD PUSH1 0x3 SLOAD PUSH2 0x18B1 SWAP2 PUSH1 0x1 PUSH1 0x1 PUSH1 0x70 SHL SUB AND SWAP1 PUSH2 0x1868 SWAP1 DUP6 SWAP1 PUSH4 0xFFFFFFFF PUSH2 0x20CB AND JUMP JUMPDEST DUP2 PUSH2 0x186F JUMPI INVALID JUMPDEST DIV PUSH1 0xB PUSH1 0xE SWAP1 SLOAD SWAP1 PUSH2 0x100 EXP SWAP1 DIV PUSH1 0x1 PUSH1 0x1 PUSH1 0x70 SHL SUB AND PUSH1 0x1 PUSH1 0x1 PUSH1 0x70 SHL SUB AND PUSH2 0x18A4 PUSH1 0x3 SLOAD DUP6 PUSH2 0x20CB SWAP1 SWAP2 SWAP1 PUSH4 0xFFFFFFFF AND JUMP JUMPDEST DUP2 PUSH2 0x18AB JUMPI INVALID JUMPDEST DIV PUSH2 0x233A JUMP JUMPDEST PUSH2 0x18CE JUMP JUMPDEST PUSH2 0x18CE PUSH2 0x18C9 DUP4 DUP4 PUSH4 0xFFFFFFFF PUSH2 0x20CB AND JUMP JUMPDEST PUSH2 0x2353 JUMP JUMPDEST SWAP5 POP PUSH1 0x0 DUP6 GT PUSH2 0x190F JUMPI PUSH1 0x40 MLOAD PUSH3 0x461BCD PUSH1 0xE5 SHL DUP2 MSTORE PUSH1 0x4 ADD DUP1 DUP1 PUSH1 0x20 ADD DUP3 DUP2 SUB DUP3 MSTORE PUSH1 0x28 DUP2 MSTORE PUSH1 0x20 ADD DUP1 PUSH2 0x250F PUSH1 0x28 SWAP2 CODECOPY PUSH1 0x40 ADD SWAP2 POP POP PUSH1 0x40 MLOAD DUP1 SWAP2 SUB SWAP1 REVERT JUMPDEST PUSH2 0x1919 CALLER DUP7 PUSH2 0x23A5 JUMP JUMPDEST PUSH2 0x1923 DUP5 DUP5 PUSH2 0x212E JUMP JUMPDEST PUSH1 0x40 DUP1 MLOAD DUP4 DUP2 MSTORE PUSH1 0x20 DUP2 ADD DUP4 SWAP1 MSTORE DUP2 MLOAD CALLER SWAP3 PUSH32 0x3F280394642C42C8132E12EB42E2D9E378DBD7A457684ED25447C7CFE13A42A0 SWAP3 DUP3 SWAP1 SUB ADD SWAP1 LOG2 POP POP PUSH1 0xE DUP1 SLOAD PUSH1 0xFF NOT AND PUSH1 0x1 OR SWAP1 SSTORE POP SWAP1 SWAP2 SWAP1 POP JUMP JUMPDEST PUSH1 0xA SLOAD PUSH1 0x1 PUSH1 0x1 PUSH1 0xA0 SHL SUB AND DUP2 JUMP JUMPDEST PUSH1 0x1 PUSH1 0x1 PUSH1 0xA0 SHL SUB DUP9 AND PUSH1 0x0 SWAP1 DUP2 MSTORE PUSH1 0x7 PUSH1 0x20 MSTORE PUSH1 0x40 SWAP1 KECCAK256 DUP1 SLOAD PUSH1 0x1 DUP2 ADD SWAP1 SWAP2 SSTORE DUP6 EQ PUSH2 0x19ED JUMPI PUSH1 0x40 DUP1 MLOAD PUSH3 0x461BCD PUSH1 0xE5 SHL DUP2 MSTORE PUSH1 0x20 PUSH1 0x4 DUP3 ADD MSTORE PUSH1 0x14 PUSH1 0x24 DUP3 ADD MSTORE PUSH20 0x45524332303A20494E56414C49445F4E4F4E4345 PUSH1 0x60 SHL PUSH1 0x44 DUP3 ADD MSTORE SWAP1 MLOAD SWAP1 DUP2 SWAP1 SUB PUSH1 0x64 ADD SWAP1 REVERT JUMPDEST TIMESTAMP DUP5 GT PUSH2 0x1A32 JUMPI PUSH1 0x40 DUP1 MLOAD PUSH3 0x461BCD PUSH1 0xE5 SHL DUP2 MSTORE PUSH1 0x20 PUSH1 0x4 DUP3 ADD MSTORE PUSH1 0xE PUSH1 0x24 DUP3 ADD MSTORE PUSH14 0x115490CC8C0E8811561412549151 PUSH1 0x92 SHL PUSH1 0x44 DUP3 ADD MSTORE SWAP1 MLOAD SWAP1 DUP2 SWAP1 SUB PUSH1 0x64 ADD SWAP1 REVERT JUMPDEST DUP3 PUSH1 0xFF AND PUSH1 0x1B EQ DUP1 PUSH2 0x1A47 JUMPI POP DUP3 PUSH1 0xFF AND PUSH1 0x1C EQ JUMPDEST PUSH2 0x1A8B JUMPI PUSH1 0x40 DUP1 MLOAD PUSH3 0x461BCD PUSH1 0xE5 SHL DUP2 MSTORE PUSH1 0x20 PUSH1 0x4 DUP3 ADD MSTORE PUSH1 0x10 PUSH1 0x24 DUP3 ADD MSTORE PUSH16 0x22A92199181D1024A72B20A624A22FAB PUSH1 0x81 SHL PUSH1 0x44 DUP3 ADD MSTORE SWAP1 MLOAD SWAP1 DUP2 SWAP1 SUB PUSH1 0x64 ADD SWAP1 REVERT JUMPDEST PUSH32 0x7FFFFFFFFFFFFFFFFFFFFFFFFFFFFFFF5D576E7357A4501DDFE92F46681B20A0 DUP2 GT ISZERO PUSH2 0x1AF3 JUMPI PUSH1 0x40 DUP1 MLOAD PUSH3 0x461BCD PUSH1 0xE5 SHL DUP2 MSTORE PUSH1 0x20 PUSH1 0x4 DUP3 ADD MSTORE PUSH1 0x10 PUSH1 0x24 DUP3 ADD MSTORE PUSH16 0x45524332303A20494E56414C49445F53 PUSH1 0x80 SHL PUSH1 0x44 DUP3 ADD MSTORE SWAP1 MLOAD SWAP1 DUP2 SWAP1 SUB PUSH1 0x64 ADD SWAP1 REVERT JUMPDEST PUSH1 0x6 SLOAD PUSH1 0x40 DUP1 MLOAD PUSH32 0x6E71EDAE12B1B97F4D1F60370FEF10105FA2FAAE0126114A169C64845D6126C9 PUSH1 0x20 DUP1 DUP4 ADD SWAP2 SWAP1 SWAP2 MSTORE PUSH1 0x1 PUSH1 0x1 PUSH1 0xA0 SHL SUB DUP1 DUP14 AND DUP4 DUP6 ADD MSTORE DUP12 AND PUSH1 0x60 DUP4 ADD MSTORE PUSH1 0x80 DUP3 ADD DUP11 SWAP1 MSTORE PUSH1 0xA0 DUP3 ADD DUP10 SWAP1 MSTORE PUSH1 0xC0 DUP1 DUP4 ADD DUP10 SWAP1 MSTORE DUP4 MLOAD DUP1 DUP5 SUB SWAP1 SWAP2 ADD DUP2 MSTORE PUSH1 0xE0 DUP4 ADD DUP5 MSTORE DUP1 MLOAD SWAP1 DUP3 ADD KECCAK256 PUSH2 0x1901 PUSH1 0xF0 SHL PUSH2 0x100 DUP5 ADD MSTORE PUSH2 0x102 DUP4 ADD SWAP5 SWAP1 SWAP5 MSTORE PUSH2 0x122 DUP1 DUP4 ADD SWAP5 SWAP1 SWAP5 MSTORE DUP3 MLOAD DUP1 DUP4 SUB SWAP1 SWAP5 ADD DUP5 MSTORE PUSH2 0x142 DUP3 ADD DUP1 DUP5 MSTORE DUP5 MLOAD SWAP5 DUP3 ADD SWAP5 SWAP1 SWAP5 KECCAK256 PUSH1 0x0 SWAP5 DUP6 SWAP1 MSTORE PUSH2 0x162 DUP4 ADD DUP1 DUP6 MSTORE DUP2 SWAP1 MSTORE PUSH1 0xFF DUP9 AND PUSH2 0x182 DUP5 ADD MSTORE PUSH2 0x1A2 DUP4 ADD DUP8 SWAP1 MSTORE PUSH2 0x1C2 DUP4 ADD DUP7 SWAP1 MSTORE SWAP3 MLOAD SWAP3 SWAP4 SWAP3 PUSH1 0x1 SWAP3 PUSH2 0x1E2 DUP1 DUP3 ADD SWAP4 SWAP3 PUSH1 0x1F NOT DUP2 ADD SWAP3 DUP2 SWAP1 SUB SWAP1 SWAP2 ADD SWAP1 DUP6 GAS STATICCALL ISZERO DUP1 ISZERO PUSH2 0x1BFC JUMPI RETURNDATASIZE PUSH1 0x0 DUP1 RETURNDATACOPY RETURNDATASIZE PUSH1 0x0 REVERT JUMPDEST POP POP PUSH1 0x40 MLOAD PUSH1 0x1F NOT ADD MLOAD SWAP2 POP POP PUSH1 0x1 PUSH1 0x1 PUSH1 0xA0 SHL SUB DUP2 AND ISZERO DUP1 ISZERO SWAP1 PUSH2 0x1C32 JUMPI POP DUP10 PUSH1 0x1 PUSH1 0x1 PUSH1 0xA0 SHL SUB AND DUP2 PUSH1 0x1 PUSH1 0x1 PUSH1 0xA0 SHL SUB AND EQ JUMPDEST PUSH2 0x1C83 JUMPI PUSH1 0x40 DUP1 MLOAD PUSH3 0x461BCD PUSH1 0xE5 SHL DUP2 MSTORE PUSH1 0x20 PUSH1 0x4 DUP3 ADD MSTORE PUSH1 0x18 PUSH1 0x24 DUP3 ADD MSTORE PUSH32 0x45524332303A20494E56414C49445F5349474E41545552450000000000000000 PUSH1 0x44 DUP3 ADD MSTORE SWAP1 MLOAD SWAP1 DUP2 SWAP1 SUB PUSH1 0x64 ADD SWAP1 REVERT JUMPDEST PUSH2 0x1C8E DUP11 DUP11 DUP11 PUSH2 0x1D58 JUMP JUMPDEST POP POP POP POP POP POP POP POP POP POP JUMP JUMPDEST PUSH1 0x5 PUSH1 0x20 SWAP1 DUP2 MSTORE PUSH1 0x0 SWAP3 DUP4 MSTORE PUSH1 0x40 DUP1 DUP5 KECCAK256 SWAP1 SWAP2 MSTORE SWAP1 DUP3 MSTORE SWAP1 KECCAK256 SLOAD DUP2 JUMP JUMPDEST PUSH1 0xE SLOAD PUSH1 0xFF AND PUSH2 0x1D02 JUMPI PUSH1 0x40 DUP1 MLOAD PUSH3 0x461BCD PUSH1 0xE5 SHL DUP2 MSTORE PUSH1 0x20 PUSH1 0x4 DUP3 ADD MSTORE PUSH1 0x11 PUSH1 0x24 DUP3 ADD MSTORE PUSH17 0x155B9A5CDDD85C158C8E881313D0D2D151 PUSH1 0x7A SHL PUSH1 0x44 DUP3 ADD MSTORE SWAP1 MLOAD SWAP1 DUP2 SWAP1 SUB PUSH1 0x64 ADD SWAP1 REVERT JUMPDEST PUSH1 0xE DUP1 SLOAD PUSH1 0xFF NOT AND SWAP1 SSTORE PUSH1 0x9 SLOAD PUSH1 0x40 DUP1 MLOAD PUSH4 0x70A08231 PUSH1 0xE0 SHL DUP2 MSTORE ADDRESS PUSH1 0x4 DUP3 ADD MSTORE SWAP1 MLOAD PUSH2 0x79C SWAP3 PUSH1 0x1 PUSH1 0x1 PUSH1 0xA0 SHL SUB AND SWAP2 PUSH4 0x70A08231 SWAP2 PUSH1 0x24 DUP1 DUP4 ADD SWAP3 PUSH1 0x20 SWAP3 SWAP2 SWAP1 DUP3 SWAP1 SUB ADD DUP2 DUP7 DUP1 EXTCODESIZE ISZERO DUP1 ISZERO PUSH2 0xAE7 JUMPI PUSH1 0x0 DUP1 REVERT JUMPDEST PUSH1 0x1 PUSH1 0x1 PUSH1 0xA0 SHL SUB DUP1 DUP5 AND PUSH1 0x0 DUP2 DUP2 MSTORE PUSH1 0x5 PUSH1 0x20 SWAP1 DUP2 MSTORE PUSH1 0x40 DUP1 DUP4 KECCAK256 SWAP5 DUP8 AND DUP1 DUP5 MSTORE SWAP5 DUP3 MSTORE SWAP2 DUP3 SWAP1 KECCAK256 DUP6 SWAP1 SSTORE DUP2 MLOAD DUP6 DUP2 MSTORE SWAP2 MLOAD PUSH32 0x8C5BE1E5EBEC7D5BD14F71427D1E84F3DD0314C0F7B2291E5B200AC8C7C3B925 SWAP3 DUP2 SWAP1 SUB SWAP1 SWAP2 ADD SWAP1 LOG3 POP POP POP JUMP JUMPDEST DUP1 DUP3 SUB DUP3 DUP2 GT ISZERO PUSH2 0x623 JUMPI PUSH1 0x40 DUP1 MLOAD PUSH3 0x461BCD PUSH1 0xE5 SHL DUP2 MSTORE PUSH1 0x20 PUSH1 0x4 DUP3 ADD MSTORE PUSH1 0x15 PUSH1 0x24 DUP3 ADD MSTORE PUSH21 0x64732D6D6174682D7375622D756E646572666C6F77 PUSH1 0x58 SHL PUSH1 0x44 DUP3 ADD MSTORE SWAP1 MLOAD SWAP1 DUP2 SWAP1 SUB PUSH1 0x64 ADD SWAP1 REVERT JUMPDEST PUSH1 0x40 DUP1 MLOAD PUSH1 0x1 PUSH1 0x1 PUSH1 0xA0 SHL SUB DUP5 DUP2 AND PUSH1 0x24 DUP4 ADD MSTORE PUSH1 0x44 DUP1 DUP4 ADD DUP6 SWAP1 MSTORE DUP4 MLOAD DUP1 DUP5 SUB SWAP1 SWAP2 ADD DUP2 MSTORE PUSH1 0x64 SWAP1 SWAP3 ADD DUP4 MSTORE PUSH1 0x20 DUP3 ADD DUP1 MLOAD PUSH1 0x1 PUSH1 0x1 PUSH1 0xE0 SHL SUB AND PUSH4 0xA9059CBB PUSH1 0xE0 SHL OR DUP2 MSTORE SWAP3 MLOAD DUP3 MLOAD PUSH1 0x0 SWAP5 PUSH1 0x60 SWAP5 SWAP4 DUP10 AND SWAP4 SWAP3 SWAP2 DUP3 SWAP2 SWAP1 DUP1 DUP4 DUP4 JUMPDEST PUSH1 0x20 DUP4 LT PUSH2 0x1E87 JUMPI DUP1 MLOAD DUP3 MSTORE PUSH1 0x1F NOT SWAP1 SWAP3 ADD SWAP2 PUSH1 0x20 SWAP2 DUP3 ADD SWAP2 ADD PUSH2 0x1E68 JUMP JUMPDEST PUSH1 0x1 DUP4 PUSH1 0x20 SUB PUSH2 0x100 EXP SUB DUP1 NOT DUP3 MLOAD AND DUP2 DUP5 MLOAD AND DUP1 DUP3 OR DUP6 MSTORE POP POP POP POP POP POP SWAP1 POP ADD SWAP2 POP POP PUSH1 0x0 PUSH1 0x40 MLOAD DUP1 DUP4 SUB DUP2 PUSH1 0x0 DUP7 GAS CALL SWAP2 POP POP RETURNDATASIZE DUP1 PUSH1 0x0 DUP2 EQ PUSH2 0x1EE9 JUMPI PUSH1 0x40 MLOAD SWAP2 POP PUSH1 0x1F NOT PUSH1 0x3F RETURNDATASIZE ADD AND DUP3 ADD PUSH1 0x40 MSTORE RETURNDATASIZE DUP3 MSTORE RETURNDATASIZE PUSH1 0x0 PUSH1 0x20 DUP5 ADD RETURNDATACOPY PUSH2 0x1EEE JUMP JUMPDEST PUSH1 0x60 SWAP2 POP JUMPDEST POP SWAP2 POP SWAP2 POP DUP2 DUP1 ISZERO PUSH2 0x1F1C JUMPI POP DUP1 MLOAD ISZERO DUP1 PUSH2 0x1F1C JUMPI POP DUP1 DUP1 PUSH1 0x20 ADD SWAP1 MLOAD PUSH1 0x20 DUP2 LT ISZERO PUSH2 0x1F19 JUMPI PUSH1 0x0 DUP1 REVERT JUMPDEST POP MLOAD JUMPDEST PUSH2 0x1F6D JUMPI PUSH1 0x40 DUP1 MLOAD PUSH3 0x461BCD PUSH1 0xE5 SHL DUP2 MSTORE PUSH1 0x20 PUSH1 0x4 DUP3 ADD MSTORE PUSH1 0x1A PUSH1 0x24 DUP3 ADD MSTORE PUSH32 0x556E697377617056323A205452414E534645525F4641494C4544000000000000 PUSH1 0x44 DUP3 ADD MSTORE SWAP1 MLOAD SWAP1 DUP2 SWAP1 SUB PUSH1 0x64 ADD SWAP1 REVERT JUMPDEST POP POP POP POP POP JUMP JUMPDEST PUSH1 0x1 PUSH1 0x1 PUSH1 0xA0 SHL SUB DUP4 AND PUSH1 0x0 SWAP1 DUP2 MSTORE PUSH1 0x4 PUSH1 0x20 MSTORE PUSH1 0x40 SWAP1 KECCAK256 SLOAD PUSH2 0x1F9D SWAP1 DUP3 PUSH4 0xFFFFFFFF PUSH2 0x1DBA AND JUMP JUMPDEST PUSH1 0x1 PUSH1 0x1 PUSH1 0xA0 SHL SUB DUP1 DUP6 AND PUSH1 0x0 SWAP1 DUP2 MSTORE PUSH1 0x4 PUSH1 0x20 MSTORE PUSH1 0x40 DUP1 DUP3 KECCAK256 SWAP4 SWAP1 SWAP4 SSTORE SWAP1 DUP5 AND DUP2 MSTORE KECCAK256 SLOAD PUSH2 0x1FD2 SWAP1 DUP3 PUSH4 0xFFFFFFFF PUSH2 0x243C AND JUMP JUMPDEST PUSH1 0x1 PUSH1 0x1 PUSH1 0xA0 SHL SUB DUP1 DUP5 AND PUSH1 0x0 DUP2 DUP2 MSTORE PUSH1 0x4 PUSH1 0x20 SWAP1 DUP2 MSTORE PUSH1 0x40 SWAP2 DUP3 SWAP1 KECCAK256 SWAP5 SWAP1 SWAP5 SSTORE DUP1 MLOAD DUP6 DUP2 MSTORE SWAP1 MLOAD SWAP2 SWAP4 SWAP3 DUP8 AND SWAP3 PUSH32 0xDDF252AD1BE2C89B69C2B068FC378DAA952BA7F163C4A11628F55A4DF523B3EF SWAP3 SWAP2 DUP3 SWAP1 SUB ADD SWAP1 LOG3 POP POP POP JUMP JUMPDEST PUSH1 0x1 PUSH1 0x1 PUSH1 0xA0 SHL SUB DUP3 AND PUSH1 0x0 SWAP1 DUP2 MSTORE PUSH1 0x4 PUSH1 0x20 MSTORE PUSH1 0x40 SWAP1 KECCAK256 SLOAD PUSH2 0x2057 SWAP1 DUP3 PUSH4 0xFFFFFFFF PUSH2 0x1DBA AND JUMP JUMPDEST PUSH1 0x1 PUSH1 0x1 PUSH1 0xA0 SHL SUB DUP4 AND PUSH1 0x0 SWAP1 DUP2 MSTORE PUSH1 0x4 PUSH1 0x20 MSTORE PUSH1 0x40 SWAP1 KECCAK256 SSTORE PUSH1 0x3 SLOAD PUSH2 0x2083 SWAP1 DUP3 PUSH4 0xFFFFFFFF PUSH2 0x1DBA AND JUMP JUMPDEST PUSH1 0x3 SSTORE PUSH1 0x40 DUP1 MLOAD DUP3 DUP2 MSTORE SWAP1 MLOAD PUSH1 0x0 SWAP2 PUSH1 0x1 PUSH1 0x1 PUSH1 0xA0 SHL SUB DUP6 AND SWAP2 PUSH32 0xDDF252AD1BE2C89B69C2B068FC378DAA952BA7F163C4A11628F55A4DF523B3EF SWAP2 DUP2 SWAP1 SUB PUSH1 0x20 ADD SWAP1 LOG3 POP POP JUMP JUMPDEST PUSH1 0x0 DUP2 ISZERO DUP1 PUSH2 0x20E6 JUMPI POP POP DUP1 DUP3 MUL DUP3 DUP3 DUP3 DUP2 PUSH2 0x20E3 JUMPI INVALID JUMPDEST DIV EQ JUMPDEST PUSH2 0x623 JUMPI PUSH1 0x40 DUP1 MLOAD PUSH3 0x461BCD PUSH1 0xE5 SHL DUP2 MSTORE PUSH1 0x20 PUSH1 0x4 DUP3 ADD MSTORE PUSH1 0x14 PUSH1 0x24 DUP3 ADD MSTORE PUSH20 0x64732D6D6174682D6D756C2D6F766572666C6F77 PUSH1 0x60 SHL PUSH1 0x44 DUP3 ADD MSTORE SWAP1 MLOAD SWAP1 DUP2 SWAP1 SUB PUSH1 0x64 ADD SWAP1 REVERT JUMPDEST PUSH1 0x1 PUSH1 0x1 PUSH1 0x70 SHL SUB DUP3 GT DUP1 ISZERO SWAP1 PUSH2 0x214C JUMPI POP PUSH1 0x1 PUSH1 0x1 PUSH1 0x70 SHL SUB DUP2 GT ISZERO JUMPDEST PUSH2 0x219D JUMPI PUSH1 0x40 DUP1 MLOAD PUSH3 0x461BCD PUSH1 0xE5 SHL DUP2 MSTORE PUSH1 0x20 PUSH1 0x4 DUP3 ADD MSTORE PUSH1 0x1B PUSH1 0x24 DUP3 ADD MSTORE PUSH32 0x556E697377617056323A2042414C414E43455F4F564552464C4F570000000000 PUSH1 0x44 DUP3 ADD MSTORE SWAP1 MLOAD SWAP1 DUP2 SWAP1 SUB PUSH1 0x64 ADD SWAP1 REVERT JUMPDEST PUSH1 0xB SLOAD PUSH4 0xFFFFFFFF NUMBER DUP2 AND SWAP2 PUSH1 0x1 PUSH1 0xE0 SHL DUP2 DIV SWAP1 SWAP2 AND DUP3 SUB SWAP1 PUSH1 0x1 PUSH1 0x1 PUSH1 0x70 SHL SUB AND ISZERO DUP1 ISZERO SWAP1 PUSH2 0x21DE JUMPI POP PUSH1 0xB SLOAD PUSH1 0x1 PUSH1 0x70 SHL SWAP1 DIV PUSH1 0x1 PUSH1 0x1 PUSH1 0x70 SHL SUB AND ISZERO ISZERO JUMPDEST DUP1 ISZERO PUSH2 0x21F0 JUMPI POP PUSH1 0x0 DUP2 PUSH4 0xFFFFFFFF AND GT JUMPDEST ISZERO PUSH2 0x2291 JUMPI PUSH1 0xB SLOAD PUSH4 0xFFFFFFFF DUP3 AND SWAP1 PUSH2 0x2235 SWAP1 PUSH1 0x1 PUSH1 0x1 PUSH1 0x70 SHL SUB PUSH1 0x1 PUSH1 0x70 SHL DUP3 DIV DUP2 AND SWAP2 PUSH2 0x2220 SWAP2 AND PUSH2 0x248B JUMP JUMPDEST PUSH1 0x1 PUSH1 0x1 PUSH1 0xE0 SHL SUB AND SWAP1 PUSH4 0xFFFFFFFF PUSH2 0x249D AND JUMP JUMPDEST PUSH1 0xC DUP1 SLOAD PUSH1 0x1 PUSH1 0x1 PUSH1 0xE0 SHL SUB SWAP3 SWAP1 SWAP3 AND SWAP3 SWAP1 SWAP3 MUL ADD SWAP1 SSTORE PUSH1 0xB SLOAD PUSH4 0xFFFFFFFF DUP3 AND SWAP1 PUSH2 0x2279 SWAP1 PUSH1 0x1 PUSH1 0x1 PUSH1 0x70 SHL SUB DUP1 DUP3 AND SWAP2 PUSH2 0x2220 SWAP2 PUSH1 0x1 PUSH1 0x70 SHL SWAP1 SWAP2 DIV AND PUSH2 0x248B JUMP JUMPDEST PUSH1 0xD DUP1 SLOAD PUSH1 0x1 PUSH1 0x1 PUSH1 0xE0 SHL SUB SWAP3 SWAP1 SWAP3 AND SWAP3 SWAP1 SWAP3 MUL ADD SWAP1 SSTORE JUMPDEST PUSH1 0xB DUP1 SLOAD PUSH14 0xFFFFFFFFFFFFFFFFFFFFFFFFFFFF NOT AND PUSH1 0x1 PUSH1 0x1 PUSH1 0x70 SHL SUB DUP7 DUP2 AND SWAP2 SWAP1 SWAP2 OR PUSH14 0xFFFFFFFFFFFFFFFFFFFFFFFFFFFF PUSH1 0x70 SHL NOT AND PUSH1 0x1 PUSH1 0x70 SHL DUP7 DUP4 AND DUP2 MUL SWAP2 SWAP1 SWAP2 OR PUSH1 0x1 PUSH1 0x1 PUSH1 0xE0 SHL SUB AND PUSH1 0x1 PUSH1 0xE0 SHL PUSH4 0xFFFFFFFF DUP8 AND MUL OR SWAP3 DUP4 SWAP1 SSTORE PUSH1 0x40 DUP1 MLOAD DUP5 DUP5 AND DUP2 MSTORE SWAP2 SWAP1 SWAP4 DIV SWAP1 SWAP2 AND PUSH1 0x20 DUP3 ADD MSTORE DUP2 MLOAD PUSH32 0x1C411E9A96E071241C2F21F7726B17AE89E3CAB4C78BE50E062B03A9FFFBBAD1 SWAP3 SWAP2 DUP2 SWAP1 SUB SWAP1 SWAP2 ADD SWAP1 LOG1 POP POP POP POP JUMP JUMPDEST PUSH1 0x0 DUP2 DUP4 GT ISZERO PUSH2 0x234A JUMPI DUP2 PUSH2 0x234C JUMP JUMPDEST DUP3 JUMPDEST SWAP4 SWAP3 POP POP POP JUMP JUMPDEST PUSH1 0x0 PUSH1 0x3 DUP3 GT ISZERO PUSH2 0x2396 JUMPI POP DUP1 PUSH1 0x2 PUSH1 0x1 DUP3 ADD DIV JUMPDEST DUP2 DUP2 LT ISZERO PUSH2 0x2390 JUMPI DUP1 SWAP2 POP PUSH1 0x2 DUP2 DUP3 DUP6 DUP2 PUSH2 0x237F JUMPI INVALID JUMPDEST DIV ADD DUP2 PUSH2 0x2388 JUMPI INVALID JUMPDEST DIV SWAP1 POP PUSH2 0x2368 JUMP JUMPDEST POP PUSH2 0x23A0 JUMP JUMPDEST DUP2 ISZERO PUSH2 0x23A0 JUMPI POP PUSH1 0x1 JUMPDEST SWAP2 SWAP1 POP JUMP JUMPDEST PUSH1 0x3 SLOAD PUSH2 0x23B8 SWAP1 DUP3 PUSH4 0xFFFFFFFF PUSH2 0x243C AND JUMP JUMPDEST PUSH1 0x3 SSTORE PUSH1 0x1 PUSH1 0x1 PUSH1 0xA0 SHL SUB DUP3 AND PUSH1 0x0 SWAP1 DUP2 MSTORE PUSH1 0x4 PUSH1 0x20 MSTORE PUSH1 0x40 SWAP1 KECCAK256 SLOAD PUSH2 0x23E4 SWAP1 DUP3 PUSH4 0xFFFFFFFF PUSH2 0x243C AND JUMP JUMPDEST PUSH1 0x1 PUSH1 0x1 PUSH1 0xA0 SHL SUB DUP4 AND PUSH1 0x0 DUP2 DUP2 MSTORE PUSH1 0x4 PUSH1 0x20 SWAP1 DUP2 MSTORE PUSH1 0x40 DUP1 DUP4 KECCAK256 SWAP5 SWAP1 SWAP5 SSTORE DUP4 MLOAD DUP6 DUP2 MSTORE SWAP4 MLOAD SWAP3 SWAP4 SWAP2 SWAP3 PUSH32 0xDDF252AD1BE2C89B69C2B068FC378DAA952BA7F163C4A11628F55A4DF523B3EF SWAP3 DUP2 SWAP1 SUB SWAP1 SWAP2 ADD SWAP1 LOG3 POP POP JUMP JUMPDEST DUP1 DUP3 ADD DUP3 DUP2 LT ISZERO PUSH2 0x623 JUMPI PUSH1 0x40 DUP1 MLOAD PUSH3 0x461BCD PUSH1 0xE5 SHL DUP2 MSTORE PUSH1 0x20 PUSH1 0x4 DUP3 ADD MSTORE PUSH1 0x14 PUSH1 0x24 DUP3 ADD MSTORE PUSH20 0x64732D6D6174682D6164642D6F766572666C6F77 PUSH1 0x60 SHL PUSH1 0x44 DUP3 ADD MSTORE SWAP1 MLOAD SWAP1 DUP2 SWAP1 SUB PUSH1 0x64 ADD SWAP1 REVERT JUMPDEST PUSH1 0x1 PUSH1 0x1 PUSH1 0x70 SHL SUB AND PUSH1 0x1 PUSH1 0x70 SHL MUL SWAP1 JUMP JUMPDEST PUSH1 0x0 DUP2 PUSH1 0x1 PUSH1 0x1 PUSH1 0x70 SHL SUB AND DUP4 PUSH1 0x1 PUSH1 0x1 PUSH1 0xE0 SHL SUB AND DUP2 PUSH2 0x24BA JUMPI INVALID JUMPDEST DIV SWAP4 SWAP3 POP POP POP JUMP INVALID SSTORE PUSH15 0x697377617056323A20494E53554646 0x49 NUMBER 0x49 GASLIMIT 0x4E SLOAD 0x5F 0x49 0x4E POP SSTORE SLOAD 0x5F COINBASE 0x4D 0x4F SSTORE 0x4E SLOAD SSTORE PUSH15 0x697377617056323A20494E53554646 0x49 NUMBER 0x49 GASLIMIT 0x4E SLOAD 0x5F 0x4C 0x49 MLOAD SSTORE 0x49 DIFFICULTY 0x49 SLOAD MSIZE 0x5F TIMESTAMP SSTORE MSTORE 0x4E GASLIMIT DIFFICULTY SSTORE PUSH15 0x697377617056323A20494E53554646 0x49 NUMBER 0x49 GASLIMIT 0x4E SLOAD 0x5F 0x4C 0x49 MLOAD SSTORE 0x49 DIFFICULTY 0x49 SLOAD MSIZE 0x5F 0x4D 0x49 0x4E SLOAD GASLIMIT DIFFICULTY LOG2 PUSH6 0x627A7A723158 KECCAK256 NUMBER 0xF8 0x5C 0xCA PC DUP13 EQ 0xE5 0xDC 0xD6 CALLDATALOAD BYTE PUSH29 0x9E05047AF2412534312EC317EF6D4165C420F64736F6C634300050F00 ORIGIN GASLIMIT 0x49 POP CALLDATACOPY BALANCE ORIGIN DIFFICULTY PUSH16 0x6D61696E28737472696E67206E616D65 0x2C PUSH20 0x7472696E672076657273696F6E2C75696E743235 CALLDATASIZE KECCAK256 PUSH4 0x6861696E 0x49 PUSH5 0x2C61646472 PUSH6 0x737320766572 PUSH10 0x6679696E67436F6E7472 PUSH2 0x6374 0x29 "
    }
  },
  "interface": [
    {
      "inputs": [],
      "payable": false,
      "stateMutability": "nonpayable",
      "type": "constructor"
    },
    {
      "anonymous": false,
      "inputs": [
        {
          "indexed": true,
          "internalType": "address",
          "name": "owner",
          "type": "address"
        },
        {
          "indexed": true,
          "internalType": "address",
          "name": "spender",
          "type": "address"
        },
        {
          "indexed": false,
          "internalType": "uint256",
          "name": "value",
          "type": "uint256"
        }
      ],
      "name": "Approval",
      "type": "event"
    },
    {
      "anonymous": false,
      "inputs": [
        {
          "indexed": true,
          "internalType": "address",
          "name": "sender",
          "type": "address"
        },
        {
          "indexed": false,
          "internalType": "uint256",
          "name": "amount0",
          "type": "uint256"
        },
        {
          "indexed": false,
          "internalType": "uint256",
          "name": "amount1",
          "type": "uint256"
        }
      ],
      "name": "Made",
      "type": "event"
    },
    {
      "anonymous": false,
      "inputs": [
        {
          "indexed": true,
          "internalType": "address",
          "name": "sender",
          "type": "address"
        },
        {
          "indexed": false,
          "internalType": "uint256",
          "name": "amount0",
          "type": "uint256"
        },
        {
          "indexed": false,
          "internalType": "uint256",
          "name": "amount1",
          "type": "uint256"
        }
      ],
      "name": "Make",
      "type": "event"
    },
    {
      "anonymous": false,
      "inputs": [
        {
          "indexed": true,
          "internalType": "address",
          "name": "sender",
          "type": "address"
        },
        {
          "indexed": true,
          "internalType": "address",
          "name": "tokenIn",
          "type": "address"
        },
        {
          "indexed": false,
          "internalType": "uint256",
          "name": "amountIn",
          "type": "uint256"
        },
        {
          "indexed": false,
          "internalType": "uint256",
          "name": "amountOut",
          "type": "uint256"
        }
      ],
      "name": "Move",
      "type": "event"
    },
    {
      "anonymous": false,
      "inputs": [
        {
          "indexed": false,
          "internalType": "uint112",
          "name": "reserve0",
          "type": "uint112"
        },
        {
          "indexed": false,
          "internalType": "uint112",
          "name": "reserve1",
          "type": "uint112"
        }
      ],
      "name": "Sync",
      "type": "event"
    },
    {
      "anonymous": false,
      "inputs": [
        {
          "indexed": true,
          "internalType": "address",
          "name": "from",
          "type": "address"
        },
        {
          "indexed": true,
          "internalType": "address",
          "name": "to",
          "type": "address"
        },
        {
          "indexed": false,
          "internalType": "uint256",
          "name": "value",
          "type": "uint256"
        }
      ],
      "name": "Transfer",
      "type": "event"
    },
    {
      "constant": true,
      "inputs": [],
      "name": "DOMAIN_SEPARATOR",
      "outputs": [
        {
          "internalType": "bytes32",
          "name": "",
          "type": "bytes32"
        }
      ],
      "payable": false,
      "stateMutability": "view",
      "type": "function"
    },
    {
      "constant": true,
      "inputs": [],
      "name": "PERMIT_TYPEHASH",
      "outputs": [
        {
          "internalType": "bytes32",
          "name": "",
          "type": "bytes32"
        }
      ],
      "payable": false,
      "stateMutability": "view",
      "type": "function"
    },
    {
      "constant": true,
      "inputs": [
        {
          "internalType": "address",
          "name": "",
          "type": "address"
        },
        {
          "internalType": "address",
          "name": "",
          "type": "address"
        }
      ],
      "name": "allowance",
      "outputs": [
        {
          "internalType": "uint256",
          "name": "",
          "type": "uint256"
        }
      ],
      "payable": false,
      "stateMutability": "view",
      "type": "function"
    },
    {
      "constant": false,
      "inputs": [
        {
          "internalType": "address",
          "name": "spender",
          "type": "address"
        },
        {
          "internalType": "uint256",
          "name": "value",
          "type": "uint256"
        }
      ],
      "name": "approve",
      "outputs": [
        {
          "internalType": "bool",
          "name": "",
          "type": "bool"
        }
      ],
      "payable": false,
      "stateMutability": "nonpayable",
      "type": "function"
    },
    {
      "constant": true,
      "inputs": [
        {
          "internalType": "address",
          "name": "",
          "type": "address"
        }
      ],
      "name": "balanceOf",
      "outputs": [
        {
          "internalType": "uint256",
          "name": "",
          "type": "uint256"
        }
      ],
      "payable": false,
      "stateMutability": "view",
      "type": "function"
    },
    {
      "constant": true,
      "inputs": [],
      "name": "blockNumberLast",
      "outputs": [
        {
          "internalType": "uint32",
          "name": "",
          "type": "uint32"
        }
      ],
      "payable": false,
      "stateMutability": "view",
      "type": "function"
    },
    {
      "constant": false,
      "inputs": [
        {
          "internalType": "uint256",
          "name": "value",
          "type": "uint256"
        }
      ],
      "name": "burn",
      "outputs": [],
      "payable": false,
      "stateMutability": "nonpayable",
      "type": "function"
    },
    {
      "constant": false,
      "inputs": [
        {
          "internalType": "address",
          "name": "from",
          "type": "address"
        },
        {
          "internalType": "uint256",
          "name": "value",
          "type": "uint256"
        }
      ],
      "name": "burnFrom",
      "outputs": [],
      "payable": false,
      "stateMutability": "nonpayable",
      "type": "function"
    },
    {
      "constant": true,
      "inputs": [],
      "name": "decimals",
      "outputs": [
        {
          "internalType": "uint8",
          "name": "",
          "type": "uint8"
        }
      ],
      "payable": false,
      "stateMutability": "view",
      "type": "function"
    },
    {
      "constant": true,
      "inputs": [],
      "name": "factory",
      "outputs": [
        {
          "internalType": "address",
          "name": "",
          "type": "address"
        }
      ],
      "payable": false,
      "stateMutability": "view",
      "type": "function"
    },
    {
      "constant": false,
      "inputs": [
        {
          "internalType": "address",
          "name": "_token0",
          "type": "address"
        },
        {
          "internalType": "address",
          "name": "_token1",
          "type": "address"
        }
      ],
      "name": "initialize",
      "outputs": [],
      "payable": false,
      "stateMutability": "nonpayable",
      "type": "function"
    },
    {
      "constant": false,
      "inputs": [],
      "name": "made",
      "outputs": [
        {
          "internalType": "uint256",
          "name": "amount0",
          "type": "uint256"
        },
        {
          "internalType": "uint256",
          "name": "amount1",
          "type": "uint256"
        }
      ],
      "payable": false,
      "stateMutability": "nonpayable",
      "type": "function"
    },
    {
      "constant": false,
      "inputs": [],
      "name": "make",
      "outputs": [
        {
          "internalType": "uint256",
          "name": "liquidity",
          "type": "uint256"
        }
      ],
      "payable": false,
      "stateMutability": "nonpayable",
      "type": "function"
    },
    {
      "constant": false,
      "inputs": [
        {
          "internalType": "address",
          "name": "tokenIn",
          "type": "address"
        },
        {
          "internalType": "uint256",
          "name": "amountOut",
          "type": "uint256"
        }
      ],
      "name": "move",
      "outputs": [],
      "payable": false,
      "stateMutability": "nonpayable",
      "type": "function"
    },
    {
      "constant": true,
      "inputs": [],
      "name": "name",
      "outputs": [
        {
          "internalType": "string",
          "name": "",
          "type": "string"
        }
      ],
      "payable": false,
      "stateMutability": "view",
      "type": "function"
    },
    {
      "constant": true,
      "inputs": [
        {
          "internalType": "address",
          "name": "",
          "type": "address"
        }
      ],
      "name": "nonces",
      "outputs": [
        {
          "internalType": "uint256",
          "name": "",
          "type": "uint256"
        }
      ],
      "payable": false,
      "stateMutability": "view",
      "type": "function"
    },
    {
      "constant": false,
      "inputs": [
        {
          "internalType": "address",
          "name": "owner",
          "type": "address"
        },
        {
          "internalType": "address",
          "name": "spender",
          "type": "address"
        },
        {
          "internalType": "uint256",
          "name": "value",
          "type": "uint256"
        },
        {
          "internalType": "uint256",
          "name": "nonce",
          "type": "uint256"
        },
        {
          "internalType": "uint256",
          "name": "deadline",
          "type": "uint256"
        },
        {
          "internalType": "uint8",
          "name": "v",
          "type": "uint8"
        },
        {
          "internalType": "bytes32",
          "name": "r",
          "type": "bytes32"
        },
        {
          "internalType": "bytes32",
          "name": "s",
          "type": "bytes32"
        }
      ],
      "name": "permit",
      "outputs": [],
      "payable": false,
      "stateMutability": "nonpayable",
      "type": "function"
    },
    {
      "constant": true,
      "inputs": [],
      "name": "price0CumulativeLast",
      "outputs": [
        {
          "internalType": "uint256",
          "name": "",
          "type": "uint256"
        }
      ],
      "payable": false,
      "stateMutability": "view",
      "type": "function"
    },
    {
      "constant": true,
      "inputs": [],
      "name": "price1CumulativeLast",
      "outputs": [
        {
          "internalType": "uint256",
          "name": "",
          "type": "uint256"
        }
      ],
      "payable": false,
      "stateMutability": "view",
      "type": "function"
    },
    {
      "constant": true,
      "inputs": [],
      "name": "reserve0",
      "outputs": [
        {
          "internalType": "uint112",
          "name": "",
          "type": "uint112"
        }
      ],
      "payable": false,
      "stateMutability": "view",
      "type": "function"
    },
    {
      "constant": true,
      "inputs": [],
      "name": "reserve1",
      "outputs": [
        {
          "internalType": "uint112",
          "name": "",
          "type": "uint112"
        }
      ],
      "payable": false,
      "stateMutability": "view",
      "type": "function"
    },
    {
      "constant": false,
      "inputs": [],
      "name": "skim",
      "outputs": [],
      "payable": false,
      "stateMutability": "nonpayable",
      "type": "function"
    },
    {
      "constant": true,
      "inputs": [],
      "name": "symbol",
      "outputs": [
        {
          "internalType": "string",
          "name": "",
          "type": "string"
        }
      ],
      "payable": false,
      "stateMutability": "view",
      "type": "function"
    },
    {
      "constant": false,
      "inputs": [],
      "name": "sync",
      "outputs": [],
      "payable": false,
      "stateMutability": "nonpayable",
      "type": "function"
    },
    {
      "constant": true,
      "inputs": [],
      "name": "token0",
      "outputs": [
        {
          "internalType": "address",
          "name": "",
          "type": "address"
        }
      ],
      "payable": false,
      "stateMutability": "view",
      "type": "function"
    },
    {
      "constant": true,
      "inputs": [],
      "name": "token1",
      "outputs": [
        {
          "internalType": "address",
          "name": "",
          "type": "address"
        }
      ],
      "payable": false,
      "stateMutability": "view",
      "type": "function"
    },
    {
      "constant": true,
      "inputs": [],
      "name": "totalSupply",
      "outputs": [
        {
          "internalType": "uint256",
          "name": "",
          "type": "uint256"
        }
      ],
      "payable": false,
      "stateMutability": "view",
      "type": "function"
    },
    {
      "constant": false,
      "inputs": [
        {
          "internalType": "address",
          "name": "to",
          "type": "address"
        },
        {
          "internalType": "uint256",
          "name": "value",
          "type": "uint256"
        }
      ],
      "name": "transfer",
      "outputs": [
        {
          "internalType": "bool",
          "name": "",
          "type": "bool"
        }
      ],
      "payable": false,
      "stateMutability": "nonpayable",
      "type": "function"
    },
    {
      "constant": false,
      "inputs": [
        {
          "internalType": "address",
          "name": "from",
          "type": "address"
        },
        {
          "internalType": "address",
          "name": "to",
          "type": "address"
        },
        {
          "internalType": "uint256",
          "name": "value",
          "type": "uint256"
        }
      ],
      "name": "transferFrom",
      "outputs": [
        {
          "internalType": "bool",
          "name": "",
          "type": "bool"
        }
      ],
      "payable": false,
      "stateMutability": "nonpayable",
      "type": "function"
    }
  ]
}