{
  "_format": "hh-sol-artifact-1",
  "contractName": "ContangoPair",
  "sourceName": "contracts/ContangoPair.sol",
  "abi": [
    {
      "anonymous": false,
      "inputs": [
        {
          "indexed": true,
          "internalType": "address",
          "name": "owner",
          "type": "address"
        },
        {
          "indexed": true,
          "internalType": "address",
          "name": "spender",
          "type": "address"
        },
        {
          "indexed": false,
          "internalType": "uint256",
          "name": "value",
          "type": "uint256"
        }
      ],
      "name": "Approval",
      "type": "event"
    },
    {
      "anonymous": false,
      "inputs": [
        {
          "indexed": true,
          "internalType": "address",
          "name": "sender",
          "type": "address"
        },
        {
          "indexed": false,
          "internalType": "uint256",
          "name": "amount0",
          "type": "uint256"
        },
        {
          "indexed": false,
          "internalType": "uint256",
          "name": "amount1",
          "type": "uint256"
        },
        {
          "indexed": true,
          "internalType": "address",
          "name": "to",
          "type": "address"
        }
      ],
      "name": "Burn",
      "type": "event"
    },
    {
      "anonymous": false,
      "inputs": [
        {
          "indexed": true,
          "internalType": "address",
          "name": "sender",
          "type": "address"
        },
        {
          "indexed": false,
          "internalType": "uint256",
          "name": "amount0",
          "type": "uint256"
        },
        {
          "indexed": false,
          "internalType": "uint256",
          "name": "amount1",
          "type": "uint256"
        }
      ],
      "name": "Mint",
      "type": "event"
    },
    {
      "anonymous": false,
      "inputs": [
        {
          "indexed": true,
          "internalType": "uint256",
          "name": "positionId",
          "type": "uint256"
        },
        {
          "indexed": true,
          "internalType": "address",
          "name": "owner",
          "type": "address"
        },
        {
          "indexed": true,
          "internalType": "address",
          "name": "collateralToken",
          "type": "address"
        },
        {
          "indexed": false,
          "internalType": "uint256",
          "name": "debt",
          "type": "uint256"
        },
        {
          "indexed": false,
          "internalType": "uint256",
          "name": "amountRepayed",
          "type": "uint256"
        },
        {
          "indexed": false,
          "internalType": "uint256",
          "name": "interestPayed",
          "type": "uint256"
        },
        {
          "indexed": false,
          "internalType": "uint256",
          "name": "amountEarned",
          "type": "uint256"
        }
      ],
      "name": "PositionClosed",
      "type": "event"
    },
    {
      "anonymous": false,
      "inputs": [
        {
          "indexed": true,
          "internalType": "uint256",
          "name": "positionId",
          "type": "uint256"
        },
        {
          "indexed": true,
          "internalType": "address",
          "name": "owner",
          "type": "address"
        },
        {
          "indexed": true,
          "internalType": "address",
          "name": "collateralToken",
          "type": "address"
        },
        {
          "indexed": false,
          "internalType": "uint256",
          "name": "collateral",
          "type": "uint256"
        },
        {
          "indexed": false,
          "internalType": "uint112",
          "name": "amountBorrowed",
          "type": "uint112"
        }
      ],
      "name": "PositionOpened",
      "type": "event"
    },
    {
      "anonymous": false,
      "inputs": [
        {
          "indexed": false,
          "internalType": "uint256[]",
          "name": "ids",
          "type": "uint256[]"
        },
        {
          "indexed": false,
          "internalType": "address",
          "name": "liquidator",
          "type": "address"
        },
        {
          "indexed": false,
          "internalType": "uint256",
          "name": "debt0Repayed",
          "type": "uint256"
        },
        {
          "indexed": false,
          "internalType": "uint256",
          "name": "debt1Repayed",
          "type": "uint256"
        }
      ],
      "name": "PositionsClosed",
      "type": "event"
    },
    {
      "anonymous": false,
      "inputs": [
        {
          "indexed": true,
          "internalType": "address",
          "name": "sender",
          "type": "address"
        },
        {
          "indexed": false,
          "internalType": "uint256",
          "name": "amount0In",
          "type": "uint256"
        },
        {
          "indexed": false,
          "internalType": "uint256",
          "name": "amount1In",
          "type": "uint256"
        },
        {
          "indexed": false,
          "internalType": "uint256",
          "name": "amount0Out",
          "type": "uint256"
        },
        {
          "indexed": false,
          "internalType": "uint256",
          "name": "amount1Out",
          "type": "uint256"
        },
        {
          "indexed": true,
          "internalType": "address",
          "name": "to",
          "type": "address"
        }
      ],
      "name": "Swap",
      "type": "event"
    },
    {
      "anonymous": false,
      "inputs": [
        {
          "indexed": false,
          "internalType": "uint112",
          "name": "reserve0",
          "type": "uint112"
        },
        {
          "indexed": false,
          "internalType": "uint112",
          "name": "reserve1",
          "type": "uint112"
        },
        {
          "indexed": false,
          "internalType": "uint112",
          "name": "sidePool0",
          "type": "uint112"
        },
        {
          "indexed": false,
          "internalType": "uint112",
          "name": "sidePool1",
          "type": "uint112"
        }
      ],
      "name": "Sync",
      "type": "event"
    },
    {
      "anonymous": false,
      "inputs": [
        {
          "indexed": true,
          "internalType": "address",
          "name": "from",
          "type": "address"
        },
        {
          "indexed": true,
          "internalType": "address",
          "name": "to",
          "type": "address"
        },
        {
          "indexed": false,
          "internalType": "uint256",
          "name": "value",
          "type": "uint256"
        }
      ],
      "name": "Transfer",
      "type": "event"
    },
    {
      "inputs": [],
      "name": "DOMAIN_SEPARATOR",
      "outputs": [
        {
          "internalType": "bytes32",
          "name": "",
          "type": "bytes32"
        }
      ],
      "stateMutability": "view",
      "type": "function"
    },
    {
      "inputs": [],
      "name": "MINIMUM_LIQUIDITY",
      "outputs": [
        {
          "internalType": "uint256",
          "name": "",
          "type": "uint256"
        }
      ],
      "stateMutability": "view",
      "type": "function"
    },
    {
      "inputs": [],
      "name": "PERMIT_TYPEHASH",
      "outputs": [
        {
          "internalType": "bytes32",
          "name": "",
          "type": "bytes32"
        }
      ],
      "stateMutability": "view",
      "type": "function"
    },
    {
      "inputs": [
        {
          "internalType": "address",
          "name": "",
          "type": "address"
        },
        {
          "internalType": "address",
          "name": "",
          "type": "address"
        }
      ],
      "name": "allowance",
      "outputs": [
        {
          "internalType": "uint256",
          "name": "",
          "type": "uint256"
        }
      ],
      "stateMutability": "view",
      "type": "function"
    },
    {
      "inputs": [
        {
          "internalType": "address",
          "name": "spender",
          "type": "address"
        },
        {
          "internalType": "uint256",
          "name": "value",
          "type": "uint256"
        }
      ],
      "name": "approve",
      "outputs": [
        {
          "internalType": "bool",
          "name": "",
          "type": "bool"
        }
      ],
      "stateMutability": "nonpayable",
      "type": "function"
    },
    {
      "inputs": [
        {
          "internalType": "address",
          "name": "",
          "type": "address"
        }
      ],
      "name": "balanceOf",
      "outputs": [
        {
          "internalType": "uint256",
          "name": "",
          "type": "uint256"
        }
      ],
      "stateMutability": "view",
      "type": "function"
    },
    {
      "inputs": [
        {
          "internalType": "address",
          "name": "to",
          "type": "address"
        }
      ],
      "name": "burn",
      "outputs": [
        {
          "internalType": "uint256",
          "name": "amount0",
          "type": "uint256"
        },
        {
          "internalType": "uint256",
          "name": "amount1",
          "type": "uint256"
        }
      ],
      "stateMutability": "nonpayable",
      "type": "function"
    },
    {
      "inputs": [],
      "name": "calcFee",
      "outputs": [
        {
          "internalType": "uint256",
          "name": "",
          "type": "uint256"
        }
      ],
      "stateMutability": "view",
      "type": "function"
    },
    {
      "inputs": [
        {
          "internalType": "uint256",
          "name": "positionId",
          "type": "uint256"
        },
        {
          "internalType": "address",
          "name": "to",
          "type": "address"
        }
      ],
      "name": "close",
      "outputs": [],
      "stateMutability": "nonpayable",
      "type": "function"
    },
    {
      "inputs": [
        {
          "internalType": "address",
          "name": "",
          "type": "address"
        },
        {
          "internalType": "uint256",
          "name": "",
          "type": "uint256"
        }
      ],
      "name": "debtBalances",
      "outputs": [
        {
          "internalType": "uint112",
          "name": "",
          "type": "uint112"
        }
      ],
      "stateMutability": "view",
      "type": "function"
    },
    {
      "inputs": [],
      "name": "debtShares0",
      "outputs": [
        {
          "internalType": "uint112",
          "name": "",
          "type": "uint112"
        }
      ],
      "stateMutability": "view",
      "type": "function"
    },
    {
      "inputs": [],
      "name": "debtShares1",
      "outputs": [
        {
          "internalType": "uint112",
          "name": "",
          "type": "uint112"
        }
      ],
      "stateMutability": "view",
      "type": "function"
    },
    {
      "inputs": [],
      "name": "decimals",
      "outputs": [
        {
          "internalType": "uint8",
          "name": "",
          "type": "uint8"
        }
      ],
      "stateMutability": "view",
      "type": "function"
    },
    {
      "inputs": [],
      "name": "factory",
      "outputs": [
        {
          "internalType": "address",
          "name": "",
          "type": "address"
        }
      ],
      "stateMutability": "view",
      "type": "function"
    },
    {
      "inputs": [
        {
          "internalType": "uint256",
          "name": "_amountIn",
          "type": "uint256"
        },
        {
          "internalType": "uint256",
          "name": "_reserveIn",
          "type": "uint256"
        },
        {
          "internalType": "uint256",
          "name": "_reserveOut",
          "type": "uint256"
        },
        {
          "internalType": "bool",
          "name": "withFee",
          "type": "bool"
        }
      ],
      "name": "getAmountOut",
      "outputs": [
        {
          "internalType": "uint256",
          "name": "amountOut",
          "type": "uint256"
        }
      ],
      "stateMutability": "view",
      "type": "function"
    },
    {
      "inputs": [],
      "name": "getFeeFactor",
      "outputs": [
        {
          "internalType": "uint256",
          "name": "feeFactor0",
          "type": "uint256"
        },
        {
          "internalType": "uint256",
          "name": "feeFactor1",
          "type": "uint256"
        }
      ],
      "stateMutability": "view",
      "type": "function"
    },
    {
      "inputs": [],
      "name": "getReserves",
      "outputs": [
        {
          "internalType": "uint112",
          "name": "_reserve0",
          "type": "uint112"
        },
        {
          "internalType": "uint112",
          "name": "_reserve1",
          "type": "uint112"
        },
        {
          "internalType": "uint32",
          "name": "_blockTimestampLast",
          "type": "uint32"
        }
      ],
      "stateMutability": "view",
      "type": "function"
    },
    {
      "inputs": [],
      "name": "getSidePools",
      "outputs": [
        {
          "internalType": "uint112",
          "name": "_sidePool0",
          "type": "uint112"
        },
        {
          "internalType": "uint112",
          "name": "_sidePool1",
          "type": "uint112"
        },
        {
          "internalType": "uint32",
          "name": "_blockTimestampLast",
          "type": "uint32"
        }
      ],
      "stateMutability": "view",
      "type": "function"
    },
    {
      "inputs": [
        {
          "internalType": "uint256",
          "name": "_amountIn",
          "type": "uint256"
        },
        {
          "internalType": "uint256",
          "name": "_reserveIn",
          "type": "uint256"
        },
        {
          "internalType": "uint256",
          "name": "_reserveOut",
          "type": "uint256"
        }
      ],
      "name": "getValue",
      "outputs": [
        {
          "internalType": "uint256",
          "name": "amountOut",
          "type": "uint256"
        }
      ],
      "stateMutability": "pure",
      "type": "function"
    },
    {
      "inputs": [
        {
          "internalType": "address",
          "name": "_token0",
          "type": "address"
        },
        {
          "internalType": "address",
          "name": "_token1",
          "type": "address"
        },
        {
          "internalType": "uint32",
          "name": "_sidePoolRatio",
          "type": "uint32"
        }
      ],
      "name": "initialize",
      "outputs": [],
      "stateMutability": "nonpayable",
      "type": "function"
    },
    {
      "inputs": [
        {
          "internalType": "uint256",
          "name": "positionId",
          "type": "uint256"
        }
      ],
      "name": "isDefaulted",
      "outputs": [
        {
          "internalType": "bool",
          "name": "",
          "type": "bool"
        }
      ],
      "stateMutability": "view",
      "type": "function"
    },
    {
      "inputs": [],
      "name": "kLast",
      "outputs": [
        {
          "internalType": "uint256",
          "name": "",
          "type": "uint256"
        }
      ],
      "stateMutability": "view",
      "type": "function"
    },
    {
      "inputs": [
        {
          "internalType": "uint256[]",
          "name": "ids",
          "type": "uint256[]"
        }
      ],
      "name": "liquidate",
      "outputs": [],
      "stateMutability": "nonpayable",
      "type": "function"
    },
    {
      "inputs": [
        {
          "internalType": "address",
          "name": "_to",
          "type": "address"
        },
        {
          "internalType": "uint256[]",
          "name": "_positionIds",
          "type": "uint256[]"
        }
      ],
      "name": "liquidateAndBurn",
      "outputs": [],
      "stateMutability": "nonpayable",
      "type": "function"
    },
    {
      "inputs": [
        {
          "internalType": "address",
          "name": "to",
          "type": "address"
        }
      ],
      "name": "mint",
      "outputs": [
        {
          "internalType": "uint256",
          "name": "liquidity",
          "type": "uint256"
        }
      ],
      "stateMutability": "nonpayable",
      "type": "function"
    },
    {
      "inputs": [],
      "name": "name",
      "outputs": [
        {
          "internalType": "string",
          "name": "",
          "type": "string"
        }
      ],
      "stateMutability": "view",
      "type": "function"
    },
    {
      "inputs": [],
      "name": "nextPositionId",
      "outputs": [
        {
          "internalType": "uint256",
          "name": "",
          "type": "uint256"
        }
      ],
      "stateMutability": "view",
      "type": "function"
    },
    {
      "inputs": [
        {
          "internalType": "address",
          "name": "",
          "type": "address"
        }
      ],
      "name": "nonces",
      "outputs": [
        {
          "internalType": "uint256",
          "name": "",
          "type": "uint256"
        }
      ],
      "stateMutability": "view",
      "type": "function"
    },
    {
      "inputs": [
        {
          "internalType": "uint256",
          "name": "_collateral0",
          "type": "uint256"
        },
        {
          "internalType": "uint256",
          "name": "_collateral1",
          "type": "uint256"
        },
        {
          "internalType": "address",
          "name": "to",
          "type": "address"
        }
      ],
      "name": "open",
      "outputs": [],
      "stateMutability": "nonpayable",
      "type": "function"
    },
    {
      "inputs": [
        {
          "internalType": "address",
          "name": "owner",
          "type": "address"
        },
        {
          "internalType": "address",
          "name": "spender",
          "type": "address"
        },
        {
          "internalType": "uint256",
          "name": "value",
          "type": "uint256"
        },
        {
          "internalType": "uint256",
          "name": "deadline",
          "type": "uint256"
        },
        {
          "internalType": "uint8",
          "name": "v",
          "type": "uint8"
        },
        {
          "internalType": "bytes32",
          "name": "r",
          "type": "bytes32"
        },
        {
          "internalType": "bytes32",
          "name": "s",
          "type": "bytes32"
        }
      ],
      "name": "permit",
      "outputs": [],
      "stateMutability": "nonpayable",
      "type": "function"
    },
    {
      "inputs": [
        {
          "internalType": "uint256",
          "name": "",
          "type": "uint256"
        }
      ],
      "name": "positions",
      "outputs": [
        {
          "internalType": "uint112",
          "name": "blockOpen",
          "type": "uint112"
        },
        {
          "internalType": "uint112",
          "name": "borrowed",
          "type": "uint112"
        },
        {
          "internalType": "uint112",
          "name": "debtShares",
          "type": "uint112"
        },
        {
          "internalType": "uint112",
          "name": "vault",
          "type": "uint112"
        },
        {
          "internalType": "address",
          "name": "owner",
          "type": "address"
        },
        {
          "internalType": "bool",
          "name": "isOpen",
          "type": "bool"
        },
        {
          "internalType": "bool",
          "name": "isToken0",
          "type": "bool"
        }
      ],
      "stateMutability": "view",
      "type": "function"
    },
    {
      "inputs": [],
      "name": "price0CumulativeLast",
      "outputs": [
        {
          "internalType": "uint256",
          "name": "",
          "type": "uint256"
        }
      ],
      "stateMutability": "view",
      "type": "function"
    },
    {
      "inputs": [],
      "name": "price1CumulativeLast",
      "outputs": [
        {
          "internalType": "uint256",
          "name": "",
          "type": "uint256"
        }
      ],
      "stateMutability": "view",
      "type": "function"
    },
    {
      "inputs": [],
      "name": "sidePool0",
      "outputs": [
        {
          "internalType": "uint112",
          "name": "",
          "type": "uint112"
        }
      ],
      "stateMutability": "view",
      "type": "function"
    },
    {
      "inputs": [],
      "name": "sidePool0Debt",
      "outputs": [
        {
          "internalType": "uint112",
          "name": "",
          "type": "uint112"
        }
      ],
      "stateMutability": "view",
      "type": "function"
    },
    {
      "inputs": [],
      "name": "sidePool0Vault",
      "outputs": [
        {
          "internalType": "uint112",
          "name": "",
          "type": "uint112"
        }
      ],
      "stateMutability": "view",
      "type": "function"
    },
    {
      "inputs": [],
      "name": "sidePool1",
      "outputs": [
        {
          "internalType": "uint112",
          "name": "",
          "type": "uint112"
        }
      ],
      "stateMutability": "view",
      "type": "function"
    },
    {
      "inputs": [],
      "name": "sidePool1Debt",
      "outputs": [
        {
          "internalType": "uint112",
          "name": "",
          "type": "uint112"
        }
      ],
      "stateMutability": "view",
      "type": "function"
    },
    {
      "inputs": [],
      "name": "sidePool1Vault",
      "outputs": [
        {
          "internalType": "uint112",
          "name": "",
          "type": "uint112"
        }
      ],
      "stateMutability": "view",
      "type": "function"
    },
    {
      "inputs": [],
      "name": "sidePoolRatio",
      "outputs": [
        {
          "internalType": "uint32",
          "name": "",
          "type": "uint32"
        }
      ],
      "stateMutability": "view",
      "type": "function"
    },
    {
      "inputs": [
        {
          "internalType": "address",
          "name": "to",
          "type": "address"
        }
      ],
      "name": "skim",
      "outputs": [],
      "stateMutability": "nonpayable",
      "type": "function"
    },
    {
      "inputs": [
        {
          "internalType": "uint256",
          "name": "amount0Out",
          "type": "uint256"
        },
        {
          "internalType": "uint256",
          "name": "amount1Out",
          "type": "uint256"
        },
        {
          "internalType": "address",
          "name": "to",
          "type": "address"
        },
        {
          "internalType": "bytes",
          "name": "data",
          "type": "bytes"
        }
      ],
      "name": "swap",
      "outputs": [],
      "stateMutability": "nonpayable",
      "type": "function"
    },
    {
      "inputs": [],
      "name": "symbol",
      "outputs": [
        {
          "internalType": "string",
          "name": "",
          "type": "string"
        }
      ],
      "stateMutability": "view",
      "type": "function"
    },
    {
      "inputs": [],
      "name": "sync",
      "outputs": [],
      "stateMutability": "nonpayable",
      "type": "function"
    },
    {
      "inputs": [],
      "name": "token0",
      "outputs": [
        {
          "internalType": "address",
          "name": "",
          "type": "address"
        }
      ],
      "stateMutability": "view",
      "type": "function"
    },
    {
      "inputs": [],
      "name": "token1",
      "outputs": [
        {
          "internalType": "address",
          "name": "",
          "type": "address"
        }
      ],
      "stateMutability": "view",
      "type": "function"
    },
    {
      "inputs": [],
      "name": "totalLocked",
      "outputs": [
        {
          "internalType": "uint112",
          "name": "",
          "type": "uint112"
        },
        {
          "internalType": "uint112",
          "name": "",
          "type": "uint112"
        }
      ],
      "stateMutability": "view",
      "type": "function"
    },
    {
      "inputs": [],
      "name": "totalSupply",
      "outputs": [
        {
          "internalType": "uint256",
          "name": "",
          "type": "uint256"
        }
      ],
      "stateMutability": "view",
      "type": "function"
    },
    {
      "inputs": [
        {
          "internalType": "address",
          "name": "to",
          "type": "address"
        },
        {
          "internalType": "uint256",
          "name": "value",
          "type": "uint256"
        }
      ],
      "name": "transfer",
      "outputs": [
        {
          "internalType": "bool",
          "name": "",
          "type": "bool"
        }
      ],
      "stateMutability": "nonpayable",
      "type": "function"
    },
    {
      "inputs": [
        {
          "internalType": "address",
          "name": "from",
          "type": "address"
        },
        {
          "internalType": "address",
          "name": "to",
          "type": "address"
        },
        {
          "internalType": "uint256",
          "name": "value",
          "type": "uint256"
        }
      ],
      "name": "transferFrom",
      "outputs": [
        {
          "internalType": "bool",
          "name": "",
          "type": "bool"
        }
      ],
      "stateMutability": "nonpayable",
      "type": "function"
    }
  ],
  "bytecode": "0x60806040526001600c5534801561001557600080fd5b50604080518082018252600a8152692ab734b9bbb0b8102b1960b11b6020918201528151808301835260018152603160f81b9082015281517f8b73c3c69bb8fe3d512ecc4cf759cc79239f7b179b0ffacaa9a75d522b39400f918101919091527fbfcc8ef98ffbf7b6c3fec7bf5185b566b9863e35a9d83acd49ad6824b5969738918101919091527fc89efdaa54c0f20c7adf612882df0950f5a951637e0307cdcb4c672f298b8bc660608201524660808201523060a082015260c00160408051601f198184030181529190528051602090910120600355600580546001600160a01b0319163317905561492c8061010e6000396000f3fe608060405234801561001057600080fd5b50600436106102d65760003560e01c80636ecf2b2211610182578063b2eb4773116100e9578063d21220a7116100a2578063da8019111161007c578063da801911146107f9578063dd62ed3e1461080c578063e4543dd414610837578063fff6cae91461084a576102d6565b8063d21220a7146107c0578063d3d202fd146107d3578063d505accf146107e6576102d6565b8063b2eb47731461074a578063b54cf35c1461076f578063ba9a7a5614610789578063bc25cf7714610792578063c012bd5a146107a5578063c45a0155146107ad576102d6565b806389afcb441161013b57806389afcb44146105fe57806389f10634146106265780639083ef461461063957806395d89b411461065357806399fbab8814610678578063a9059cbb14610737576102d6565b80636ecf2b221461057f57806370a082311461059257806371b008a1146105b25780637464fc3d146105cc5780637ecebe00146105d5578063899346c7146105f5576102d6565b8063313ce5671161024157806346d9224a116101fa5780635a3d5493116101d45780635a3d54931461053d57806365cad891146105465780636a627842146105595780636d5a906e1461056c576102d6565b806346d9224a146104f2578063568914121461050c5780635909c0d514610534576102d6565b8063313ce567146104435780633311a46a1461045d5780633644e51514610488578063380bf959146104915780633f334bdf146104ab57806341383137146104be576102d6565b80630dfe1681116102935780630dfe1681146103af57806318160ddd146103da57806323b872dd146103e35780632e08a6ee146103f65780632f3ad61f1461040957806330adf81f1461041c576102d6565b8063022c0d9f146102db57806306fdde03146102f05780630902f1ac1461032f578063095ea7b31461036357806309d48649146103865780630b5296ef1461039c575b600080fd5b6102ee6102e9366004614479565b610852565b005b6103196040518060400160405280600a8152602001692ab734b9bbb0b8102b1960b11b81525081565b604051610326919061468a565b60405180910390f35b610337610f8b565b604080516001600160701b03948516815293909216602084015263ffffffff1690820152606001610326565b610376610371366004614371565b610fb5565b6040519015158152602001610326565b61038e610fcc565b604051908152602001610326565b6102ee6103aa36600461444c565b611076565b6006546103c2906001600160a01b031681565b6040516001600160a01b039091168152602001610326565b61038e60005481565b6103766103f1366004614217565b61160d565b61038e610404366004614574565b6116a2565b6103766104173660046143f8565b611705565b61038e7f6e71edae12b1b97f4d1f60370fef10105fa2faae0126114a169c64845d6126c981565b61044b601281565b60405160ff9091168152602001610326565b600f54610470906001600160701b031681565b6040516001600160701b039091168152602001610326565b61038e60035481565b600d5461047090600160201b90046001600160701b031681565b600e54610470906001600160701b031681565b600d54600854600160201b82046001600160701b0390811692600160901b90041690600160e01b900463ffffffff16610337565b600f5461047090600160701b90046001600160701b031681565b61051461196f565b604080516001600160701b03938416815292909116602083015201610326565b61038e60095481565b61038e600a5481565b6102ee61055436600461439c565b6119ec565b61038e6105673660046141a7565b611eb7565b6102ee61057a36600461431e565b612237565b6102ee61058d3660046142cc565b612251565b61038e6105a03660046141a7565b60016020526000908152604090205481565b60105461047090600160701b90046001600160701b031681565b61038e600b5481565b61038e6105e33660046141a7565b60046020526000908152604090205481565b61038e60135481565b61061161060c3660046141a7565b6122ee565b60408051928352602083019190915201610326565b61038e610634366004614549565b612770565b600e5461047090600160701b90046001600160701b031681565b610319604051806040016040528060068152602001652aa72496ab1960d11b81525081565b6106e56106863660046143f8565b6012602052600090815260409020805460018201546002909201546001600160701b0380831693600160701b93849004821693818316939104909116906001600160a01b0381169060ff600160a01b8204811691600160a81b90041687565b604080516001600160701b0398891681529688166020880152948716948601949094529490911660608401526001600160a01b0316608083015291151560a082015290151560c082015260e001610326565b610376610745366004614371565b61278f565b600d5461075a9063ffffffff1681565b60405163ffffffff9091168152602001610326565b600d5461047090600160901b90046001600160701b031681565b61038e6103e881565b6102ee6107a03660046141a7565b61279c565b6106116128d1565b6005546103c2906001600160a01b031681565b6007546103c2906001600160a01b031681565b6102ee6107e1366004614428565b612a0c565b6102ee6107f4366004614257565b612ed4565b601054610470906001600160701b031681565b61038e61081a3660046141df565b600260209081526000928352604080842090915290825290205481565b610470610845366004614371565b6130e8565b6102ee61312a565b600c5460011461087d5760405162461bcd60e51b81526004016108749061469d565b60405180910390fd5b6000600c55831515806108905750600083115b6108ea5760405162461bcd60e51b815260206004820152602560248201527f556e697377617056323a20494e53554646494349454e545f4f55545055545f416044820152641353d5539560da1b6064820152608401610874565b6000806108f5610f8b565b5091509150816001600160701b03168610801561091a5750806001600160701b031685105b6109705760405162461bcd60e51b815260206004820152602160248201527f556e697377617056323a20494e53554646494349454e545f4c495155494449546044820152605960f81b6064820152608401610874565b60065460075460009182916001600160a01b039182169190811690881682148015906109ae5750806001600160a01b0316886001600160a01b031614155b6109f25760405162461bcd60e51b8152602060048201526015602482015274556e697377617056323a20494e56414c49445f544f60581b6044820152606401610874565b60008a118015610a0b57506001600160a01b0388163014155b15610a1b57610a1b82898c613284565b600089118015610a3457506001600160a01b0388163014155b15610a4457610a4481898b613284565b865115610ab0576040516304347a1760e21b81526001600160a01b038916906310d1e85c90610a7d9033908e908e908d906004016145fc565b600060405180830381600087803b158015610a9757600080fd5b505af1158015610aab573d6000803e3d6000fd5b505050505b6040516370a0823160e01b81523060048201526001600160a01b038316906370a082319060240160206040518083038186803b158015610aef57600080fd5b505afa158015610b03573d6000803e3d6000fd5b505050506040513d601f19601f82011682018060405250810190610b279190614410565b6040516370a0823160e01b81523060048201529094506001600160a01b038216906370a082319060240160206040518083038186803b158015610b6957600080fd5b505afa158015610b7d573d6000803e3d6000fd5b505050506040513d601f19601f82011682018060405250810190610ba19190614410565b92505050600080600080610bb361196f565b9092509050610bcb8c6001600160701b0384166147fb565b8611610bd8576000610bf5565b610beb8c6001600160701b0384166147fb565b610bf590876147fb565b9350610c0a8b6001600160701b0383166147fb565b8511610c17576000610c34565b610c2a8b6001600160701b0383166147fb565b610c3490866147fb565b92506000841180610c455750600083115b610c9d5760405162461bcd60e51b8152602060048201526024808201527f556e697377617056323a20494e53554646494349454e545f494e5055545f414d60448201526313d5539560e21b6064820152608401610874565b6000610caa8560036147b4565b836001600160701b03168a6001600160701b031689610cc991906146f3565b610cd391906147fb565b610cdf906103e86147b4565b610ce991906147fb565b90506000610cf88560036147b4565b836001600160701b03168a6001600160701b031689610d1791906146f3565b610d2191906147fb565b610d2d906103e86147b4565b610d3791906147fb565b9050610d4f6001600160701b03808b16908c166147b4565b610d5c90620f42406147b4565b610d6682846147b4565b1015610da35760405162461bcd60e51b815260206004820152600c60248201526b556e697377617056323a204b60a01b6044820152606401610874565b50506010546001600160701b031615159150819050610dd35750601054600160701b90046001600160701b031615155b15610ef757600080610de36128d1565b60105491935091506001600160701b031615610e67576c0c9f2c9cd04674edea4000000082610e138660036147b4565b610e1d91906147b4565b610e27919061474b565b600f8054600090610e429084906001600160701b03166146c8565b92506101000a8154816001600160701b0302191690836001600160701b031602179055505b601054600160701b90046001600160701b031615610ef4576c0c9f2c9cd04674edea4000000081610e998560036147b4565b610ea391906147b4565b610ead919061474b565b600f8054600e90610ecf908490600160701b90046001600160701b03166146c8565b92506101000a8154816001600160701b0302191690836001600160701b031602179055505b50505b600d54610f259085908590899089906001600160701b03600160201b8204811691600160901b9004166133c8565b60408051838152602081018390529081018b9052606081018a90526001600160a01b0389169033907fd78ad95fa46c994b6551d0da85fc275fe613ce37657fb8d5e3d130840159d8229060800160405180910390a350506001600c555050505050505050565b6008546001600160701b0380821692600160701b830490911691600160e01b900463ffffffff1690565b6000610fc233848461366c565b5060015b92915050565b600b546000908180610fdc610f8b565b506001600160701b0391821693501690506000611001610ffc83856147b4565b6136ce565b9050600061100e856136ce565b90508082111561106957600061102482846147fb565b60005461103191906147b4565b90506000826110418560056147b4565b61104b91906146f3565b90506000611059828461474b565b9850611073975050505050505050565b6000955050505050505b90565b821580611081575081155b6110cd5760405162461bcd60e51b815260206004820181905260248201527f436f6e74616e676f3a206f6e6520746f6b656e2070657220706f736974696f6e6044820152606401610874565b6000806110d8610f8b565b50600d549193509150600160201b90046001600160701b031685118015906111125750600d54600160901b90046001600160701b03168411155b61116d5760405162461bcd60e51b815260206004820152602660248201527f436f6e74616e676f3a206e6f7420656e6f75676820746f20636f766572206578604482015265706f7375726560d01b6064820152608401610874565b600061118c86846001600160701b0316846001600160701b0316612770565b905060006111ad86846001600160701b0316866001600160701b0316612770565b905080600d60048282829054906101000a90046001600160701b03166111d391906147d3565b92506101000a8154816001600160701b0302191690836001600160701b0316021790555081600d60128282829054906101000a90046001600160701b031661121b91906147d3565b92506101000a8154816001600160701b0302191690836001600160701b03160217905550600061126082866001600160701b0316866001600160701b031660016116a2565b9050600061128384866001600160701b0316886001600160701b031660016116a2565b90506001600160701b0383118015906112a357506001600160701b038411155b80156112b657506001600160701b038111155b80156112c957506001600160701b038211155b61130a5760405162461bcd60e51b8152602060048201526012602482015271436f6e74616e676f3a204f564552464c4f5760701b6044820152606401610874565b611314818a6146f3565b600e805460009061132f9084906001600160701b03166146c8565b92506101000a8154816001600160701b0302191690836001600160701b03160217905550818861135f91906146f3565b600e80548190611380908490600160701b90046001600160701b03166146c8565b92506101000a8154816001600160701b0302191690836001600160701b031602179055506113bf81833060405180602001604052806000815250610852565b6000806113cd89868861373d565b6040805160e081018252600060208201819052918101829052606081018290526080810182905260a08101919091528c8e1160c08201526001600160701b0343811682529294509092509082811690841611611429578161142b565b825b6001600160701b031660408201528686116114465786611448565b855b6001600160701b031660208201528a8c1161146c57611467858c6146f3565b611476565b611476848d6146f3565b6001600160701b03908116606083019081526001600160a01b03808d1660808501908152600160a0860181815260135460009081526012602090815260408083208a518154938c01518b16600160701b9081026001600160e01b0319958616928d1692909217919091178255918b0151958101805499518b1690920298909216949098169390931795909517909555905160029091018054945160c08701511515600160a81b0260ff60a81b19911515600160a01b026001600160a81b031990971693909416929092179490941716179091558b8d11611556578b611558565b8c5b90508160c00151611574576007546001600160a01b0316611581565b6006546001600160a01b03165b6001600160a01b03168b6001600160a01b03166013547f8d28a7890f5db7b295ba598b95ee3ef0f52903482359b839015a18fe005fb8708486602001516040516115de9291909182526001600160701b0316602082015260400190565b60405180910390a46001601360008282546115f991906146f3565b909155505050505050505050505050505050565b6001600160a01b03831660009081526002602090815260408083203384529091528120546000191461168d576001600160a01b03841660009081526002602090815260408083203384529091529020546116689083906147fb565b6001600160a01b03851660009081526002602090815260408083203384529091529020555b611698848484613a1b565b5060019392505050565b600080826116b2576103e86116b6565b6103e55b6116c49061ffff16876147b4565b905060006116d285836147b4565b90506000826116e3886103e86147b4565b6116ed91906146f3565b90506116f9818361474b565b98975050505050505050565b6000818152601260209081526040808320815160e08101835281546001600160701b038082168352600160701b9182900481169583019590955260018301548086169483019490945290920490921660608201526002909101546001600160a01b038116608083015260ff600160a01b82048116151560a08401819052600160a81b90920416151560c08301526117e85760405162461bcd60e51b815260206004820152602160248201527f436f6e74616e676f3a20706f736974696f6e20616c726561647920636c6f73656044820152601960fa1b6064820152608401610874565b60008160c001516117fd578160400151611800565b60005b905060008260c0015161181457600061181a565b82604001515b9050600080836001600160701b03161161183c57670de0b6b3a764000061186b565b601054600f546001600160701b03918216916118619116670de0b6b3a764000061475f565b61186b919061470b565b90506000611879848361475f565b9050600080846001600160701b03161161189b57670de0b6b3a76400006118d3565b601054600f546001600160701b03600160701b928390048116926118c9920416670de0b6b3a764000061475f565b6118d3919061470b565b905060006118e1858361475f565b90506000806118ee610f8b565b5091509150600061194b8a60c001516119075786611909565b845b6001600160701b03168b60c001516119215784611923565b835b6001600160701b03168c60c0015161193b578461193d565b855b6001600160701b0316612770565b6060909a01516001600160701b03169099101599505050505050505050505b919050565b600e54600d5460085460009283926001600160701b039182169261199e92600160201b909204821691166146c8565b6119a891906146c8565b600e54600d546008546001600160701b03600160701b938490048116936119da93600160901b900482169204166146c8565b6119e491906146c8565b915091509091565b600f546000908190819081906001600160701b0380821691600160701b9004168280805b89811015611ca1576000601260008d8d85818110611a3e57634e487b7160e01b600052603260045260246000fd5b60209081029290920135835250818101929092526040908101600020815160e08101835281546001600160701b038082168352600160701b9182900481169583019590955260018301548086169483019490945290920490921660608201526002909101546001600160a01b038116608083015260ff600160a01b82048116151560a08401819052600160a81b90920416151560c0830152909150611ae35750611c8f565b6000806000806000611af486613ac3565b5050945094506001600160701b031694506001600160701b031694509450801515600015151415611b2a57505050505050611c8f565b611b6386608001518760c00151611b45578760400151611b48565b60005b8860c00151611b58576000611b5e565b88604001515b613c0d565b8560c0015115611b83576060860151611b7c908e6146c8565b9c50611b95565b6060860151611b92908d6146c8565b9b505b600f8054859190600090611bb39084906001600160701b03166147d3565b92506101000a8154816001600160701b0302191690836001600160701b0316021790555082600f600e8282829054906101000a90046001600160701b0316611bfb91906147d3565b92506101000a8154816001600160701b0302191690836001600160701b031602179055505050505050601260008d8d85818110611c4857634e487b7160e01b600052603260045260246000fd5b6020908102929092013583525081019190915260400160002080546001600160e01b03199081168255600182018054909116905560020180546001600160b01b0319169055505b80611c998161485f565b915050611a10565b506000806001600160701b03871615611d8a5786600e808282829054906101000a90046001600160701b0316611cd791906147d3565b92506101000a8154816001600160701b0302191690836001600160701b03160217905550611d03610f8b565b506001600160701b03918216935081169150611d24908816828460016116a2565b995089600d60048282829054906101000a90046001600160701b0316611d4a91906146c8565b92506101000a8154816001600160701b0302191690836001600160701b03160217905550611d8a8a60003060405180602001604052806000815250610852565b6001600160701b03881615611e6a57600e8054899190600090611db79084906001600160701b03166147d3565b92506101000a8154816001600160701b0302191690836001600160701b03160217905550611de3610f8b565b506001600160701b03918216935081169150611e04908916838360016116a2565b985088600d60128282829054906101000a90046001600160701b0316611e2a91906146c8565b92506101000a8154816001600160701b0302191690836001600160701b03160217905550611e6a60008a3060405180602001604052806000815250610852565b7f5d96cbc08a1cfeb785513149e23405338a1b2a2ffb87d6ccfc7c0145e59659bd8c8c338d8d604051611ea1959493929190614633565b60405180910390a1505050505050505050505050565b6000600c54600114611edb5760405162461bcd60e51b81526004016108749061469d565b6000600c81905580611eeb610f8b565b506006546040516370a0823160e01b81523060048201529294509092506000916001600160a01b03909116906370a082319060240160206040518083038186803b158015611f3857600080fd5b505afa158015611f4c573d6000803e3d6000fd5b505050506040513d601f19601f82011682018060405250810190611f709190614410565b6007546040516370a0823160e01b81523060048201529192506000916001600160a01b03909116906370a082319060240160206040518083038186803b158015611fb957600080fd5b505afa158015611fcd573d6000803e3d6000fd5b505050506040513d601f19601f82011682018060405250810190611ff19190614410565b9050600080611ffe61196f565b6001600160701b039182169350169050600061201a83866147fb565b9050600061202883866147fb565b600d54909150600090620f4240906120469063ffffffff16856147b4565b612050919061474b565b600d54909150600090620f42409061206e9063ffffffff16856147b4565b612078919061474b565b905060006120868b8b613d4c565b600054909150806120bf576103e86120a1610ffc87896147b4565b6120ab91906147fb565b9c506120ba60006103e8613e9a565b612106565b6121036001600160701b038d166120d683896147b4565b6120e0919061474b565b6001600160701b038d166120f484896147b4565b6120fe919061474b565b613f2b565b9c505b60008d116121675760405162461bcd60e51b815260206004820152602860248201527f556e697377617056323a20494e53554646494349454e545f4c495155494449546044820152671657d3525395115160c21b6064820152608401610874565b6121718e8e613e9a565b6121bc8a8a8e8e88600d60049054906101000a90046001600160701b031661219991906146c8565b600d546121b7908a90600160901b90046001600160701b03166146c8565b6133c8565b81156121e5576008546121e1906001600160701b03600160701b8204811691166147b4565b600b555b604080518781526020810187905233917f4c209b5fc8ad50758f13e2e1088ba56a560dff690a1c6fef26394f4c03821c4f910160405180910390a250506001600c5550989a9950505050505050505050565b61224182826119ec565b61224a836122ee565b5050505050565b6005546001600160a01b031633146122a25760405162461bcd60e51b81526020600482015260146024820152732ab734b9bbb0b82b191d102327a92124a22222a760611b6044820152606401610874565b600680546001600160a01b03199081166001600160a01b0395861617909155600780549091169290931691909117909155600d805463ffffffff191663ffffffff909216919091179055565b600080600c546001146123135760405162461bcd60e51b81526004016108749061469d565b6000600c81905580612323610f8b565b506006546007546040516370a0823160e01b81523060048201529395509193506001600160a01b039081169291169060009083906370a082319060240160206040518083038186803b15801561237857600080fd5b505afa15801561238c573d6000803e3d6000fd5b505050506040513d601f19601f820116820180604052508101906123b09190614410565b6040516370a0823160e01b81523060048201529091506000906001600160a01b038416906370a082319060240160206040518083038186803b1580156123f557600080fd5b505afa158015612409573d6000803e3d6000fd5b505050506040513d601f19601f8201168201806040525081019061242d9190614410565b3060009081526001602052604081205491925061244a8888613d4c565b600054600e54919250908190612469906001600160701b0316876147fb565b61247390856147b4565b61247d919061474b565b600e54909b50819061249f90600160701b90046001600160701b0316866147fb565b6124a990856147b4565b6124b3919061474b565b600d54909a5060009082906124d890600160201b90046001600160701b0316866147b4565b6124e2919061474b565b600d54909150600090839061250790600160901b90046001600160701b0316876147b4565b612511919061474b565b905060008d118015612523575060008c115b6125805760405162461bcd60e51b815260206004820152602860248201527f556e697377617056323a20494e53554646494349454e545f4c495155494449546044820152671657d0955493915160c21b6064820152608401610874565b61258a3086613f43565b612595898f8f613284565b6125a0888f8e613284565b6040516370a0823160e01b81523060048201526001600160a01b038a16906370a082319060240160206040518083038186803b1580156125df57600080fd5b505afa1580156125f3573d6000803e3d6000fd5b505050506040513d601f19601f820116820180604052508101906126179190614410565b6040516370a0823160e01b81523060048201529097506001600160a01b038916906370a082319060240160206040518083038186803b15801561265957600080fd5b505afa15801561266d573d6000803e3d6000fd5b505050506040513d601f19601f820116820180604052508101906126919190614410565b95506126d987878d8d86600d60049054906101000a90046001600160701b03166126bb91906147d3565b600d546121b7908890600160901b90046001600160701b03166147d3565b8315612702576008546126fe906001600160701b03600160701b8204811691166147b4565b600b555b8d6001600160a01b0316336001600160a01b03167fdccd412f0b1252819cb1fd330b93224ca42612892bb3f4f789976e6d819364968f8f604051612750929190918252602082015260400190565b60405180910390a350505050505050505050506001600c81905550915091565b60008261277d83866147b4565b612787919061474b565b949350505050565b6000610fc2338484613a1b565b600c546001146127be5760405162461bcd60e51b81526004016108749061469d565b6000600c8190556006546007546001600160a01b0391821692911690806127e361196f565b6040516370a0823160e01b81523060048201529193509150612882908590879061287d906001600160701b038716906001600160a01b038516906370a08231906024015b60206040518083038186803b15801561283f57600080fd5b505afa158015612853573d6000803e3d6000fd5b505050506040513d601f19601f820116820180604052508101906128779190614410565b90613fcf565b613284565b6040516370a0823160e01b81523060048201526128c5908490879061287d906001600160701b038616906001600160a01b038516906370a0823190602401612827565b50506001600c55505050565b600d5460085460009182916128f9916001600160701b03600160901b909104811691166147b4565b600d54600854612923916001600160701b03600160201b909104811691600160701b9004166147b4565b612939906b033b2e3c9fd0803ce80000006147b4565b612943919061474b565b600d54600854919350612971916001600160701b03600160201b909204821691600160701b909104166147b4565b600d54600854612994916001600160701b03600160901b909104811691166147b4565b6129aa906b033b2e3c9fd0803ce80000006147b4565b6129b4919061474b565b90506b033b2e3c9fd0803ce800000082116129db576b033b2e3c9fd0803ce80000006129dd565b815b91506b033b2e3c9fd0803ce80000008111612a04576b033b2e3c9fd0803ce8000000612a06565b805b90509091565b600082815260126020908152604091829020825160e08101845281546001600160701b038082168352600160701b918290048116948301949094526001830154808516958301959095529093049091166060830152600201546001600160a01b038116608083015260ff600160a01b8204811615801560a08501819052600160a81b909304909116151560c0840152612aba575080608001516001600160a01b0316336001600160a01b0316145b612b1d5760405162461bcd60e51b815260206004820152602e60248201527f436f6e74616e676f3a20706f736974696f6e20616c726561647920636c6f736560448201526d321037b9103737ba1037bbb732b960911b6064820152608401610874565b60c081015160008080808080612b3288613ac3565b96509650509550955095509550612b6f886080015188612b56578960400151612b59565b60005b89612b65576000611b5e565b8a60400151613c0d565b600088602001516001600160701b03168411612b8c576000612ba4565b6020890151612ba4906001600160701b0316856147fb565b905087612bba57612bb581856147fb565b612bbd565b60005b600d8054600490612bdf908490600160201b90046001600160701b03166146c8565b92506101000a8154816001600160701b0302191690836001600160701b0316021790555087612c0f576000612c19565b612c1981856147fb565b600d8054601290612c3b908490600160901b90046001600160701b03166146c8565b92506101000a8154816001600160701b0302191690836001600160701b0316021790555085600f60008282829054906101000a90046001600160701b0316612c8391906147d3565b92506101000a8154816001600160701b0302191690836001600160701b0316021790555084600f600e8282829054906101000a90046001600160701b0316612ccb91906147d3565b92506101000a8154816001600160701b0302191690836001600160701b0316021790555087612cfb576000612d01565b88606001515b600e8054600090612d1c9084906001600160701b03166147d3565b92506101000a8154816001600160701b0302191690836001600160701b0316021790555087612d4f578860600151612d52565b60005b600e80548190612d73908490600160701b90046001600160701b03166147d3565b92506101000a8154816001600160701b0302191690836001600160701b031602179055506000831115612dcd57612dcd88612db9576007546001600160a01b0316612dc6565b6006546001600160a01b03165b8b85613284565b612e0288612ddb5784612dde565b60005b89612dea576000612dec565b855b3060405180602001604052806000815250610852565b60008b815260126020526040902080546001600160e01b03199081168255600182018054909116905560020180546001600160b01b031916905587612e52576007546001600160a01b0316612e5f565b6006546001600160a01b03165b6001600160a01b0316338c7f9f38b796fabb2e164d60e9a1e904f1098f1cff8abb479d87c50b3846a648c7178b612e965789612e98565b885b604080516001600160701b039092168252602082018a905281018690526060810188905260800160405180910390a45050505050505050505050565b42841015612f195760405162461bcd60e51b8152602060048201526012602482015271155b9a5cddd85c158c8e881156141254915160721b6044820152606401610874565b6003546001600160a01b038816600090815260046020526040812080549192917f6e71edae12b1b97f4d1f60370fef10105fa2faae0126114a169c64845d6126c9918b918b918b919087612f6c8361485f565b909155506040805160208101969096526001600160a01b0394851690860152929091166060840152608083015260a082015260c0810187905260e00160405160208183030381529060405280519060200120604051602001612fe592919061190160f01b81526002810192909252602282015260420190565b60408051601f198184030181528282528051602091820120600080855291840180845281905260ff88169284019290925260608301869052608083018590529092509060019060a0016020604051602081039080840390855afa158015613050573d6000803e3d6000fd5b5050604051601f1901519150506001600160a01b038116158015906130865750886001600160a01b0316816001600160a01b0316145b6130d25760405162461bcd60e51b815260206004820152601c60248201527f556e697377617056323a20494e56414c49445f5349474e4154555245000000006044820152606401610874565b6130dd89898961366c565b505050505050505050565b6011602052816000526040600020816002811061310457600080fd5b60029182820401919006600e02915091509054906101000a90046001600160701b031681565b600c5460011461314c5760405162461bcd60e51b81526004016108749061469d565b6000600c556006546040516370a0823160e01b815230600482015261327d916001600160a01b0316906370a082319060240160206040518083038186803b15801561319657600080fd5b505afa1580156131aa573d6000803e3d6000fd5b505050506040513d601f19601f820116820180604052508101906131ce9190614410565b6007546040516370a0823160e01b81523060048201526001600160a01b03909116906370a082319060240160206040518083038186803b15801561321157600080fd5b505afa158015613225573d6000803e3d6000fd5b505050506040513d601f19601f820116820180604052508101906132499190614410565b600854600d546001600160701b0380831692600160701b9004811691600160201b8104821691600160901b909104166133c8565b6001600c55565b604080518082018252601981527f7472616e7366657228616464726573732c75696e74323536290000000000000060209182015281516001600160a01b0385811660248301526044808301869052845180840390910181526064909201845291810180516001600160e01b031663a9059cbb60e01b1790529151600092839287169161331091906145e0565b6000604051808303816000865af19150503d806000811461334d576040519150601f19603f3d011682016040523d82523d6000602084013e613352565b606091505b509150915081801561337c57508051158061337c57508080602001905181019061337c91906143dc565b61224a5760405162461bcd60e51b815260206004820152601a60248201527f556e697377617056323a205452414e534645525f4641494c45440000000000006044820152606401610874565b6001600160701b0386118015906133e657506001600160701b038511155b6134285760405162461bcd60e51b8152602060048201526013602482015272556e697377617056323a204f564552464c4f5760681b6044820152606401610874565b6000613438600160201b4261487a565b60085490915060009061345890600160e01b900463ffffffff1683614812565b905060008163ffffffff1611801561347857506001600160701b03861615155b801561348c57506001600160701b03851615155b1561351b578063ffffffff166134b4876134a588614025565b6001600160e01b03169061403e565b6001600160e01b03166134c791906147b4565b600960008282546134d891906146f3565b909155505063ffffffff81166134f1866134a589614025565b6001600160e01b031661350491906147b4565b600a600082825461351591906146f3565b90915550505b600d805463ffffffff16600160201b6001600160701b03878116820271ffffffffffffffffffffffffffffffffffff1692909217600160901b878416021792839055600e5482169261357192919004168a6147fb565b61357b91906147fb565b600880546dffffffffffffffffffffffffffff19166001600160701b03928316179055600e54600d54600160701b9091048216916135c191600160901b900416896147fb565b6135cb91906147fb565b600880546001600160701b03908116600160701b93821684026001600160e01b031617600160e01b63ffffffff8716021791829055600d546040805184841681529490930482166020850152600160201b8104821692840192909252600160901b9091041660608201527f90cf11c015dfdfdf83f1b0ed5d27ebcd2839050639a62928e181005c315248d69060800160405180910390a15050505050505050565b6001600160a01b0383811660008181526002602090815260408083209487168084529482529182902085905590518481527f8c5be1e5ebec7d5bd14f71427d1e84f3dd0314c0f7b2291e5b200ac8c7c3b92591015b60405180910390a3505050565b6000600382111561372f57508060006136e860028361474b565b6136f39060016146f3565b90505b818110156137295790508060028161370e818661474b565b61371891906146f3565b613722919061474b565b90506136f6565b5061196a565b811561196a57506001919050565b601054600090819081906001600160701b031661376257670de0b6b3a7640000613791565b601054600f546001600160701b03918216916137879116670de0b6b3a76400006147b4565b613791919061474b565b90506000816137a887670de0b6b3a76400006147b4565b6137b2919061474b565b601054909150600090600160701b90046001600160701b03166137dd57670de0b6b3a7640000613815565b601054600f546001600160701b03600160701b9283900481169261380b920416670de0b6b3a76400006147b4565b613815919061474b565b905060008161382c88670de0b6b3a76400006147b4565b613836919061474b565b6001600160a01b038a16600090815260116020526040812080549293508592849284929161386e9084906001600160701b03166146c8565b82546101009290920a6001600160701b038181021990931691831602179091556001600160a01b038d16600090815260116020526040902080548493509091600e916138c3918591600160701b9004166146c8565b92506101000a8154816001600160701b0302191690836001600160701b0316021790555081601060008282829054906101000a90046001600160701b031661390b91906146c8565b92506101000a8154816001600160701b0302191690836001600160701b03160217905550806010600e8282829054906101000a90046001600160701b031661395391906146c8565b92506101000a8154816001600160701b0302191690836001600160701b0316021790555089600f60008282829054906101000a90046001600160701b031661399b91906146c8565b92506101000a8154816001600160701b0302191690836001600160701b0316021790555088600f600e8282829054906101000a90046001600160701b03166139e391906146c8565b92506101000a8154816001600160701b0302191690836001600160701b03160217905550818197509750505050505050935093915050565b6001600160a01b038316600090815260016020526040902054613a3f9082906147fb565b6001600160a01b038085166000908152600160205260408082209390935590841681522054613a6f9082906146f3565b6001600160a01b0380841660008181526001602052604090819020939093559151908516907fddf252ad1be2c89b69c2b068fc378daa952ba7f163c4a11628f55a4df523b3ef906136c19085815260200190565b6000806000806000806000806000613ad9610f8b565b5091509150613b128a60c00151613af4578a60400151613af7565b60005b8b60c00151613b07576000613b0d565b8b604001515b614053565b60c08c01519199509750613b6d90613b2a5788613b2c565b875b6001600160701b03168b60c00151613b445783613b46565b825b6001600160701b03168c60c00151613b5e578361193d565b846001600160701b0316612770565b92508298506000935089606001516001600160701b03168310613ba3576001945089606001516001600160701b03169850613bbf565b828a606001516001600160701b0316613bbc91906147fb565b93505b613bfe898b60c00151613bd25782613bd4565b835b6001600160701b03168c60c00151613bec5784613bee565b835b6001600160701b031660016116a2565b95505050919395979092949650565b6001600160a01b03831660009081526011602052604081208054849290613c3e9084906001600160701b03166147d3565b82546101009290920a6001600160701b038181021990931691831602179091556001600160a01b038516600090815260116020526040902080548493509091600e91613c93918591600160701b9004166147d3565b92506101000a8154816001600160701b0302191690836001600160701b0316021790555081601060008282829054906101000a90046001600160701b0316613cdb91906147d3565b92506101000a8154816001600160701b0302191690836001600160701b03160217905550806010600e8282829054906101000a90046001600160701b0316613d2391906147d3565b92506101000a8154816001600160701b0302191690836001600160701b03160217905550505050565b600080600560009054906101000a90046001600160a01b03166001600160a01b031663017e7e586040518163ffffffff1660e01b815260040160206040518083038186803b158015613d9d57600080fd5b505afa158015613db1573d6000803e3d6000fd5b505050506040513d601f19601f82011682018060405250810190613dd591906141c3565b600b546001600160a01b038216158015945091925090613e86578015613e81576000613e10610ffc6001600160701b038088169089166147b4565b90506000613e1d836136ce565b905080821115613e7e576000613e3382846147fb565b600054613e4091906147b4565b9050600082613e508560056147b4565b613e5a91906146f3565b90506000613e68828461474b565b90508015613e7a57613e7a8782613e9a565b5050505b50505b613e92565b8015613e92576000600b555b505092915050565b80600054613ea891906146f3565b60009081556001600160a01b038316815260016020526040902054613ece9082906146f3565b6001600160a01b0383166000818152600160205260408082209390935591519091907fddf252ad1be2c89b69c2b068fc378daa952ba7f163c4a11628f55a4df523b3ef90613f1f9085815260200190565b60405180910390a35050565b6000818310613f3a5781613f3c565b825b9392505050565b6001600160a01b038216600090815260016020526040902054613f679082906147fb565b6001600160a01b03831660009081526001602052604081209190915554613f8f9082906147fb565b60009081556040518281526001600160a01b038416907fddf252ad1be2c89b69c2b068fc378daa952ba7f163c4a11628f55a4df523b3ef90602001613f1f565b600082613fdc83826147fb565b9150811115610fc65760405162461bcd60e51b815260206004820152601560248201527464732d6d6174682d7375622d756e646572666c6f7760581b6044820152606401610874565b6000610fc6600160701b6001600160701b03841661478e565b6000613f3c6001600160701b03831684614731565b600080600080856001600160701b03161161407657670de0b6b3a76400006140a5565b601054600f546001600160701b039182169161409b9116670de0b6b3a76400006147b4565b6140a5919061474b565b90506000670de0b6b3a76400006140c56001600160701b038816846147b4565b6140cf919061474b565b9050600080866001600160701b0316116140f157670de0b6b3a7640000614129565b601054600f546001600160701b03600160701b9283900481169261411f920416670de0b6b3a76400006147b4565b614129919061474b565b90506000670de0b6b3a76400006141496001600160701b038916846147b4565b614153919061474b565b9295509193505050505b9250929050565b60008083601f840112614175578081fd5b50813567ffffffffffffffff81111561418c578182fd5b6020830191508360208260051b850101111561415d57600080fd5b6000602082840312156141b8578081fd5b8135613f3c816148d0565b6000602082840312156141d4578081fd5b8151613f3c816148d0565b600080604083850312156141f1578081fd5b82356141fc816148d0565b9150602083013561420c816148d0565b809150509250929050565b60008060006060848603121561422b578081fd5b8335614236816148d0565b92506020840135614246816148d0565b929592945050506040919091013590565b600080600080600080600060e0888a031215614271578283fd5b873561427c816148d0565b9650602088013561428c816148d0565b95506040880135945060608801359350608088013560ff811681146142af578384fd5b9699959850939692959460a0840135945060c09093013592915050565b6000806000606084860312156142e0578283fd5b83356142eb816148d0565b925060208401356142fb816148d0565b9150604084013563ffffffff81168114614313578182fd5b809150509250925092565b600080600060408486031215614332578283fd5b833561433d816148d0565b9250602084013567ffffffffffffffff811115614358578283fd5b61436486828701614164565b9497909650939450505050565b60008060408385031215614383578182fd5b823561438e816148d0565b946020939093013593505050565b600080602083850312156143ae578182fd5b823567ffffffffffffffff8111156143c4578283fd5b6143d085828601614164565b90969095509350505050565b6000602082840312156143ed578081fd5b8151613f3c816148e8565b600060208284031215614409578081fd5b5035919050565b600060208284031215614421578081fd5b5051919050565b6000806040838503121561443a578182fd5b82359150602083013561420c816148d0565b600080600060608486031215614460578081fd5b83359250602084013591506040840135614313816148d0565b6000806000806080858703121561448e578182fd5b843593506020850135925060408501356144a7816148d0565b9150606085013567ffffffffffffffff808211156144c3578283fd5b818701915087601f8301126144d6578283fd5b8135818111156144e8576144e86148ba565b604051601f8201601f19908116603f01168101908382118183101715614510576145106148ba565b816040528281528a6020848701011115614528578586fd5b82602086016020830137918201602001949094529598949750929550505050565b60008060006060848603121561455d578081fd5b505081359360208301359350604090920135919050565b60008060008060808587031215614589578182fd5b84359350602085013592506040850135915060608501356145a9816148e8565b939692955090935050565b600081518084526145cc81602086016020860161482f565b601f01601f19169290920160200192915050565b600082516145f281846020870161482f565b9190910192915050565b600060018060a01b03861682528460208301528360408301526080606083015261462960808301846145b4565b9695505050505050565b6080808252810185905260006001600160fb1b03861115614652578081fd5b8560051b808860a0850137820160a0019081526001600160a01b03949094166020820152604081019290925260609091015292915050565b600060208252613f3c60208301846145b4565b602080825260119082015270155b9a5cddd85c158c8e881313d0d2d151607a1b604082015260600190565b60006001600160701b038083168185168083038211156146ea576146ea61488e565b01949350505050565b600082198211156147065761470661488e565b500190565b60006001600160701b0380841680614725576147256148a4565b92169190910492915050565b60006001600160e01b0383811680614725576147256148a4565b60008261475a5761475a6148a4565b500490565b60006001600160701b03808316818516818304811182151516156147855761478561488e565b02949350505050565b60006001600160e01b03828116848216811515828404821116156147855761478561488e565b60008160001904831182151516156147ce576147ce61488e565b500290565b60006001600160701b03838116908316818110156147f3576147f361488e565b039392505050565b60008282101561480d5761480d61488e565b500390565b600063ffffffff838116908316818110156147f3576147f361488e565b60005b8381101561484a578181015183820152602001614832565b83811115614859576000848401525b50505050565b60006000198214156148735761487361488e565b5060010190565b600082614889576148896148a4565b500690565b634e487b7160e01b600052601160045260246000fd5b634e487b7160e01b600052601260045260246000fd5b634e487b7160e01b600052604160045260246000fd5b6001600160a01b03811681146148e557600080fd5b50565b80151581146148e557600080fdfea2646970667358221220dba93587144a52aeb9e68b619f7b9fcc03d68c0b424d7917304fad5960b0caea64736f6c63430008030033",
  "linkReferences": {},
  "deployedLinkReferences": {}
}