{
  "_format": "hh-sol-artifact-1",
  "contractName": "UniswapV2Pair",
  "sourceName": "contracts/UniswapV2Pair.sol",
  "abi": [
    {
      "inputs": [],
      "stateMutability": "nonpayable",
      "type": "constructor"
    },
    {
      "anonymous": false,
      "inputs": [
        {
          "indexed": true,
          "internalType": "address",
          "name": "owner",
          "type": "address"
        },
        {
          "indexed": true,
          "internalType": "address",
          "name": "spender",
          "type": "address"
        },
        {
          "indexed": false,
          "internalType": "uint256",
          "name": "value",
          "type": "uint256"
        }
      ],
      "name": "Approval",
      "type": "event"
    },
    {
      "anonymous": false,
      "inputs": [
        {
          "indexed": true,
          "internalType": "address",
          "name": "sender",
          "type": "address"
        },
        {
          "indexed": false,
          "internalType": "uint256",
          "name": "amount0",
          "type": "uint256"
        },
        {
          "indexed": false,
          "internalType": "uint256",
          "name": "amount1",
          "type": "uint256"
        },
        {
          "indexed": true,
          "internalType": "address",
          "name": "to",
          "type": "address"
        }
      ],
      "name": "Burn",
      "type": "event"
    },
    {
      "anonymous": false,
      "inputs": [
        {
          "indexed": true,
          "internalType": "address",
          "name": "sender",
          "type": "address"
        },
        {
          "indexed": false,
          "internalType": "uint256",
          "name": "amount0",
          "type": "uint256"
        },
        {
          "indexed": false,
          "internalType": "uint256",
          "name": "amount1",
          "type": "uint256"
        }
      ],
      "name": "Mint",
      "type": "event"
    },
    {
      "anonymous": false,
      "inputs": [
        {
          "indexed": true,
          "internalType": "address",
          "name": "sender",
          "type": "address"
        },
        {
          "indexed": false,
          "internalType": "uint256",
          "name": "amount0In",
          "type": "uint256"
        },
        {
          "indexed": false,
          "internalType": "uint256",
          "name": "amount1In",
          "type": "uint256"
        },
        {
          "indexed": false,
          "internalType": "uint256",
          "name": "amount0Out",
          "type": "uint256"
        },
        {
          "indexed": false,
          "internalType": "uint256",
          "name": "amount1Out",
          "type": "uint256"
        },
        {
          "indexed": true,
          "internalType": "address",
          "name": "to",
          "type": "address"
        }
      ],
      "name": "Swap",
      "type": "event"
    },
    {
      "anonymous": false,
      "inputs": [
        {
          "indexed": false,
          "internalType": "uint112",
          "name": "reserve0",
          "type": "uint112"
        },
        {
          "indexed": false,
          "internalType": "uint112",
          "name": "reserve1",
          "type": "uint112"
        },
        {
          "indexed": false,
          "internalType": "uint112",
          "name": "sidePool0",
          "type": "uint112"
        },
        {
          "indexed": false,
          "internalType": "uint112",
          "name": "sidePool1",
          "type": "uint112"
        }
      ],
      "name": "Sync",
      "type": "event"
    },
    {
      "anonymous": false,
      "inputs": [
        {
          "indexed": true,
          "internalType": "address",
          "name": "from",
          "type": "address"
        },
        {
          "indexed": true,
          "internalType": "address",
          "name": "to",
          "type": "address"
        },
        {
          "indexed": false,
          "internalType": "uint256",
          "name": "value",
          "type": "uint256"
        }
      ],
      "name": "Transfer",
      "type": "event"
    },
    {
      "inputs": [],
      "name": "DOMAIN_SEPARATOR",
      "outputs": [
        {
          "internalType": "bytes32",
          "name": "",
          "type": "bytes32"
        }
      ],
      "stateMutability": "view",
      "type": "function"
    },
    {
      "inputs": [],
      "name": "MINIMUM_LIQUIDITY",
      "outputs": [
        {
          "internalType": "uint256",
          "name": "",
          "type": "uint256"
        }
      ],
      "stateMutability": "view",
      "type": "function"
    },
    {
      "inputs": [],
      "name": "PERMIT_TYPEHASH",
      "outputs": [
        {
          "internalType": "bytes32",
          "name": "",
          "type": "bytes32"
        }
      ],
      "stateMutability": "view",
      "type": "function"
    },
    {
      "inputs": [
        {
          "internalType": "address",
          "name": "",
          "type": "address"
        },
        {
          "internalType": "address",
          "name": "",
          "type": "address"
        }
      ],
      "name": "allowance",
      "outputs": [
        {
          "internalType": "uint256",
          "name": "",
          "type": "uint256"
        }
      ],
      "stateMutability": "view",
      "type": "function"
    },
    {
      "inputs": [
        {
          "internalType": "address",
          "name": "spender",
          "type": "address"
        },
        {
          "internalType": "uint256",
          "name": "value",
          "type": "uint256"
        }
      ],
      "name": "approve",
      "outputs": [
        {
          "internalType": "bool",
          "name": "",
          "type": "bool"
        }
      ],
      "stateMutability": "nonpayable",
      "type": "function"
    },
    {
      "inputs": [
        {
          "internalType": "address",
          "name": "",
          "type": "address"
        }
      ],
      "name": "balanceOf",
      "outputs": [
        {
          "internalType": "uint256",
          "name": "",
          "type": "uint256"
        }
      ],
      "stateMutability": "view",
      "type": "function"
    },
    {
      "inputs": [
        {
          "internalType": "address",
          "name": "to",
          "type": "address"
        }
      ],
      "name": "burn",
      "outputs": [
        {
          "internalType": "uint256",
          "name": "amount0",
          "type": "uint256"
        },
        {
          "internalType": "uint256",
          "name": "amount1",
          "type": "uint256"
        }
      ],
      "stateMutability": "nonpayable",
      "type": "function"
    },
    {
      "inputs": [
        {
          "internalType": "address",
          "name": "",
          "type": "address"
        },
        {
          "internalType": "uint256",
          "name": "",
          "type": "uint256"
        }
      ],
      "name": "debtBalances",
      "outputs": [
        {
          "internalType": "uint112",
          "name": "",
          "type": "uint112"
        }
      ],
      "stateMutability": "view",
      "type": "function"
    },
    {
      "inputs": [],
      "name": "debtShares0",
      "outputs": [
        {
          "internalType": "uint112",
          "name": "",
          "type": "uint112"
        }
      ],
      "stateMutability": "view",
      "type": "function"
    },
    {
      "inputs": [],
      "name": "debtShares1",
      "outputs": [
        {
          "internalType": "uint112",
          "name": "",
          "type": "uint112"
        }
      ],
      "stateMutability": "view",
      "type": "function"
    },
    {
      "inputs": [],
      "name": "decimals",
      "outputs": [
        {
          "internalType": "uint8",
          "name": "",
          "type": "uint8"
        }
      ],
      "stateMutability": "view",
      "type": "function"
    },
    {
      "inputs": [],
      "name": "factory",
      "outputs": [
        {
          "internalType": "address",
          "name": "",
          "type": "address"
        }
      ],
      "stateMutability": "view",
      "type": "function"
    },
    {
      "inputs": [],
      "name": "getFeeFactor",
      "outputs": [
        {
          "internalType": "uint256",
          "name": "feeFactor0",
          "type": "uint256"
        },
        {
          "internalType": "uint256",
          "name": "feeFactor1",
          "type": "uint256"
        }
      ],
      "stateMutability": "view",
      "type": "function"
    },
    {
      "inputs": [],
      "name": "getReserves",
      "outputs": [
        {
          "internalType": "uint112",
          "name": "_reserve0",
          "type": "uint112"
        },
        {
          "internalType": "uint112",
          "name": "_reserve1",
          "type": "uint112"
        },
        {
          "internalType": "uint32",
          "name": "_blockTimestampLast",
          "type": "uint32"
        }
      ],
      "stateMutability": "view",
      "type": "function"
    },
    {
      "inputs": [],
      "name": "getSidePools",
      "outputs": [
        {
          "internalType": "uint112",
          "name": "_sidePool0",
          "type": "uint112"
        },
        {
          "internalType": "uint112",
          "name": "_sidePool1",
          "type": "uint112"
        },
        {
          "internalType": "uint32",
          "name": "_blockTimestampLast",
          "type": "uint32"
        }
      ],
      "stateMutability": "view",
      "type": "function"
    },
    {
      "inputs": [
        {
          "internalType": "address",
          "name": "_token0",
          "type": "address"
        },
        {
          "internalType": "address",
          "name": "_token1",
          "type": "address"
        },
        {
          "internalType": "uint32",
          "name": "_sidePoolRatio",
          "type": "uint32"
        }
      ],
      "name": "initialize",
      "outputs": [],
      "stateMutability": "nonpayable",
      "type": "function"
    },
    {
      "inputs": [],
      "name": "kLast",
      "outputs": [
        {
          "internalType": "uint256",
          "name": "",
          "type": "uint256"
        }
      ],
      "stateMutability": "view",
      "type": "function"
    },
    {
      "inputs": [
        {
          "internalType": "address",
          "name": "to",
          "type": "address"
        }
      ],
      "name": "mint",
      "outputs": [
        {
          "internalType": "uint256",
          "name": "liquidity",
          "type": "uint256"
        }
      ],
      "stateMutability": "nonpayable",
      "type": "function"
    },
    {
      "inputs": [],
      "name": "name",
      "outputs": [
        {
          "internalType": "string",
          "name": "",
          "type": "string"
        }
      ],
      "stateMutability": "view",
      "type": "function"
    },
    {
      "inputs": [
        {
          "internalType": "address",
          "name": "",
          "type": "address"
        }
      ],
      "name": "nonces",
      "outputs": [
        {
          "internalType": "uint256",
          "name": "",
          "type": "uint256"
        }
      ],
      "stateMutability": "view",
      "type": "function"
    },
    {
      "inputs": [
        {
          "internalType": "address",
          "name": "owner",
          "type": "address"
        },
        {
          "internalType": "address",
          "name": "spender",
          "type": "address"
        },
        {
          "internalType": "uint256",
          "name": "value",
          "type": "uint256"
        },
        {
          "internalType": "uint256",
          "name": "deadline",
          "type": "uint256"
        },
        {
          "internalType": "uint8",
          "name": "v",
          "type": "uint8"
        },
        {
          "internalType": "bytes32",
          "name": "r",
          "type": "bytes32"
        },
        {
          "internalType": "bytes32",
          "name": "s",
          "type": "bytes32"
        }
      ],
      "name": "permit",
      "outputs": [],
      "stateMutability": "nonpayable",
      "type": "function"
    },
    {
      "inputs": [],
      "name": "price0CumulativeLast",
      "outputs": [
        {
          "internalType": "uint256",
          "name": "",
          "type": "uint256"
        }
      ],
      "stateMutability": "view",
      "type": "function"
    },
    {
      "inputs": [],
      "name": "price1CumulativeLast",
      "outputs": [
        {
          "internalType": "uint256",
          "name": "",
          "type": "uint256"
        }
      ],
      "stateMutability": "view",
      "type": "function"
    },
    {
      "inputs": [],
      "name": "sidePool0",
      "outputs": [
        {
          "internalType": "uint112",
          "name": "",
          "type": "uint112"
        }
      ],
      "stateMutability": "view",
      "type": "function"
    },
    {
      "inputs": [],
      "name": "sidePool0Debt",
      "outputs": [
        {
          "internalType": "uint112",
          "name": "",
          "type": "uint112"
        }
      ],
      "stateMutability": "view",
      "type": "function"
    },
    {
      "inputs": [],
      "name": "sidePool0Vault",
      "outputs": [
        {
          "internalType": "uint112",
          "name": "",
          "type": "uint112"
        }
      ],
      "stateMutability": "view",
      "type": "function"
    },
    {
      "inputs": [],
      "name": "sidePool1",
      "outputs": [
        {
          "internalType": "uint112",
          "name": "",
          "type": "uint112"
        }
      ],
      "stateMutability": "view",
      "type": "function"
    },
    {
      "inputs": [],
      "name": "sidePool1Debt",
      "outputs": [
        {
          "internalType": "uint112",
          "name": "",
          "type": "uint112"
        }
      ],
      "stateMutability": "view",
      "type": "function"
    },
    {
      "inputs": [],
      "name": "sidePool1Vault",
      "outputs": [
        {
          "internalType": "uint112",
          "name": "",
          "type": "uint112"
        }
      ],
      "stateMutability": "view",
      "type": "function"
    },
    {
      "inputs": [],
      "name": "sidePoolRatio",
      "outputs": [
        {
          "internalType": "uint32",
          "name": "",
          "type": "uint32"
        }
      ],
      "stateMutability": "view",
      "type": "function"
    },
    {
      "inputs": [
        {
          "internalType": "address",
          "name": "to",
          "type": "address"
        }
      ],
      "name": "skim",
      "outputs": [],
      "stateMutability": "nonpayable",
      "type": "function"
    },
    {
      "inputs": [
        {
          "internalType": "uint256",
          "name": "amount0Out",
          "type": "uint256"
        },
        {
          "internalType": "uint256",
          "name": "amount1Out",
          "type": "uint256"
        },
        {
          "internalType": "address",
          "name": "to",
          "type": "address"
        },
        {
          "internalType": "bytes",
          "name": "data",
          "type": "bytes"
        }
      ],
      "name": "swap",
      "outputs": [],
      "stateMutability": "nonpayable",
      "type": "function"
    },
    {
      "inputs": [],
      "name": "symbol",
      "outputs": [
        {
          "internalType": "string",
          "name": "",
          "type": "string"
        }
      ],
      "stateMutability": "view",
      "type": "function"
    },
    {
      "inputs": [],
      "name": "sync",
      "outputs": [],
      "stateMutability": "nonpayable",
      "type": "function"
    },
    {
      "inputs": [],
      "name": "token0",
      "outputs": [
        {
          "internalType": "address",
          "name": "",
          "type": "address"
        }
      ],
      "stateMutability": "view",
      "type": "function"
    },
    {
      "inputs": [],
      "name": "token1",
      "outputs": [
        {
          "internalType": "address",
          "name": "",
          "type": "address"
        }
      ],
      "stateMutability": "view",
      "type": "function"
    },
    {
      "inputs": [],
      "name": "totalLocked",
      "outputs": [
        {
          "internalType": "uint112",
          "name": "",
          "type": "uint112"
        },
        {
          "internalType": "uint112",
          "name": "",
          "type": "uint112"
        }
      ],
      "stateMutability": "view",
      "type": "function"
    },
    {
      "inputs": [],
      "name": "totalSupply",
      "outputs": [
        {
          "internalType": "uint256",
          "name": "",
          "type": "uint256"
        }
      ],
      "stateMutability": "view",
      "type": "function"
    },
    {
      "inputs": [
        {
          "internalType": "address",
          "name": "to",
          "type": "address"
        },
        {
          "internalType": "uint256",
          "name": "value",
          "type": "uint256"
        }
      ],
      "name": "transfer",
      "outputs": [
        {
          "internalType": "bool",
          "name": "",
          "type": "bool"
        }
      ],
      "stateMutability": "nonpayable",
      "type": "function"
    },
    {
      "inputs": [
        {
          "internalType": "address",
          "name": "from",
          "type": "address"
        },
        {
          "internalType": "address",
          "name": "to",
          "type": "address"
        },
        {
          "internalType": "uint256",
          "name": "value",
          "type": "uint256"
        }
      ],
      "name": "transferFrom",
      "outputs": [
        {
          "internalType": "bool",
          "name": "",
          "type": "bool"
        }
      ],
      "stateMutability": "nonpayable",
      "type": "function"
    }
  ],
  "bytecode": "0x60806040526001600c5534801561001557600080fd5b50604080518082018252600a8152692ab734b9bbb0b8102b1960b11b6020918201528151808301835260018152603160f81b9082015281517f8b73c3c69bb8fe3d512ecc4cf759cc79239f7b179b0ffacaa9a75d522b39400f918101919091527fbfcc8ef98ffbf7b6c3fec7bf5185b566b9863e35a9d83acd49ad6824b5969738918101919091527fc89efdaa54c0f20c7adf612882df0950f5a951637e0307cdcb4c672f298b8bc660608201524660808201523060a082015260c00160408051601f198184030181529190528051602090910120600355600580546001600160a01b03191633179055612bb98061010e6000396000f3fe608060405234801561001057600080fd5b50600436106102485760003560e01c806370a082311161013b578063ba9a7a56116100b8578063d505accf1161007c578063d505accf14610603578063da80191114610616578063dd62ed3e14610629578063e4543dd414610654578063fff6cae91461066757610248565b8063ba9a7a56146105b9578063bc25cf77146105c2578063c012bd5a146105d5578063c45a0155146105dd578063d21220a7146105f057610248565b80639083ef46116100ff5780639083ef461461052857806395d89b4114610542578063a9059cbb14610567578063b2eb47731461057a578063b54cf35c1461059f57610248565b806370a082311461049d57806371b008a1146104bd5780637464fc3d146104d75780637ecebe00146104e057806389afcb441461050057610248565b80633644e515116101c9578063568914121161018d578063568914121461043d5780635909c0d5146104655780635a3d54931461046e5780636a627842146104775780636ecf2b221461048a57610248565b80633644e515146103b9578063380bf959146103c25780633f334bdf146103dc57806341383137146103ef57806346d9224a1461042357610248565b806318160ddd1161021057806318160ddd1461032357806323b872dd1461033a57806330adf81f1461034d578063313ce567146103745780633311a46a1461038e57610248565b8063022c0d9f1461024d57806306fdde03146102625780630902f1ac146102a1578063095ea7b3146102d55780630dfe1681146102f8575b600080fd5b61026061025b366004612816565b61066f565b005b61028b6040518060400160405280600a8152602001692ab734b9bbb0b8102b1960b11b81525081565b6040516102989190612965565b60405180910390f35b6102a9610da8565b604080516001600160701b03948516815293909216602084015263ffffffff1690820152606001610298565b6102e86102e33660046127b3565b610dd2565b6040519015158152602001610298565b60065461030b906001600160a01b031681565b6040516001600160a01b039091168152602001610298565b61032c60005481565b604051908152602001610298565b6102e86103483660046126ac565b610de9565b61032c7f6e71edae12b1b97f4d1f60370fef10105fa2faae0126114a169c64845d6126c981565b61037c601281565b60405160ff9091168152602001610298565b600f546103a1906001600160701b031681565b6040516001600160701b039091168152602001610298565b61032c60035481565b600d546103a190600160201b90046001600160701b031681565b600e546103a1906001600160701b031681565b600d54600854600160201b82046001600160701b0390811692600160901b90041690600160e01b900463ffffffff166102a9565b600f546103a190600160701b90046001600160701b031681565b610445610e7e565b604080516001600160701b03938416815292909116602083015201610298565b61032c60095481565b61032c600a5481565b61032c61048536600461263c565b610efb565b610260610498366004612761565b611280565b61032c6104ab36600461263c565b60016020526000908152604090205481565b6010546103a190600160701b90046001600160701b031681565b61032c600b5481565b61032c6104ee36600461263c565b60046020526000908152604090205481565b61051361050e36600461263c565b61131d565b60408051928352602083019190915201610298565b600e546103a190600160701b90046001600160701b031681565b61028b604051806040016040528060068152602001652aa72496ab1960d11b81525081565b6102e86105753660046127b3565b61179f565b600d5461058a9063ffffffff1681565b60405163ffffffff9091168152602001610298565b600d546103a190600160901b90046001600160701b031681565b61032c6103e881565b6102606105d036600461263c565b6117ac565b6105136118e1565b60055461030b906001600160a01b031681565b60075461030b906001600160a01b031681565b6102606106113660046126ec565b611a1c565b6010546103a1906001600160701b031681565b61032c610637366004612674565b600260209081526000928352604080842090915290825290205481565b6103a16106623660046127b3565b611c30565b610260611c72565b600c5460011461069a5760405162461bcd60e51b815260040161069190612978565b60405180910390fd5b6000600c55831515806106ad5750600083115b6107075760405162461bcd60e51b815260206004820152602560248201527f556e697377617056323a20494e53554646494349454e545f4f55545055545f416044820152641353d5539560da1b6064820152608401610691565b600080610712610da8565b5091509150816001600160701b0316861080156107375750806001600160701b031685105b61078d5760405162461bcd60e51b815260206004820152602160248201527f556e697377617056323a20494e53554646494349454e545f4c495155494449546044820152605960f81b6064820152608401610691565b60065460075460009182916001600160a01b039182169190811690881682148015906107cb5750806001600160a01b0316886001600160a01b031614155b61080f5760405162461bcd60e51b8152602060048201526015602482015274556e697377617056323a20494e56414c49445f544f60581b6044820152606401610691565b60008a11801561082857506001600160a01b0388163014155b156108385761083882898c611dcc565b60008911801561085157506001600160a01b0388163014155b156108615761086181898b611dcc565b8651156108cd576040516304347a1760e21b81526001600160a01b038916906310d1e85c9061089a9033908e908e908d9060040161292e565b600060405180830381600087803b1580156108b457600080fd5b505af11580156108c8573d6000803e3d6000fd5b505050505b6040516370a0823160e01b81523060048201526001600160a01b038316906370a082319060240160206040518083038186803b15801561090c57600080fd5b505afa158015610920573d6000803e3d6000fd5b505050506040513d601f19601f8201168201806040525081019061094491906127fe565b6040516370a0823160e01b81523060048201529094506001600160a01b038216906370a082319060240160206040518083038186803b15801561098657600080fd5b505afa15801561099a573d6000803e3d6000fd5b505050506040513d601f19601f820116820180604052508101906109be91906127fe565b925050506000806000806109d0610e7e565b90925090506109e88c6001600160701b038416612a96565b86116109f5576000610a12565b610a088c6001600160701b038416612a96565b610a129087612a96565b9350610a278b6001600160701b038316612a96565b8511610a34576000610a51565b610a478b6001600160701b038316612a96565b610a519086612a96565b92506000841180610a625750600083115b610aba5760405162461bcd60e51b8152602060048201526024808201527f556e697377617056323a20494e53554646494349454e545f494e5055545f414d60448201526313d5539560e21b6064820152608401610691565b6000610ac7856003612a4f565b836001600160701b03168a6001600160701b031689610ae691906129ce565b610af09190612a96565b610afc906103e8612a4f565b610b069190612a96565b90506000610b15856003612a4f565b836001600160701b03168a6001600160701b031689610b3491906129ce565b610b3e9190612a96565b610b4a906103e8612a4f565b610b549190612a96565b9050610b6c6001600160701b03808b16908c16612a4f565b610b7990620f4240612a4f565b610b838284612a4f565b1015610bc05760405162461bcd60e51b815260206004820152600c60248201526b556e697377617056323a204b60a01b6044820152606401610691565b50506010546001600160701b031615159150819050610bf05750601054600160701b90046001600160701b031615155b15610d1457600080610c006118e1565b60105491935091506001600160701b031615610c84576c0c9f2c9cd04674edea4000000082610c30866003612a4f565b610c3a9190612a4f565b610c449190612a0c565b600f8054600090610c5f9084906001600160701b03166129a3565b92506101000a8154816001600160701b0302191690836001600160701b031602179055505b601054600160701b90046001600160701b031615610d11576c0c9f2c9cd04674edea4000000081610cb6856003612a4f565b610cc09190612a4f565b610cca9190612a0c565b600f8054600e90610cec908490600160701b90046001600160701b03166129a3565b92506101000a8154816001600160701b0302191690836001600160701b031602179055505b50505b600d54610d429085908590899089906001600160701b03600160201b8204811691600160901b900416611f17565b60408051838152602081018390529081018b9052606081018a90526001600160a01b0389169033907fd78ad95fa46c994b6551d0da85fc275fe613ce37657fb8d5e3d130840159d8229060800160405180910390a350506001600c555050505050505050565b6008546001600160701b0380821692600160701b830490911691600160e01b900463ffffffff1690565b6000610ddf3384846121bb565b5060015b92915050565b6001600160a01b038316600090815260026020908152604080832033845290915281205460001914610e69576001600160a01b0384166000908152600260209081526040808320338452909152902054610e44908390612a96565b6001600160a01b03851660009081526002602090815260408083203384529091529020555b610e7484848461221d565b5060019392505050565b600e54600d5460085460009283926001600160701b0391821692610ead92600160201b909204821691166129a3565b610eb791906129a3565b600e54600d546008546001600160701b03600160701b93849004811693610ee993600160901b900482169204166129a3565b610ef391906129a3565b915091509091565b6000600c54600114610f1f5760405162461bcd60e51b815260040161069190612978565b6000600c81905580610f2f610da8565b506006546040516370a0823160e01b81523060048201529294509092506000916001600160a01b03909116906370a082319060240160206040518083038186803b158015610f7c57600080fd5b505afa158015610f90573d6000803e3d6000fd5b505050506040513d601f19601f82011682018060405250810190610fb491906127fe565b6007546040516370a0823160e01b81523060048201529192506000916001600160a01b03909116906370a082319060240160206040518083038186803b158015610ffd57600080fd5b505afa158015611011573d6000803e3d6000fd5b505050506040513d601f19601f8201168201806040525081019061103591906127fe565b9050600080611042610e7e565b6001600160701b039182169350169050600061105e8386612a96565b9050600061106c8386612a96565b600d54909150600090620f42409061108a9063ffffffff1685612a4f565b6110949190612a0c565b600d54909150600090620f4240906110b29063ffffffff1685612a4f565b6110bc9190612a0c565b905060006110ca8b8b6122c5565b60005490915080611108576103e86110ea6110e58789612a4f565b612413565b6110f49190612a96565b9c5061110360006103e8612483565b61114f565b61114c6001600160701b038d1661111f8389612a4f565b6111299190612a0c565b6001600160701b038d1661113d8489612a4f565b6111479190612a0c565b612514565b9c505b60008d116111b05760405162461bcd60e51b815260206004820152602860248201527f556e697377617056323a20494e53554646494349454e545f4c495155494449546044820152671657d3525395115160c21b6064820152608401610691565b6111ba8e8e612483565b6112058a8a8e8e88600d60049054906101000a90046001600160701b03166111e291906129a3565b600d54611200908a90600160901b90046001600160701b03166129a3565b611f17565b811561122e5760085461122a906001600160701b03600160701b820481169116612a4f565b600b555b604080518781526020810187905233917f4c209b5fc8ad50758f13e2e1088ba56a560dff690a1c6fef26394f4c03821c4f910160405180910390a250506001600c5550989a9950505050505050505050565b6005546001600160a01b031633146112d15760405162461bcd60e51b81526020600482015260146024820152732ab734b9bbb0b82b191d102327a92124a22222a760611b6044820152606401610691565b600680546001600160a01b03199081166001600160a01b0395861617909155600780549091169290931691909117909155600d805463ffffffff191663ffffffff909216919091179055565b600080600c546001146113425760405162461bcd60e51b815260040161069190612978565b6000600c81905580611352610da8565b506006546007546040516370a0823160e01b81523060048201529395509193506001600160a01b039081169291169060009083906370a082319060240160206040518083038186803b1580156113a757600080fd5b505afa1580156113bb573d6000803e3d6000fd5b505050506040513d601f19601f820116820180604052508101906113df91906127fe565b6040516370a0823160e01b81523060048201529091506000906001600160a01b038416906370a082319060240160206040518083038186803b15801561142457600080fd5b505afa158015611438573d6000803e3d6000fd5b505050506040513d601f19601f8201168201806040525081019061145c91906127fe565b3060009081526001602052604081205491925061147988886122c5565b600054600e54919250908190611498906001600160701b031687612a96565b6114a29085612a4f565b6114ac9190612a0c565b600e54909b5081906114ce90600160701b90046001600160701b031686612a96565b6114d89085612a4f565b6114e29190612a0c565b600d54909a50600090829061150790600160201b90046001600160701b031686612a4f565b6115119190612a0c565b600d54909150600090839061153690600160901b90046001600160701b031687612a4f565b6115409190612a0c565b905060008d118015611552575060008c115b6115af5760405162461bcd60e51b815260206004820152602860248201527f556e697377617056323a20494e53554646494349454e545f4c495155494449546044820152671657d0955493915160c21b6064820152608401610691565b6115b9308661252c565b6115c4898f8f611dcc565b6115cf888f8e611dcc565b6040516370a0823160e01b81523060048201526001600160a01b038a16906370a082319060240160206040518083038186803b15801561160e57600080fd5b505afa158015611622573d6000803e3d6000fd5b505050506040513d601f19601f8201168201806040525081019061164691906127fe565b6040516370a0823160e01b81523060048201529097506001600160a01b038916906370a082319060240160206040518083038186803b15801561168857600080fd5b505afa15801561169c573d6000803e3d6000fd5b505050506040513d601f19601f820116820180604052508101906116c091906127fe565b955061170887878d8d86600d60049054906101000a90046001600160701b03166116ea9190612a6e565b600d54611200908890600160901b90046001600160701b0316612a6e565b83156117315760085461172d906001600160701b03600160701b820481169116612a4f565b600b555b8d6001600160a01b0316336001600160a01b03167fdccd412f0b1252819cb1fd330b93224ca42612892bb3f4f789976e6d819364968f8f60405161177f929190918252602082015260400190565b60405180910390a350505050505050505050506001600c81905550915091565b6000610ddf33848461221d565b600c546001146117ce5760405162461bcd60e51b815260040161069190612978565b6000600c8190556006546007546001600160a01b0391821692911690806117f3610e7e565b6040516370a0823160e01b81523060048201529193509150611892908590879061188d906001600160701b038716906001600160a01b038516906370a08231906024015b60206040518083038186803b15801561184f57600080fd5b505afa158015611863573d6000803e3d6000fd5b505050506040513d601f19601f8201168201806040525081019061188791906127fe565b906125b8565b611dcc565b6040516370a0823160e01b81523060048201526118d5908490879061188d906001600160701b038616906001600160a01b038516906370a0823190602401611837565b50506001600c55505050565b600d546008546000918291611909916001600160701b03600160901b90910481169116612a4f565b600d54600854611933916001600160701b03600160201b909104811691600160701b900416612a4f565b611949906b033b2e3c9fd0803ce8000000612a4f565b6119539190612a0c565b600d54600854919350611981916001600160701b03600160201b909204821691600160701b90910416612a4f565b600d546008546119a4916001600160701b03600160901b90910481169116612a4f565b6119ba906b033b2e3c9fd0803ce8000000612a4f565b6119c49190612a0c565b90506b033b2e3c9fd0803ce800000082116119eb576b033b2e3c9fd0803ce80000006119ed565b815b91506b033b2e3c9fd0803ce80000008111611a14576b033b2e3c9fd0803ce8000000611a16565b805b90509091565b42841015611a615760405162461bcd60e51b8152602060048201526012602482015271155b9a5cddd85c158c8e881156141254915160721b6044820152606401610691565b6003546001600160a01b038816600090815260046020526040812080549192917f6e71edae12b1b97f4d1f60370fef10105fa2faae0126114a169c64845d6126c9918b918b918b919087611ab483612afa565b909155506040805160208101969096526001600160a01b0394851690860152929091166060840152608083015260a082015260c0810187905260e00160405160208183030381529060405280519060200120604051602001611b2d92919061190160f01b81526002810192909252602282015260420190565b60408051601f198184030181528282528051602091820120600080855291840180845281905260ff88169284019290925260608301869052608083018590529092509060019060a0016020604051602081039080840390855afa158015611b98573d6000803e3d6000fd5b5050604051601f1901519150506001600160a01b03811615801590611bce5750886001600160a01b0316816001600160a01b0316145b611c1a5760405162461bcd60e51b815260206004820152601c60248201527f556e697377617056323a20494e56414c49445f5349474e4154555245000000006044820152606401610691565b611c258989896121bb565b505050505050505050565b60116020528160005260406000208160028110611c4c57600080fd5b60029182820401919006600e02915091509054906101000a90046001600160701b031681565b600c54600114611c945760405162461bcd60e51b815260040161069190612978565b6000600c556006546040516370a0823160e01b8152306004820152611dc5916001600160a01b0316906370a082319060240160206040518083038186803b158015611cde57600080fd5b505afa158015611cf2573d6000803e3d6000fd5b505050506040513d601f19601f82011682018060405250810190611d1691906127fe565b6007546040516370a0823160e01b81523060048201526001600160a01b03909116906370a082319060240160206040518083038186803b158015611d5957600080fd5b505afa158015611d6d573d6000803e3d6000fd5b505050506040513d601f19601f82011682018060405250810190611d9191906127fe565b600854600d546001600160701b0380831692600160701b9004811691600160201b8104821691600160901b90910416611f17565b6001600c55565b604080518082018252601981527f7472616e7366657228616464726573732c75696e74323536290000000000000060209182015281516001600160a01b0385811660248301526044808301869052845180840390910181526064909201845291810180516001600160e01b031663a9059cbb60e01b17905291516000928392871691611e589190612912565b6000604051808303816000865af19150503d8060008114611e95576040519150601f19603f3d011682016040523d82523d6000602084013e611e9a565b606091505b5091509150818015611ec4575080511580611ec4575080806020019051810190611ec491906127de565b611f105760405162461bcd60e51b815260206004820152601a60248201527f556e697377617056323a205452414e534645525f4641494c45440000000000006044820152606401610691565b5050505050565b6001600160701b038611801590611f3557506001600160701b038511155b611f775760405162461bcd60e51b8152602060048201526013602482015272556e697377617056323a204f564552464c4f5760681b6044820152606401610691565b6000611f87600160201b42612b15565b600854909150600090611fa790600160e01b900463ffffffff1683612aad565b905060008163ffffffff16118015611fc757506001600160701b03861615155b8015611fdb57506001600160701b03851615155b1561206a578063ffffffff1661200387611ff48861260e565b6001600160e01b031690612627565b6001600160e01b03166120169190612a4f565b6009600082825461202791906129ce565b909155505063ffffffff811661204086611ff48961260e565b6001600160e01b03166120539190612a4f565b600a600082825461206491906129ce565b90915550505b600d805463ffffffff16600160201b6001600160701b03878116820271ffffffffffffffffffffffffffffffffffff1692909217600160901b878416021792839055600e548216926120c092919004168a612a96565b6120ca9190612a96565b600880546dffffffffffffffffffffffffffff19166001600160701b03928316179055600e54600d54600160701b90910482169161211091600160901b90041689612a96565b61211a9190612a96565b600880546001600160701b03908116600160701b93821684026001600160e01b031617600160e01b63ffffffff8716021791829055600d546040805184841681529490930482166020850152600160201b8104821692840192909252600160901b9091041660608201527f90cf11c015dfdfdf83f1b0ed5d27ebcd2839050639a62928e181005c315248d69060800160405180910390a15050505050505050565b6001600160a01b0383811660008181526002602090815260408083209487168084529482529182902085905590518481527f8c5be1e5ebec7d5bd14f71427d1e84f3dd0314c0f7b2291e5b200ac8c7c3b92591015b60405180910390a3505050565b6001600160a01b038316600090815260016020526040902054612241908290612a96565b6001600160a01b0380851660009081526001602052604080822093909355908416815220546122719082906129ce565b6001600160a01b0380841660008181526001602052604090819020939093559151908516907fddf252ad1be2c89b69c2b068fc378daa952ba7f163c4a11628f55a4df523b3ef906122109085815260200190565b600080600560009054906101000a90046001600160a01b03166001600160a01b031663017e7e586040518163ffffffff1660e01b815260040160206040518083038186803b15801561231657600080fd5b505afa15801561232a573d6000803e3d6000fd5b505050506040513d601f19601f8201168201806040525081019061234e9190612658565b600b546001600160a01b0382161580159450919250906123ff5780156123fa5760006123896110e56001600160701b03808816908916612a4f565b9050600061239683612413565b9050808211156123f75760006123ac8284612a96565b6000546123b99190612a4f565b90506000826123c9856005612a4f565b6123d391906129ce565b905060006123e18284612a0c565b905080156123f3576123f38782612483565b5050505b50505b61240b565b801561240b576000600b555b505092915050565b60006003821115612474575080600061242d600283612a0c565b6124389060016129ce565b90505b8181101561246e579050806002816124538186612a0c565b61245d91906129ce565b6124679190612a0c565b905061243b565b5061247e565b811561247e575060015b919050565b8060005461249191906129ce565b60009081556001600160a01b0383168152600160205260409020546124b79082906129ce565b6001600160a01b0383166000818152600160205260408082209390935591519091907fddf252ad1be2c89b69c2b068fc378daa952ba7f163c4a11628f55a4df523b3ef906125089085815260200190565b60405180910390a35050565b60008183106125235781612525565b825b9392505050565b6001600160a01b038216600090815260016020526040902054612550908290612a96565b6001600160a01b03831660009081526001602052604081209190915554612578908290612a96565b60009081556040518281526001600160a01b038416907fddf252ad1be2c89b69c2b068fc378daa952ba7f163c4a11628f55a4df523b3ef90602001612508565b6000826125c58382612a96565b9150811115610de35760405162461bcd60e51b815260206004820152601560248201527464732d6d6174682d7375622d756e646572666c6f7760581b6044820152606401610691565b6000610de3600160701b6001600160701b038416612a20565b60006125256001600160701b038316846129e6565b60006020828403121561264d578081fd5b813561252581612b6b565b600060208284031215612669578081fd5b815161252581612b6b565b60008060408385031215612686578081fd5b823561269181612b6b565b915060208301356126a181612b6b565b809150509250929050565b6000806000606084860312156126c0578081fd5b83356126cb81612b6b565b925060208401356126db81612b6b565b929592945050506040919091013590565b600080600080600080600060e0888a031215612706578283fd5b873561271181612b6b565b9650602088013561272181612b6b565b95506040880135945060608801359350608088013560ff81168114612744578384fd5b9699959850939692959460a0840135945060c09093013592915050565b600080600060608486031215612775578283fd5b833561278081612b6b565b9250602084013561279081612b6b565b9150604084013563ffffffff811681146127a8578182fd5b809150509250925092565b600080604083850312156127c5578182fd5b82356127d081612b6b565b946020939093013593505050565b6000602082840312156127ef578081fd5b81518015158114612525578182fd5b60006020828403121561280f578081fd5b5051919050565b6000806000806080858703121561282b578384fd5b8435935060208501359250604085013561284481612b6b565b9150606085013567ffffffffffffffff80821115612860578283fd5b818701915087601f830112612873578283fd5b81358181111561288557612885612b55565b604051601f8201601f19908116603f011681019083821181831017156128ad576128ad612b55565b816040528281528a60208487010111156128c5578586fd5b82602086016020830137918201602001949094529598949750929550505050565b600081518084526128fe816020860160208601612aca565b601f01601f19169290920160200192915050565b60008251612924818460208701612aca565b9190910192915050565b600060018060a01b03861682528460208301528360408301526080606083015261295b60808301846128e6565b9695505050505050565b60006020825261252560208301846128e6565b602080825260119082015270155b9a5cddd85c158c8e881313d0d2d151607a1b604082015260600190565b60006001600160701b038083168185168083038211156129c5576129c5612b29565b01949350505050565b600082198211156129e1576129e1612b29565b500190565b60006001600160e01b0383811680612a0057612a00612b3f565b92169190910492915050565b600082612a1b57612a1b612b3f565b500490565b60006001600160e01b0382811684821681151582840482111615612a4657612a46612b29565b02949350505050565b6000816000190483118215151615612a6957612a69612b29565b500290565b60006001600160701b0383811690831681811015612a8e57612a8e612b29565b039392505050565b600082821015612aa857612aa8612b29565b500390565b600063ffffffff83811690831681811015612a8e57612a8e612b29565b60005b83811015612ae5578181015183820152602001612acd565b83811115612af4576000848401525b50505050565b6000600019821415612b0e57612b0e612b29565b5060010190565b600082612b2457612b24612b3f565b500690565b634e487b7160e01b600052601160045260246000fd5b634e487b7160e01b600052601260045260246000fd5b634e487b7160e01b600052604160045260246000fd5b6001600160a01b0381168114612b8057600080fd5b5056fea26469706673582212204ed9fb4836f0244468100801c552e29880a1d46f809a6c890ae71feb339db45b64736f6c63430008030033",
  "linkReferences": {},
  "deployedLinkReferences": {}
}