{
  "fileName": "DXswapRouter01.sol",
  "contractName": "DXswapRouter01",
  "source": "pragma solidity =0.6.6;\n\nimport 'dxswap-core/contracts/interfaces/IDXswapFactory.sol';\nimport '@uniswap/lib/contracts/libraries/TransferHelper.sol';\n\nimport './libraries/DXswapLibrary.sol';\nimport './interfaces/IDXswapRouter01.sol';\nimport './interfaces/IERC20.sol';\nimport './interfaces/IWETH.sol';\n\ncontract DXswapRouter01 is IDXswapRouter01 {\n    address public immutable override factory;\n    address public immutable override WETH;\n\n    modifier ensure(uint deadline) {\n        require(deadline >= block.timestamp, 'DXswapRouter: EXPIRED');\n        _;\n    }\n\n    constructor(address _factory, address _WETH) public {\n        factory = _factory;\n        WETH = _WETH;\n    }\n\n    receive() external payable {\n        assert(msg.sender == WETH); // only accept ETH via fallback from the WETH contract\n    }\n\n    // **** ADD LIQUIDITY ****\n    function _addLiquidity(\n        address tokenA,\n        address tokenB,\n        uint amountADesired,\n        uint amountBDesired,\n        uint amountAMin,\n        uint amountBMin\n    ) private returns (uint amountA, uint amountB) {\n        // create the pair if it doesn't exist yet\n        if (IDXswapFactory(factory).getPair(tokenA, tokenB) == address(0)) {\n            IDXswapFactory(factory).createPair(tokenA, tokenB);\n        }\n        (uint reserveA, uint reserveB) = DXswapLibrary.getReserves(factory, tokenA, tokenB);\n        if (reserveA == 0 && reserveB == 0) {\n            (amountA, amountB) = (amountADesired, amountBDesired);\n        } else {\n            uint amountBOptimal = DXswapLibrary.quote(amountADesired, reserveA, reserveB);\n            if (amountBOptimal <= amountBDesired) {\n                require(amountBOptimal >= amountBMin, 'DXswapRouter: INSUFFICIENT_B_AMOUNT');\n                (amountA, amountB) = (amountADesired, amountBOptimal);\n            } else {\n                uint amountAOptimal = DXswapLibrary.quote(amountBDesired, reserveB, reserveA);\n                assert(amountAOptimal <= amountADesired);\n                require(amountAOptimal >= amountAMin, 'DXswapRouter: INSUFFICIENT_A_AMOUNT');\n                (amountA, amountB) = (amountAOptimal, amountBDesired);\n            }\n        }\n    }\n    function addLiquidity(\n        address tokenA,\n        address tokenB,\n        uint amountADesired,\n        uint amountBDesired,\n        uint amountAMin,\n        uint amountBMin,\n        address to,\n        uint deadline\n    ) external override ensure(deadline) returns (uint amountA, uint amountB, uint liquidity) {\n        (amountA, amountB) = _addLiquidity(tokenA, tokenB, amountADesired, amountBDesired, amountAMin, amountBMin);\n        address pair = DXswapLibrary.pairFor(factory, tokenA, tokenB);\n        TransferHelper.safeTransferFrom(tokenA, msg.sender, pair, amountA);\n        TransferHelper.safeTransferFrom(tokenB, msg.sender, pair, amountB);\n        liquidity = IDXswapPair(pair).mint(to);\n    }\n    function addLiquidityETH(\n        address token,\n        uint amountTokenDesired,\n        uint amountTokenMin,\n        uint amountETHMin,\n        address to,\n        uint deadline\n    ) external override payable ensure(deadline) returns (uint amountToken, uint amountETH, uint liquidity) {\n        (amountToken, amountETH) = _addLiquidity(\n            token,\n            WETH,\n            amountTokenDesired,\n            msg.value,\n            amountTokenMin,\n            amountETHMin\n        );\n        address pair = DXswapLibrary.pairFor(factory, token, WETH);\n        TransferHelper.safeTransferFrom(token, msg.sender, pair, amountToken);\n        IWETH(WETH).deposit{value: amountETH}();\n        assert(IWETH(WETH).transfer(pair, amountETH));\n        liquidity = IDXswapPair(pair).mint(to);\n        if (msg.value > amountETH) TransferHelper.safeTransferETH(msg.sender, msg.value - amountETH); // refund dust eth, if any\n    }\n\n    // **** REMOVE LIQUIDITY ****\n    function removeLiquidity(\n        address tokenA,\n        address tokenB,\n        uint liquidity,\n        uint amountAMin,\n        uint amountBMin,\n        address to,\n        uint deadline\n    ) public override ensure(deadline) returns (uint amountA, uint amountB) {\n        address pair = DXswapLibrary.pairFor(factory, tokenA, tokenB);\n        IDXswapPair(pair).transferFrom(msg.sender, pair, liquidity); // send liquidity to pair\n        (uint amount0, uint amount1) = IDXswapPair(pair).burn(to);\n        (address token0,) = DXswapLibrary.sortTokens(tokenA, tokenB);\n        (amountA, amountB) = tokenA == token0 ? (amount0, amount1) : (amount1, amount0);\n        require(amountA >= amountAMin, 'DXswapRouter: INSUFFICIENT_A_AMOUNT');\n        require(amountB >= amountBMin, 'DXswapRouter: INSUFFICIENT_B_AMOUNT');\n    }\n    function removeLiquidityETH(\n        address token,\n        uint liquidity,\n        uint amountTokenMin,\n        uint amountETHMin,\n        address to,\n        uint deadline\n    ) public override ensure(deadline) returns (uint amountToken, uint amountETH) {\n        (amountToken, amountETH) = removeLiquidity(\n            token,\n            WETH,\n            liquidity,\n            amountTokenMin,\n            amountETHMin,\n            address(this),\n            deadline\n        );\n        TransferHelper.safeTransfer(token, to, amountToken);\n        IWETH(WETH).withdraw(amountETH);\n        TransferHelper.safeTransferETH(to, amountETH);\n    }\n    function removeLiquidityWithPermit(\n        address tokenA,\n        address tokenB,\n        uint liquidity,\n        uint amountAMin,\n        uint amountBMin,\n        address to,\n        uint deadline,\n        bool approveMax, uint8 v, bytes32 r, bytes32 s\n    ) external override returns (uint amountA, uint amountB) {\n        address pair = DXswapLibrary.pairFor(factory, tokenA, tokenB);\n        uint value = approveMax ? uint(-1) : liquidity;\n        IDXswapPair(pair).permit(msg.sender, address(this), value, deadline, v, r, s);\n        (amountA, amountB) = removeLiquidity(tokenA, tokenB, liquidity, amountAMin, amountBMin, to, deadline);\n    }\n    function removeLiquidityETHWithPermit(\n        address token,\n        uint liquidity,\n        uint amountTokenMin,\n        uint amountETHMin,\n        address to,\n        uint deadline,\n        bool approveMax, uint8 v, bytes32 r, bytes32 s\n    ) external override returns (uint amountToken, uint amountETH) {\n        address pair = DXswapLibrary.pairFor(factory, token, WETH);\n        uint value = approveMax ? uint(-1) : liquidity;\n        IDXswapPair(pair).permit(msg.sender, address(this), value, deadline, v, r, s);\n        (amountToken, amountETH) = removeLiquidityETH(token, liquidity, amountTokenMin, amountETHMin, to, deadline);\n    }\n\n    // **** SWAP ****\n    // requires the initial amount to have already been sent to the first pair\n    function _swap(uint[] memory amounts, address[] memory path, address _to) private {\n        for (uint i; i < path.length - 1; i++) {\n            (address input, address output) = (path[i], path[i + 1]);\n            (address token0,) = DXswapLibrary.sortTokens(input, output);\n            uint amountOut = amounts[i + 1];\n            (uint amount0Out, uint amount1Out) = input == token0 ? (uint(0), amountOut) : (amountOut, uint(0));\n            address to = i < path.length - 2 ? DXswapLibrary.pairFor(factory, output, path[i + 2]) : _to;\n            IDXswapPair(DXswapLibrary.pairFor(factory, input, output)).swap(amount0Out, amount1Out, to, new bytes(0));\n        }\n    }\n    function swapExactTokensForTokens(\n        uint amountIn,\n        uint amountOutMin,\n        address[] calldata path,\n        address to,\n        uint deadline\n    ) external override ensure(deadline) returns (uint[] memory amounts) {\n        amounts = DXswapLibrary.getAmountsOut(factory, amountIn, path);\n        require(amounts[amounts.length - 1] >= amountOutMin, 'DXswapRouter: INSUFFICIENT_OUTPUT_AMOUNT');\n        TransferHelper.safeTransferFrom(path[0], msg.sender, DXswapLibrary.pairFor(factory, path[0], path[1]), amounts[0]);\n        _swap(amounts, path, to);\n    }\n    function swapTokensForExactTokens(\n        uint amountOut,\n        uint amountInMax,\n        address[] calldata path,\n        address to,\n        uint deadline\n    ) external override ensure(deadline) returns (uint[] memory amounts) {\n        amounts = DXswapLibrary.getAmountsIn(factory, amountOut, path);\n        require(amounts[0] <= amountInMax, 'DXswapRouter: EXCESSIVE_INPUT_AMOUNT');\n        TransferHelper.safeTransferFrom(path[0], msg.sender, DXswapLibrary.pairFor(factory, path[0], path[1]), amounts[0]);\n        _swap(amounts, path, to);\n    }\n    function swapExactETHForTokens(uint amountOutMin, address[] calldata path, address to, uint deadline)\n        external\n        override\n        payable\n        ensure(deadline)\n        returns (uint[] memory amounts)\n    {\n        require(path[0] == WETH, 'DXswapRouter: INVALID_PATH');\n        amounts = DXswapLibrary.getAmountsOut(factory, msg.value, path);\n        require(amounts[amounts.length - 1] >= amountOutMin, 'DXswapRouter: INSUFFICIENT_OUTPUT_AMOUNT');\n        IWETH(WETH).deposit{value: amounts[0]}();\n        assert(IWETH(WETH).transfer(DXswapLibrary.pairFor(factory, path[0], path[1]), amounts[0]));\n        _swap(amounts, path, to);\n    }\n    function swapTokensForExactETH(uint amountOut, uint amountInMax, address[] calldata path, address to, uint deadline)\n        external\n        override\n        ensure(deadline)\n        returns (uint[] memory amounts)\n    {\n        require(path[path.length - 1] == WETH, 'DXswapRouter: INVALID_PATH');\n        amounts = DXswapLibrary.getAmountsIn(factory, amountOut, path);\n        require(amounts[0] <= amountInMax, 'DXswapRouter: EXCESSIVE_INPUT_AMOUNT');\n        TransferHelper.safeTransferFrom(path[0], msg.sender, DXswapLibrary.pairFor(factory, path[0], path[1]), amounts[0]);\n        _swap(amounts, path, address(this));\n        IWETH(WETH).withdraw(amounts[amounts.length - 1]);\n        TransferHelper.safeTransferETH(to, amounts[amounts.length - 1]);\n    }\n    function swapExactTokensForETH(uint amountIn, uint amountOutMin, address[] calldata path, address to, uint deadline)\n        external\n        override\n        ensure(deadline)\n        returns (uint[] memory amounts)\n    {\n        require(path[path.length - 1] == WETH, 'DXswapRouter: INVALID_PATH');\n        amounts = DXswapLibrary.getAmountsOut(factory, amountIn, path);\n        require(amounts[amounts.length - 1] >= amountOutMin, 'DXswapRouter: INSUFFICIENT_OUTPUT_AMOUNT');\n        TransferHelper.safeTransferFrom(path[0], msg.sender, DXswapLibrary.pairFor(factory, path[0], path[1]), amounts[0]);\n        _swap(amounts, path, address(this));\n        IWETH(WETH).withdraw(amounts[amounts.length - 1]);\n        TransferHelper.safeTransferETH(to, amounts[amounts.length - 1]);\n    }\n    function swapETHForExactTokens(uint amountOut, address[] calldata path, address to, uint deadline)\n        external\n        override\n        payable\n        ensure(deadline)\n        returns (uint[] memory amounts)\n    {\n        require(path[0] == WETH, 'DXswapRouter: INVALID_PATH');\n        amounts = DXswapLibrary.getAmountsIn(factory, amountOut, path);\n        require(amounts[0] <= msg.value, 'DXswapRouter: EXCESSIVE_INPUT_AMOUNT');\n        IWETH(WETH).deposit{value: amounts[0]}();\n        assert(IWETH(WETH).transfer(DXswapLibrary.pairFor(factory, path[0], path[1]), amounts[0]));\n        _swap(amounts, path, to);\n        if (msg.value > amounts[0]) TransferHelper.safeTransferETH(msg.sender, msg.value - amounts[0]); // refund dust eth, if any\n    }\n\n    function quote(uint amountA, uint reserveA, uint reserveB) public pure override returns (uint amountB) {\n        return DXswapLibrary.quote(amountA, reserveA, reserveB);\n    }\n\n    function getAmountOut(uint amountIn, uint reserveIn, uint reserveOut, uint swapFee) public pure override returns (uint amountOut) {\n        return DXswapLibrary.getAmountOut(amountIn, reserveIn, reserveOut, swapFee);\n    }\n\n    function getAmountIn(uint amountOut, uint reserveIn, uint reserveOut, uint swapFee) public pure override returns (uint amountIn) {\n        return DXswapLibrary.getAmountOut(amountOut, reserveIn, reserveOut, swapFee);\n    }\n\n    function getAmountsOut(uint amountIn, address[] memory path) public view override returns (uint[] memory amounts) {\n        return DXswapLibrary.getAmountsOut(factory, amountIn, path);\n    }\n\n    function getAmountsIn(uint amountOut, address[] memory path) public view override returns (uint[] memory amounts) {\n        return DXswapLibrary.getAmountsIn(factory, amountOut, path);\n    }\n}\n",
  "sourcePath": "contracts/DXswapRouter01.sol",
  "abi": [
    {
      "inputs": [
        {
          "internalType": "address",
          "name": "_factory",
          "type": "address"
        },
        {
          "internalType": "address",
          "name": "_WETH",
          "type": "address"
        }
      ],
      "stateMutability": "nonpayable",
      "type": "constructor"
    },
    {
      "inputs": [],
      "name": "WETH",
      "outputs": [
        {
          "internalType": "address",
          "name": "",
          "type": "address"
        }
      ],
      "stateMutability": "view",
      "type": "function"
    },
    {
      "inputs": [
        {
          "internalType": "address",
          "name": "tokenA",
          "type": "address"
        },
        {
          "internalType": "address",
          "name": "tokenB",
          "type": "address"
        },
        {
          "internalType": "uint256",
          "name": "amountADesired",
          "type": "uint256"
        },
        {
          "internalType": "uint256",
          "name": "amountBDesired",
          "type": "uint256"
        },
        {
          "internalType": "uint256",
          "name": "amountAMin",
          "type": "uint256"
        },
        {
          "internalType": "uint256",
          "name": "amountBMin",
          "type": "uint256"
        },
        {
          "internalType": "address",
          "name": "to",
          "type": "address"
        },
        {
          "internalType": "uint256",
          "name": "deadline",
          "type": "uint256"
        }
      ],
      "name": "addLiquidity",
      "outputs": [
        {
          "internalType": "uint256",
          "name": "amountA",
          "type": "uint256"
        },
        {
          "internalType": "uint256",
          "name": "amountB",
          "type": "uint256"
        },
        {
          "internalType": "uint256",
          "name": "liquidity",
          "type": "uint256"
        }
      ],
      "stateMutability": "nonpayable",
      "type": "function"
    },
    {
      "inputs": [
        {
          "internalType": "address",
          "name": "token",
          "type": "address"
        },
        {
          "internalType": "uint256",
          "name": "amountTokenDesired",
          "type": "uint256"
        },
        {
          "internalType": "uint256",
          "name": "amountTokenMin",
          "type": "uint256"
        },
        {
          "internalType": "uint256",
          "name": "amountETHMin",
          "type": "uint256"
        },
        {
          "internalType": "address",
          "name": "to",
          "type": "address"
        },
        {
          "internalType": "uint256",
          "name": "deadline",
          "type": "uint256"
        }
      ],
      "name": "addLiquidityETH",
      "outputs": [
        {
          "internalType": "uint256",
          "name": "amountToken",
          "type": "uint256"
        },
        {
          "internalType": "uint256",
          "name": "amountETH",
          "type": "uint256"
        },
        {
          "internalType": "uint256",
          "name": "liquidity",
          "type": "uint256"
        }
      ],
      "stateMutability": "payable",
      "type": "function"
    },
    {
      "inputs": [],
      "name": "factory",
      "outputs": [
        {
          "internalType": "address",
          "name": "",
          "type": "address"
        }
      ],
      "stateMutability": "view",
      "type": "function"
    },
    {
      "inputs": [
        {
          "internalType": "uint256",
          "name": "amountOut",
          "type": "uint256"
        },
        {
          "internalType": "uint256",
          "name": "reserveIn",
          "type": "uint256"
        },
        {
          "internalType": "uint256",
          "name": "reserveOut",
          "type": "uint256"
        },
        {
          "internalType": "uint256",
          "name": "swapFee",
          "type": "uint256"
        }
      ],
      "name": "getAmountIn",
      "outputs": [
        {
          "internalType": "uint256",
          "name": "amountIn",
          "type": "uint256"
        }
      ],
      "stateMutability": "pure",
      "type": "function"
    },
    {
      "inputs": [
        {
          "internalType": "uint256",
          "name": "amountIn",
          "type": "uint256"
        },
        {
          "internalType": "uint256",
          "name": "reserveIn",
          "type": "uint256"
        },
        {
          "internalType": "uint256",
          "name": "reserveOut",
          "type": "uint256"
        },
        {
          "internalType": "uint256",
          "name": "swapFee",
          "type": "uint256"
        }
      ],
      "name": "getAmountOut",
      "outputs": [
        {
          "internalType": "uint256",
          "name": "amountOut",
          "type": "uint256"
        }
      ],
      "stateMutability": "pure",
      "type": "function"
    },
    {
      "inputs": [
        {
          "internalType": "uint256",
          "name": "amountOut",
          "type": "uint256"
        },
        {
          "internalType": "address[]",
          "name": "path",
          "type": "address[]"
        }
      ],
      "name": "getAmountsIn",
      "outputs": [
        {
          "internalType": "uint256[]",
          "name": "amounts",
          "type": "uint256[]"
        }
      ],
      "stateMutability": "view",
      "type": "function"
    },
    {
      "inputs": [
        {
          "internalType": "uint256",
          "name": "amountIn",
          "type": "uint256"
        },
        {
          "internalType": "address[]",
          "name": "path",
          "type": "address[]"
        }
      ],
      "name": "getAmountsOut",
      "outputs": [
        {
          "internalType": "uint256[]",
          "name": "amounts",
          "type": "uint256[]"
        }
      ],
      "stateMutability": "view",
      "type": "function"
    },
    {
      "inputs": [
        {
          "internalType": "uint256",
          "name": "amountA",
          "type": "uint256"
        },
        {
          "internalType": "uint256",
          "name": "reserveA",
          "type": "uint256"
        },
        {
          "internalType": "uint256",
          "name": "reserveB",
          "type": "uint256"
        }
      ],
      "name": "quote",
      "outputs": [
        {
          "internalType": "uint256",
          "name": "amountB",
          "type": "uint256"
        }
      ],
      "stateMutability": "pure",
      "type": "function"
    },
    {
      "inputs": [
        {
          "internalType": "address",
          "name": "tokenA",
          "type": "address"
        },
        {
          "internalType": "address",
          "name": "tokenB",
          "type": "address"
        },
        {
          "internalType": "uint256",
          "name": "liquidity",
          "type": "uint256"
        },
        {
          "internalType": "uint256",
          "name": "amountAMin",
          "type": "uint256"
        },
        {
          "internalType": "uint256",
          "name": "amountBMin",
          "type": "uint256"
        },
        {
          "internalType": "address",
          "name": "to",
          "type": "address"
        },
        {
          "internalType": "uint256",
          "name": "deadline",
          "type": "uint256"
        }
      ],
      "name": "removeLiquidity",
      "outputs": [
        {
          "internalType": "uint256",
          "name": "amountA",
          "type": "uint256"
        },
        {
          "internalType": "uint256",
          "name": "amountB",
          "type": "uint256"
        }
      ],
      "stateMutability": "nonpayable",
      "type": "function"
    },
    {
      "inputs": [
        {
          "internalType": "address",
          "name": "token",
          "type": "address"
        },
        {
          "internalType": "uint256",
          "name": "liquidity",
          "type": "uint256"
        },
        {
          "internalType": "uint256",
          "name": "amountTokenMin",
          "type": "uint256"
        },
        {
          "internalType": "uint256",
          "name": "amountETHMin",
          "type": "uint256"
        },
        {
          "internalType": "address",
          "name": "to",
          "type": "address"
        },
        {
          "internalType": "uint256",
          "name": "deadline",
          "type": "uint256"
        }
      ],
      "name": "removeLiquidityETH",
      "outputs": [
        {
          "internalType": "uint256",
          "name": "amountToken",
          "type": "uint256"
        },
        {
          "internalType": "uint256",
          "name": "amountETH",
          "type": "uint256"
        }
      ],
      "stateMutability": "nonpayable",
      "type": "function"
    },
    {
      "inputs": [
        {
          "internalType": "address",
          "name": "token",
          "type": "address"
        },
        {
          "internalType": "uint256",
          "name": "liquidity",
          "type": "uint256"
        },
        {
          "internalType": "uint256",
          "name": "amountTokenMin",
          "type": "uint256"
        },
        {
          "internalType": "uint256",
          "name": "amountETHMin",
          "type": "uint256"
        },
        {
          "internalType": "address",
          "name": "to",
          "type": "address"
        },
        {
          "internalType": "uint256",
          "name": "deadline",
          "type": "uint256"
        },
        {
          "internalType": "bool",
          "name": "approveMax",
          "type": "bool"
        },
        {
          "internalType": "uint8",
          "name": "v",
          "type": "uint8"
        },
        {
          "internalType": "bytes32",
          "name": "r",
          "type": "bytes32"
        },
        {
          "internalType": "bytes32",
          "name": "s",
          "type": "bytes32"
        }
      ],
      "name": "removeLiquidityETHWithPermit",
      "outputs": [
        {
          "internalType": "uint256",
          "name": "amountToken",
          "type": "uint256"
        },
        {
          "internalType": "uint256",
          "name": "amountETH",
          "type": "uint256"
        }
      ],
      "stateMutability": "nonpayable",
      "type": "function"
    },
    {
      "inputs": [
        {
          "internalType": "address",
          "name": "tokenA",
          "type": "address"
        },
        {
          "internalType": "address",
          "name": "tokenB",
          "type": "address"
        },
        {
          "internalType": "uint256",
          "name": "liquidity",
          "type": "uint256"
        },
        {
          "internalType": "uint256",
          "name": "amountAMin",
          "type": "uint256"
        },
        {
          "internalType": "uint256",
          "name": "amountBMin",
          "type": "uint256"
        },
        {
          "internalType": "address",
          "name": "to",
          "type": "address"
        },
        {
          "internalType": "uint256",
          "name": "deadline",
          "type": "uint256"
        },
        {
          "internalType": "bool",
          "name": "approveMax",
          "type": "bool"
        },
        {
          "internalType": "uint8",
          "name": "v",
          "type": "uint8"
        },
        {
          "internalType": "bytes32",
          "name": "r",
          "type": "bytes32"
        },
        {
          "internalType": "bytes32",
          "name": "s",
          "type": "bytes32"
        }
      ],
      "name": "removeLiquidityWithPermit",
      "outputs": [
        {
          "internalType": "uint256",
          "name": "amountA",
          "type": "uint256"
        },
        {
          "internalType": "uint256",
          "name": "amountB",
          "type": "uint256"
        }
      ],
      "stateMutability": "nonpayable",
      "type": "function"
    },
    {
      "inputs": [
        {
          "internalType": "uint256",
          "name": "amountOut",
          "type": "uint256"
        },
        {
          "internalType": "address[]",
          "name": "path",
          "type": "address[]"
        },
        {
          "internalType": "address",
          "name": "to",
          "type": "address"
        },
        {
          "internalType": "uint256",
          "name": "deadline",
          "type": "uint256"
        }
      ],
      "name": "swapETHForExactTokens",
      "outputs": [
        {
          "internalType": "uint256[]",
          "name": "amounts",
          "type": "uint256[]"
        }
      ],
      "stateMutability": "payable",
      "type": "function"
    },
    {
      "inputs": [
        {
          "internalType": "uint256",
          "name": "amountOutMin",
          "type": "uint256"
        },
        {
          "internalType": "address[]",
          "name": "path",
          "type": "address[]"
        },
        {
          "internalType": "address",
          "name": "to",
          "type": "address"
        },
        {
          "internalType": "uint256",
          "name": "deadline",
          "type": "uint256"
        }
      ],
      "name": "swapExactETHForTokens",
      "outputs": [
        {
          "internalType": "uint256[]",
          "name": "amounts",
          "type": "uint256[]"
        }
      ],
      "stateMutability": "payable",
      "type": "function"
    },
    {
      "inputs": [
        {
          "internalType": "uint256",
          "name": "amountIn",
          "type": "uint256"
        },
        {
          "internalType": "uint256",
          "name": "amountOutMin",
          "type": "uint256"
        },
        {
          "internalType": "address[]",
          "name": "path",
          "type": "address[]"
        },
        {
          "internalType": "address",
          "name": "to",
          "type": "address"
        },
        {
          "internalType": "uint256",
          "name": "deadline",
          "type": "uint256"
        }
      ],
      "name": "swapExactTokensForETH",
      "outputs": [
        {
          "internalType": "uint256[]",
          "name": "amounts",
          "type": "uint256[]"
        }
      ],
      "stateMutability": "nonpayable",
      "type": "function"
    },
    {
      "inputs": [
        {
          "internalType": "uint256",
          "name": "amountIn",
          "type": "uint256"
        },
        {
          "internalType": "uint256",
          "name": "amountOutMin",
          "type": "uint256"
        },
        {
          "internalType": "address[]",
          "name": "path",
          "type": "address[]"
        },
        {
          "internalType": "address",
          "name": "to",
          "type": "address"
        },
        {
          "internalType": "uint256",
          "name": "deadline",
          "type": "uint256"
        }
      ],
      "name": "swapExactTokensForTokens",
      "outputs": [
        {
          "internalType": "uint256[]",
          "name": "amounts",
          "type": "uint256[]"
        }
      ],
      "stateMutability": "nonpayable",
      "type": "function"
    },
    {
      "inputs": [
        {
          "internalType": "uint256",
          "name": "amountOut",
          "type": "uint256"
        },
        {
          "internalType": "uint256",
          "name": "amountInMax",
          "type": "uint256"
        },
        {
          "internalType": "address[]",
          "name": "path",
          "type": "address[]"
        },
        {
          "internalType": "address",
          "name": "to",
          "type": "address"
        },
        {
          "internalType": "uint256",
          "name": "deadline",
          "type": "uint256"
        }
      ],
      "name": "swapTokensForExactETH",
      "outputs": [
        {
          "internalType": "uint256[]",
          "name": "amounts",
          "type": "uint256[]"
        }
      ],
      "stateMutability": "nonpayable",
      "type": "function"
    },
    {
      "inputs": [
        {
          "internalType": "uint256",
          "name": "amountOut",
          "type": "uint256"
        },
        {
          "internalType": "uint256",
          "name": "amountInMax",
          "type": "uint256"
        },
        {
          "internalType": "address[]",
          "name": "path",
          "type": "address[]"
        },
        {
          "internalType": "address",
          "name": "to",
          "type": "address"
        },
        {
          "internalType": "uint256",
          "name": "deadline",
          "type": "uint256"
        }
      ],
      "name": "swapTokensForExactTokens",
      "outputs": [
        {
          "internalType": "uint256[]",
          "name": "amounts",
          "type": "uint256[]"
        }
      ],
      "stateMutability": "nonpayable",
      "type": "function"
    },
    {
      "stateMutability": "payable",
      "type": "receive"
    }
  ],
  "bytecode": "0x60c060405234801561001057600080fd5b5060405161372c38038061372c8339818101604052604081101561003357600080fd5b5080516020909101516001600160601b0319606092831b8116608052911b1660a05260805160601c60a05160601c6135f061013c600039806101285280610a075280610a425280610b245280610d5152806110db528061128552806113da528061146252806116b752806119af5280611c225280611c785280611cac5280611d205280611ec05280612012528061209a525080610bc15280610c985280610e175280610e505280610f8b5280611178528061132752806114945280611607528061173c5280611934528061195d528061198d5280611afa5280611c565280611f6252806120cc52806128b752806128fa5280612e695280612f175280612f9752506135f06000f3fe6080604052600436106101185760003560e01c80638803dbee116100a0578063d06ca61f11610064578063d06ca61f14610748578063ded9382a146107fd578063e8e3370014610870578063f305d719146108f0578063fb3bdb411461093657610151565b80638803dbee146105d9578063ad5c46481461066f578063ad615dec146106a0578063baa2abde146106d6578063c45a01551461073357610151565b806338ed1739116100e757806338ed1739146103db5780634a25d94a1461047157806352707d8c14610507578063571fd012146105075780637ff36ab51461055557610151565b806302751cec1461015657806318cbafe5146101c25780631f00ca74146102a85780632195995c1461035d57610151565b3661015157336001600160a01b037f0000000000000000000000000000000000000000000000000000000000000000161461014f57fe5b005b600080fd5b34801561016257600080fd5b506101a9600480360360c081101561017957600080fd5b506001600160a01b0381358116916020810135916040820135916060810135916080820135169060a001356109ba565b6040805192835260208301919091528051918290030190f35b3480156101ce57600080fd5b50610258600480360360a08110156101e557600080fd5b813591602081013591810190606081016040820135600160201b81111561020b57600080fd5b82018360208201111561021d57600080fd5b803590602001918460208302840111600160201b8311171561023e57600080fd5b91935091506001600160a01b038135169060200135610ad4565b60408051602080825283518183015283519192839290830191858101910280838360005b8381101561029457818101518382015260200161027c565b505050509050019250505060405180910390f35b3480156102b457600080fd5b50610258600480360360408110156102cb57600080fd5b81359190810190604081016020820135600160201b8111156102ec57600080fd5b8201836020820111156102fe57600080fd5b803590602001918460208302840111600160201b8311171561031f57600080fd5b919080806020026020016040519081016040528093929190818152602001838360200280828437600092019190915250929550610e10945050505050565b34801561036957600080fd5b506101a9600480360361016081101561038157600080fd5b506001600160a01b038135811691602081013582169160408201359160608101359160808201359160a08101359091169060c08101359060e081013515159060ff6101008201351690610120810135906101400135610e46565b3480156103e757600080fd5b50610258600480360360a08110156103fe57600080fd5b813591602081013591810190606081016040820135600160201b81111561042457600080fd5b82018360208201111561043657600080fd5b803590602001918460208302840111600160201b8311171561045757600080fd5b91935091506001600160a01b038135169060200135610f40565b34801561047d57600080fd5b50610258600480360360a081101561049457600080fd5b813591602081013591810190606081016040820135600160201b8111156104ba57600080fd5b8201836020820111156104cc57600080fd5b803590602001918460208302840111600160201b831117156104ed57600080fd5b91935091506001600160a01b03813516906020013561108b565b34801561051357600080fd5b506105436004803603608081101561052a57600080fd5b5080359060208101359060408101359060600135611226565b60408051918252519081900360200190f35b6102586004803603608081101561056b57600080fd5b81359190810190604081016020820135600160201b81111561058c57600080fd5b82018360208201111561059e57600080fd5b803590602001918460208302840111600160201b831117156105bf57600080fd5b91935091506001600160a01b03813516906020013561123d565b3480156105e557600080fd5b50610258600480360360a08110156105fc57600080fd5b813591602081013591810190606081016040820135600160201b81111561062257600080fd5b82018360208201111561063457600080fd5b803590602001918460208302840111600160201b8311171561065557600080fd5b91935091506001600160a01b0381351690602001356115bc565b34801561067b57600080fd5b506106846116b5565b604080516001600160a01b039092168252519081900360200190f35b3480156106ac57600080fd5b50610543600480360360608110156106c357600080fd5b50803590602081013590604001356116d9565b3480156106e257600080fd5b506101a9600480360360e08110156106f957600080fd5b506001600160a01b038135811691602081013582169160408201359160608101359160808201359160a08101359091169060c001356116ee565b34801561073f57600080fd5b50610684611932565b34801561075457600080fd5b506102586004803603604081101561076b57600080fd5b81359190810190604081016020820135600160201b81111561078c57600080fd5b82018360208201111561079e57600080fd5b803590602001918460208302840111600160201b831117156107bf57600080fd5b919080806020026020016040519081016040528093929190818152602001838360200280828437600092019190915250929550611956945050505050565b34801561080957600080fd5b506101a9600480360361014081101561082157600080fd5b506001600160a01b0381358116916020810135916040820135916060810135916080820135169060a08101359060c081013515159060ff60e08201351690610100810135906101200135611983565b34801561087c57600080fd5b506108d2600480360361010081101561089457600080fd5b506001600160a01b038135811691602081013582169160408201359160608101359160808201359160a08101359160c0820135169060e00135611a97565b60408051938452602084019290925282820152519081900360600190f35b6108d2600480360360c081101561090657600080fd5b506001600160a01b0381358116916020810135916040820135916060810135916080820135169060a00135611bd3565b6102586004803603608081101561094c57600080fd5b81359190810190604081016020820135600160201b81111561096d57600080fd5b82018360208201111561097f57600080fd5b803590602001918460208302840111600160201b831117156109a057600080fd5b91935091506001600160a01b038135169060200135611e78565b6000808242811015610a01576040805162461bcd60e51b8152602060048201526015602482015260008051602061344c833981519152604482015290519081900360640190fd5b610a30897f00000000000000000000000000000000000000000000000000000000000000008a8a8a308a6116ee565b9093509150610a40898685612209565b7f00000000000000000000000000000000000000000000000000000000000000006001600160a01b0316632e1a7d4d836040518263ffffffff1660e01b815260040180828152602001915050600060405180830381600087803b158015610aa657600080fd5b505af1158015610aba573d6000803e3d6000fd5b50505050610ac88583612373565b50965096945050505050565b60608142811015610b1a576040805162461bcd60e51b8152602060048201526015602482015260008051602061344c833981519152604482015290519081900360640190fd5b6001600160a01b037f00000000000000000000000000000000000000000000000000000000000000001686866000198101818110610b5457fe5b905060200201356001600160a01b03166001600160a01b031614610bbc576040805162461bcd60e51b815260206004820152601a602482015279088b0e6eec2e0a4deeae8cae47440929cac82989288bea082a8960331b604482015290519081900360640190fd5b610c1a7f00000000000000000000000000000000000000000000000000000000000000008988888080602002602001604051908101604052809392919081815260200183836020028082843760009201919091525061246b92505050565b91508682600184510381518110610c2d57fe5b60200260200101511015610c725760405162461bcd60e51b815260040180806020018281038252602881526020018061356f6028913960400191505060405180910390fd5b610d1086866000818110610c8257fe5b905060200201356001600160a01b031633610cf67f00000000000000000000000000000000000000000000000000000000000000008a8a6000818110610cc457fe5b905060200201356001600160a01b03168b8b6001818110610ce157fe5b905060200201356001600160a01b03166125eb565b85600081518110610d0357fe5b60200260200101516126ab565b610d4f82878780806020026020016040519081016040528093929190818152602001838360200280828437600092019190915250309250612808915050565b7f00000000000000000000000000000000000000000000000000000000000000006001600160a01b0316632e1a7d4d83600185510381518110610d8e57fe5b60200260200101516040518263ffffffff1660e01b815260040180828152602001915050600060405180830381600087803b158015610dcc57600080fd5b505af1158015610de0573d6000803e3d6000fd5b50505050610e058483600185510381518110610df857fe5b6020026020010151612373565b509695505050505050565b6060610e3d7f00000000000000000000000000000000000000000000000000000000000000008484612a4e565b90505b92915050565b6000806000610e767f00000000000000000000000000000000000000000000000000000000000000008f8f6125eb565b9050600087610e85578c610e89565b6000195b6040805163d505accf60e01b815233600482015230602482015260448101839052606481018c905260ff8a16608482015260a4810189905260c4810188905290519192506001600160a01b0384169163d505accf9160e48082019260009290919082900301818387803b158015610eff57600080fd5b505af1158015610f13573d6000803e3d6000fd5b50505050610f268f8f8f8f8f8f8f6116ee565b809450819550505050509b509b9950505050505050505050565b60608142811015610f86576040805162461bcd60e51b8152602060048201526015602482015260008051602061344c833981519152604482015290519081900360640190fd5b610fe47f00000000000000000000000000000000000000000000000000000000000000008988888080602002602001604051908101604052809392919081815260200183836020028082843760009201919091525061246b92505050565b91508682600184510381518110610ff757fe5b6020026020010151101561103c5760405162461bcd60e51b815260040180806020018281038252602881526020018061356f6028913960400191505060405180910390fd5b61104c86866000818110610c8257fe5b610e0582878780806020026020016040519081016040528093929190818152602001838360200280828437600092019190915250899250612808915050565b606081428110156110d1576040805162461bcd60e51b8152602060048201526015602482015260008051602061344c833981519152604482015290519081900360640190fd5b6001600160a01b037f0000000000000000000000000000000000000000000000000000000000000000168686600019810181811061110b57fe5b905060200201356001600160a01b03166001600160a01b031614611173576040805162461bcd60e51b815260206004820152601a602482015279088b0e6eec2e0a4deeae8cae47440929cac82989288bea082a8960331b604482015290519081900360640190fd5b6111d17f000000000000000000000000000000000000000000000000000000000000000089888880806020026020016040519081016040528093929190818152602001838360200280828437600092019190915250612a4e92505050565b915086826000815181106111e157fe5b60200260200101511115610c725760405162461bcd60e51b81526004018080602001828103825260248152602001806135976024913960400191505060405180910390fd5b600061123485858585612bad565b95945050505050565b60608142811015611283576040805162461bcd60e51b8152602060048201526015602482015260008051602061344c833981519152604482015290519081900360640190fd5b7f00000000000000000000000000000000000000000000000000000000000000006001600160a01b0316868660008181106112ba57fe5b905060200201356001600160a01b03166001600160a01b031614611322576040805162461bcd60e51b815260206004820152601a602482015279088b0e6eec2e0a4deeae8cae47440929cac82989288bea082a8960331b604482015290519081900360640190fd5b6113807f00000000000000000000000000000000000000000000000000000000000000003488888080602002602001604051908101604052809392919081815260200183836020028082843760009201919091525061246b92505050565b9150868260018451038151811061139357fe5b602002602001015110156113d85760405162461bcd60e51b815260040180806020018281038252602881526020018061356f6028913960400191505060405180910390fd5b7f00000000000000000000000000000000000000000000000000000000000000006001600160a01b031663d0e30db08360008151811061141457fe5b60200260200101516040518263ffffffff1660e01b81526004016000604051808303818588803b15801561144757600080fd5b505af115801561145b573d6000803e3d6000fd5b50505050507f00000000000000000000000000000000000000000000000000000000000000006001600160a01b031663a9059cbb6114dd7f0000000000000000000000000000000000000000000000000000000000000000898960008181106114c057fe5b905060200201356001600160a01b03168a8a6001818110610ce157fe5b846000815181106114ea57fe5b60200260200101516040518363ffffffff1660e01b815260040180836001600160a01b03166001600160a01b0316815260200182815260200192505050602060405180830381600087803b15801561154157600080fd5b505af1158015611555573d6000803e3d6000fd5b505050506040513d602081101561156b57600080fd5b505161157357fe5b6115b282878780806020026020016040519081016040528093929190818152602001838360200280828437600092019190915250899250612808915050565b5095945050505050565b60608142811015611602576040805162461bcd60e51b8152602060048201526015602482015260008051602061344c833981519152604482015290519081900360640190fd5b6116607f000000000000000000000000000000000000000000000000000000000000000089888880806020026020016040519081016040528093929190818152602001838360200280828437600092019190915250612a4e92505050565b9150868260008151811061167057fe5b6020026020010151111561103c5760405162461bcd60e51b81526004018080602001828103825260248152602001806135976024913960400191505060405180910390fd5b7f000000000000000000000000000000000000000000000000000000000000000081565b60006116e6848484612cae565b949350505050565b6000808242811015611735576040805162461bcd60e51b8152602060048201526015602482015260008051602061344c833981519152604482015290519081900360640190fd5b60006117627f00000000000000000000000000000000000000000000000000000000000000008c8c6125eb565b604080516323b872dd60e01b81523360048201526001600160a01b03831660248201819052604482018d9052915192935090916323b872dd916064808201926020929091908290030181600087803b1580156117bd57600080fd5b505af11580156117d1573d6000803e3d6000fd5b505050506040513d60208110156117e757600080fd5b50506040805163226bf2d160e21b81526001600160a01b03888116600483015282516000938493928616926389afcb44926024808301939282900301818787803b15801561183457600080fd5b505af1158015611848573d6000803e3d6000fd5b505050506040513d604081101561185e57600080fd5b508051602090910151909250905060006118788e8e612d5a565b509050806001600160a01b03168e6001600160a01b03161461189b57818361189e565b82825b90975095508a8710156118e25760405162461bcd60e51b815260040180806020018281038252602381526020018061346c6023913960400191505060405180910390fd5b898610156119215760405162461bcd60e51b81526004018080602001828103825260238152602001806135006023913960400191505060405180910390fd5b505050505097509795505050505050565b7f000000000000000000000000000000000000000000000000000000000000000081565b6060610e3d7f0000000000000000000000000000000000000000000000000000000000000000848461246b565b60008060006119d37f00000000000000000000000000000000000000000000000000000000000000008e7f00000000000000000000000000000000000000000000000000000000000000006125eb565b90506000876119e2578c6119e6565b6000195b6040805163d505accf60e01b815233600482015230602482015260448101839052606481018c905260ff8a16608482015260a4810189905260c4810188905290519192506001600160a01b0384169163d505accf9160e48082019260009290919082900301818387803b158015611a5c57600080fd5b505af1158015611a70573d6000803e3d6000fd5b50505050611a828e8e8e8e8e8e6109ba565b909f909e509c50505050505050505050505050565b60008060008342811015611ae0576040805162461bcd60e51b8152602060048201526015602482015260008051602061344c833981519152604482015290519081900360640190fd5b611aee8c8c8c8c8c8c612e38565b90945092506000611b207f00000000000000000000000000000000000000000000000000000000000000008e8e6125eb565b9050611b2e8d3383886126ab565b611b3a8c3383876126ab565b806001600160a01b0316636a627842886040518263ffffffff1660e01b815260040180826001600160a01b03166001600160a01b03168152602001915050602060405180830381600087803b158015611b9257600080fd5b505af1158015611ba6573d6000803e3d6000fd5b505050506040513d6020811015611bbc57600080fd5b5051949d939c50939a509198505050505050505050565b60008060008342811015611c1c576040805162461bcd60e51b8152602060048201526015602482015260008051602061344c833981519152604482015290519081900360640190fd5b611c4a8a7f00000000000000000000000000000000000000000000000000000000000000008b348c8c612e38565b90945092506000611c9c7f00000000000000000000000000000000000000000000000000000000000000008c7f00000000000000000000000000000000000000000000000000000000000000006125eb565b9050611caa8b3383886126ab565b7f00000000000000000000000000000000000000000000000000000000000000006001600160a01b031663d0e30db0856040518263ffffffff1660e01b81526004016000604051808303818588803b158015611d0557600080fd5b505af1158015611d19573d6000803e3d6000fd5b50505050507f00000000000000000000000000000000000000000000000000000000000000006001600160a01b031663a9059cbb82866040518363ffffffff1660e01b815260040180836001600160a01b03166001600160a01b0316815260200182815260200192505050602060405180830381600087803b158015611d9e57600080fd5b505af1158015611db2573d6000803e3d6000fd5b505050506040513d6020811015611dc857600080fd5b5051611dd057fe5b806001600160a01b0316636a627842886040518263ffffffff1660e01b815260040180826001600160a01b03166001600160a01b03168152602001915050602060405180830381600087803b158015611e2857600080fd5b505af1158015611e3c573d6000803e3d6000fd5b505050506040513d6020811015611e5257600080fd5b5051925034841015611e6a57611e6a33853403612373565b505096509650969350505050565b60608142811015611ebe576040805162461bcd60e51b8152602060048201526015602482015260008051602061344c833981519152604482015290519081900360640190fd5b7f00000000000000000000000000000000000000000000000000000000000000006001600160a01b031686866000818110611ef557fe5b905060200201356001600160a01b03166001600160a01b031614611f5d576040805162461bcd60e51b815260206004820152601a602482015279088b0e6eec2e0a4deeae8cae47440929cac82989288bea082a8960331b604482015290519081900360640190fd5b611fbb7f000000000000000000000000000000000000000000000000000000000000000088888880806020026020016040519081016040528093929190818152602001838360200280828437600092019190915250612a4e92505050565b91503482600081518110611fcb57fe5b602002602001015111156120105760405162461bcd60e51b81526004018080602001828103825260248152602001806135976024913960400191505060405180910390fd5b7f00000000000000000000000000000000000000000000000000000000000000006001600160a01b031663d0e30db08360008151811061204c57fe5b60200260200101516040518263ffffffff1660e01b81526004016000604051808303818588803b15801561207f57600080fd5b505af1158015612093573d6000803e3d6000fd5b50505050507f00000000000000000000000000000000000000000000000000000000000000006001600160a01b031663a9059cbb6120f87f0000000000000000000000000000000000000000000000000000000000000000898960008181106114c057fe5b8460008151811061210557fe5b60200260200101516040518363ffffffff1660e01b815260040180836001600160a01b03166001600160a01b0316815260200182815260200192505050602060405180830381600087803b15801561215c57600080fd5b505af1158015612170573d6000803e3d6000fd5b505050506040513d602081101561218657600080fd5b505161218e57fe5b6121cd82878780806020026020016040519081016040528093929190818152602001838360200280828437600092019190915250899250612808915050565b816000815181106121da57fe5b60200260200101513411156115b2576115b233836000815181106121fa57fe5b60200260200101513403612373565b604080516001600160a01b038481166024830152604480830185905283518084039091018152606490920183526020820180516001600160e01b031663a9059cbb60e01b178152925182516000946060949389169392918291908083835b602083106122865780518252601f199092019160209182019101612267565b6001836020036101000a0380198251168184511680821785525050505050509050019150506000604051808303816000865af19150503d80600081146122e8576040519150601f19603f3d011682016040523d82523d6000602084013e6122ed565b606091505b509150915081801561231b57508051158061231b575080806020019051602081101561231857600080fd5b50515b61236c576040805162461bcd60e51b815260206004820152601f60248201527f5472616e7366657248656c7065723a205452414e534645525f4641494c454400604482015290519081900360640190fd5b5050505050565b604080516000808252602082019092526001600160a01b0384169083906040518082805190602001908083835b602083106123bf5780518252601f1990920191602091820191016123a0565b6001836020036101000a03801982511681845116808217855250505050505090500191505060006040518083038185875af1925050503d8060008114612421576040519150601f19603f3d011682016040523d82523d6000602084013e612426565b606091505b50509050806124665760405162461bcd60e51b81526004018080602001828103825260238152602001806134dd6023913960400191505060405180910390fd5b505050565b60606002825110156124c4576040805162461bcd60e51b815260206004820152601b60248201527f4458737761704c6962726172793a20494e56414c49445f504154480000000000604482015290519081900360640190fd5b815167ffffffffffffffff811180156124dc57600080fd5b50604051908082528060200260200182016040528015612506578160200160208202803683370190505b509050828160008151811061251757fe5b60200260200101818152505060005b60018351038110156125e3576000806125698786858151811061254557fe5b602002602001015187866001018151811061255c57fe5b60200260200101516130ac565b915091506125bf84848151811061257c57fe5b602002602001015183836125ba8b8a898151811061259657fe5b60200260200101518b8a600101815181106125ad57fe5b602002602001015161317a565b612bad565b8484600101815181106125ce57fe5b60209081029190910101525050600101612526565b509392505050565b60008060006125fa8585612d5a565b604080516bffffffffffffffffffffffff19606094851b811660208084019190915293851b81166034830152825160288184030181526048830184528051908501206001600160f81b031960688401529a90941b9093166069840152607d8301989098527f25dd05d38222d917e4487e1da5be545f4c08adc197eb59f87c597a13cf7791d2609d808401919091528851808403909101815260bd909201909752805196019590952095945050505050565b604080516001600160a01b0385811660248301528481166044830152606480830185905283518084039091018152608490920183526020820180516001600160e01b03166323b872dd60e01b17815292518251600094606094938a169392918291908083835b602083106127305780518252601f199092019160209182019101612711565b6001836020036101000a0380198251168184511680821785525050505050509050019150506000604051808303816000865af19150503d8060008114612792576040519150601f19603f3d011682016040523d82523d6000602084013e612797565b606091505b50915091508180156127c55750805115806127c557508080602001905160208110156127c257600080fd5b50515b6128005760405162461bcd60e51b815260040180806020018281038252602481526020018061354b6024913960400191505060405180910390fd5b505050505050565b60005b6001835103811015612a485760008084838151811061282657fe5b602002602001015185846001018151811061283d57fe5b60200260200101519150915060006128558383612d5a565b509050600087856001018151811061286957fe5b60200260200101519050600080836001600160a01b0316866001600160a01b0316146128975782600061289b565b6000835b91509150600060028a510388106128b257886128f3565b6128f37f0000000000000000000000000000000000000000000000000000000000000000878c8b600201815181106128e657fe5b60200260200101516125eb565b90506129207f000000000000000000000000000000000000000000000000000000000000000088886125eb565b6001600160a01b031663022c0d9f84848460006040519080825280601f01601f19166020018201604052801561295d576020820181803683370190505b506040518563ffffffff1660e01b815260040180858152602001848152602001836001600160a01b03166001600160a01b0316815260200180602001828103825283818151815260200191508051906020019080838360005b838110156129ce5781810151838201526020016129b6565b50505050905090810190601f1680156129fb5780820380516001836020036101000a031916815260200191505b5095505050505050600060405180830381600087803b158015612a1d57600080fd5b505af1158015612a31573d6000803e3d6000fd5b50506001909901985061280b975050505050505050565b50505050565b6060600282511015612aa7576040805162461bcd60e51b815260206004820152601b60248201527f4458737761704c6962726172793a20494e56414c49445f504154480000000000604482015290519081900360640190fd5b815167ffffffffffffffff81118015612abf57600080fd5b50604051908082528060200260200182016040528015612ae9578160200160208202803683370190505b5090508281600183510381518110612afd57fe5b60209081029190910101528151600019015b80156125e357600080612b3f87866001860381518110612b2b57fe5b602002602001015187868151811061255c57fe5b91509150612b88848481518110612b5257fe5b60200260200101518383612b838b8a60018a0381518110612b6f57fe5b60200260200101518b8a815181106125ad57fe5b613205565b846001850381518110612b9757fe5b6020908102919091010152505060001901612b0f565b6000808511612bed5760405162461bcd60e51b81526004018080602001828103825260288152602001806135236028913960400191505060405180910390fd5b600084118015612bfd5750600083115b612c385760405162461bcd60e51b815260040180806020018281038252602581526020018061348f6025913960400191505060405180910390fd5b6000612c5c612c4f6127108563ffffffff61330516565b879063ffffffff61335516565b90506000612c70828663ffffffff61335516565b90506000612c9683612c8a8961271063ffffffff61335516565b9063ffffffff6133b816565b9050808281612ca157fe5b0498975050505050505050565b6000808411612cee5760405162461bcd60e51b815260040180806020018281038252602281526020018061342a6022913960400191505060405180910390fd5b600083118015612cfe5750600082115b612d395760405162461bcd60e51b815260040180806020018281038252602581526020018061348f6025913960400191505060405180910390fd5b82612d4a858463ffffffff61335516565b81612d5157fe5b04949350505050565b600080826001600160a01b0316846001600160a01b03161415612dae5760405162461bcd60e51b81526004018080602001828103825260228152602001806134086022913960400191505060405180910390fd5b826001600160a01b0316846001600160a01b031610612dce578284612dd1565b83835b90925090506001600160a01b038216612e31576040805162461bcd60e51b815260206004820152601b60248201527f4458737761704c6962726172793a205a45524f5f414444524553530000000000604482015290519081900360640190fd5b9250929050565b6040805163e6a4390560e01b81526001600160a01b03888116600483015287811660248301529151600092839283927f00000000000000000000000000000000000000000000000000000000000000009092169163e6a4390591604480820192602092909190829003018186803b158015612eb257600080fd5b505afa158015612ec6573d6000803e3d6000fd5b505050506040513d6020811015612edc57600080fd5b50516001600160a01b03161415612f8f57604080516364e329cb60e11b81526001600160a01b038a81166004830152898116602483015291517f00000000000000000000000000000000000000000000000000000000000000009092169163c9c65396916044808201926020929091908290030181600087803b158015612f6257600080fd5b505af1158015612f76573d6000803e3d6000fd5b505050506040513d6020811015612f8c57600080fd5b50505b600080612fbd7f00000000000000000000000000000000000000000000000000000000000000008b8b6130ac565b91509150816000148015612fcf575080155b15612fdf5787935086925061309f565b6000612fec898484612cae565b905087811161303f57858110156130345760405162461bcd60e51b81526004018080602001828103825260238152602001806135006023913960400191505060405180910390fd5b88945092508261309d565b600061304c898486612cae565b90508981111561305857fe5b878110156130975760405162461bcd60e51b815260040180806020018281038252602381526020018061346c6023913960400191505060405180910390fd5b94508793505b505b5050965096945050505050565b60008060006130bb8585612d5a565b5090506000806130cc8888886125eb565b6001600160a01b0316630902f1ac6040518163ffffffff1660e01b815260040160606040518083038186803b15801561310457600080fd5b505afa158015613118573d6000803e3d6000fd5b505050506040513d606081101561312e57600080fd5b5080516020909101516dffffffffffffffffffffffffffff91821693501690506001600160a01b038781169084161461316857808261316b565b81815b90999098509650505050505050565b6000806131878484612d5a565b5090506131958585856125eb565b6001600160a01b03166354cf2aeb6040518163ffffffff1660e01b815260040160206040518083038186803b1580156131cd57600080fd5b505afa1580156131e1573d6000803e3d6000fd5b505050506040513d60208110156131f757600080fd5b505160ff1695945050505050565b60008085116132455760405162461bcd60e51b81526004018080602001828103825260298152602001806134b46029913960400191505060405180910390fd5b6000841180156132555750600083115b6132905760405162461bcd60e51b815260040180806020018281038252602581526020018061348f6025913960400191505060405180910390fd5b60006132b46127106132a8878963ffffffff61335516565b9063ffffffff61335516565b905060006132dd6132cd6127108663ffffffff61330516565b6132a8878a63ffffffff61330516565b90506132fa60018284816132ed57fe5b049063ffffffff6133b816565b979650505050505050565b80820382811115610e40576040805162461bcd60e51b815260206004820152601560248201527464732d6d6174682d7375622d756e646572666c6f7760581b604482015290519081900360640190fd5b60008115806133705750508082028282828161336d57fe5b04145b610e40576040805162461bcd60e51b815260206004820152601460248201527364732d6d6174682d6d756c2d6f766572666c6f7760601b604482015290519081900360640190fd5b80820182811015610e40576040805162461bcd60e51b815260206004820152601460248201527364732d6d6174682d6164642d6f766572666c6f7760601b604482015290519081900360640190fdfe4458737761704c6962726172793a204944454e544943414c5f4144445245535345534458737761704c6962726172793a20494e53554646494349454e545f414d4f554e54445873776170526f757465723a20455850495245440000000000000000000000445873776170526f757465723a20494e53554646494349454e545f415f414d4f554e544458737761704c6962726172793a20494e53554646494349454e545f4c49515549444954594458737761704c6962726172793a20494e53554646494349454e545f4f55545055545f414d4f554e545472616e7366657248656c7065723a204554485f5452414e534645525f4641494c4544445873776170526f757465723a20494e53554646494349454e545f425f414d4f554e544458737761704c6962726172793a20494e53554646494349454e545f494e5055545f414d4f554e545472616e7366657248656c7065723a205452414e534645525f46524f4d5f4641494c4544445873776170526f757465723a20494e53554646494349454e545f4f55545055545f414d4f554e54445873776170526f757465723a204558434553534956455f494e5055545f414d4f554e54a26469706673582212200d6cb958d9fb9bdbe6437550ed0a080662dfb5babbdd650f20faad97a52fd24364736f6c63430006060033",
  "compiler": {
    "name": "solc",
    "version": "0.6.6+commit.6c089d02.Emscripten.clang",
    "optimizer": {
      "enabled": true,
      "runs": 200
    },
    "evmVersion": "istanbul"
  }
}