{
  "fileName": "ExampleSwapToPrice.sol",
  "contractName": "ExampleSwapToPrice",
  "source": "pragma solidity =0.6.6;\n\nimport 'dxswap-core/contracts/interfaces/IDXswapPair.sol';\n\nimport '../libraries/Babylonian.sol';\nimport '../libraries/TransferHelper.sol';\nimport '../interfaces/IERC20.sol';\nimport '../interfaces/IDXswapRouter.sol';\nimport '../libraries/SafeMath.sol';\nimport '../libraries/DXswapLibrary.sol';\n\ncontract ExampleSwapToPrice {\n    using SafeMath for uint256;\n\n    IDXswapRouter public immutable router;\n    address public immutable factory;\n\n    constructor(address factory_, IDXswapRouter router_) public {\n        factory = factory_;\n        router = router_;\n    }\n\n    // computes the direction and magnitude of the profit-maximizing trade\n    function computeProfitMaximizingTrade(\n        uint256 truePriceTokenA,\n        uint256 truePriceTokenB,\n        uint256 reserveA,\n        uint256 reserveB,\n        uint256 swapFee\n    ) pure public returns (bool aToB, uint256 amountIn) {\n        aToB = reserveA.mul(truePriceTokenB) / reserveB < truePriceTokenA;\n\n        uint256 invariant = reserveA.mul(reserveB);\n\n        uint256 leftSide = Babylonian.sqrt(\n            invariant.mul(aToB ? truePriceTokenA : truePriceTokenB).mul(10000) /\n            uint256(aToB ? truePriceTokenB : truePriceTokenA).mul(uint(10000).sub(swapFee))\n        );\n        uint256 rightSide = (aToB ? reserveA.mul(10000) : reserveB.mul(10000)) / uint(10000).sub(swapFee);\n\n        // compute the amount that must be sent to move the price to the profit-maximizing price\n        amountIn = leftSide.sub(rightSide);\n    }\n\n    // swaps an amount of either token such that the trade is profit-maximizing, given an external true price\n    // true price is expressed in the ratio of token A to token B\n    // caller must approve this contract to spend whichever token is intended to be swapped\n    function swapToPrice(\n        address tokenA,\n        address tokenB,\n        uint256 truePriceTokenA,\n        uint256 truePriceTokenB,\n        uint256 maxSpendTokenA,\n        uint256 maxSpendTokenB,\n        address to,\n        uint256 deadline\n    ) public {\n        // true price is expressed as a ratio, so both values must be non-zero\n        require(truePriceTokenA != 0 && truePriceTokenB != 0, \"ExampleSwapToPrice: ZERO_PRICE\");\n        // caller can specify 0 for either if they wish to swap in only one direction, but not both\n        require(maxSpendTokenA != 0 || maxSpendTokenB != 0, \"ExampleSwapToPrice: ZERO_SPEND\");\n\n        bool aToB;\n        uint256 amountIn;\n        {\n            (uint256 reserveA, uint256 reserveB) = DXswapLibrary.getReserves(factory, tokenA, tokenB);\n            uint256 swapFee = DXswapLibrary.getSwapFee(factory, tokenA, tokenB);\n            (aToB, amountIn) = computeProfitMaximizingTrade(\n                truePriceTokenA, truePriceTokenB,\n                reserveA, reserveB, swapFee\n            );\n        }\n\n        // spend up to the allowance of the token in\n        uint256 maxSpend = aToB ? maxSpendTokenA : maxSpendTokenB;\n        if (amountIn > maxSpend) {\n            amountIn = maxSpend;\n        }\n\n        address tokenIn = aToB ? tokenA : tokenB;\n        address tokenOut = aToB ? tokenB : tokenA;\n        TransferHelper.safeTransferFrom(tokenIn, msg.sender, address(this), amountIn);\n        TransferHelper.safeApprove(tokenIn, address(router), amountIn);\n\n        address[] memory path = new address[](2);\n        path[0] = tokenIn;\n        path[1] = tokenOut;\n\n        router.swapExactTokensForTokens(\n            amountIn,\n            0, // amountOutMin: we can skip computing this number because the math is tested\n            path,\n            to,\n            deadline\n        );\n    }\n}\n",
  "sourcePath": "contracts/examples/ExampleSwapToPrice.sol",
  "abi": [
    {
      "inputs": [
        {
          "internalType": "address",
          "name": "factory_",
          "type": "address"
        },
        {
          "internalType": "contract IDXswapRouter",
          "name": "router_",
          "type": "address"
        }
      ],
      "stateMutability": "nonpayable",
      "type": "constructor"
    },
    {
      "inputs": [
        {
          "internalType": "uint256",
          "name": "truePriceTokenA",
          "type": "uint256"
        },
        {
          "internalType": "uint256",
          "name": "truePriceTokenB",
          "type": "uint256"
        },
        {
          "internalType": "uint256",
          "name": "reserveA",
          "type": "uint256"
        },
        {
          "internalType": "uint256",
          "name": "reserveB",
          "type": "uint256"
        },
        {
          "internalType": "uint256",
          "name": "swapFee",
          "type": "uint256"
        }
      ],
      "name": "computeProfitMaximizingTrade",
      "outputs": [
        {
          "internalType": "bool",
          "name": "aToB",
          "type": "bool"
        },
        {
          "internalType": "uint256",
          "name": "amountIn",
          "type": "uint256"
        }
      ],
      "stateMutability": "pure",
      "type": "function"
    },
    {
      "inputs": [],
      "name": "factory",
      "outputs": [
        {
          "internalType": "address",
          "name": "",
          "type": "address"
        }
      ],
      "stateMutability": "view",
      "type": "function"
    },
    {
      "inputs": [],
      "name": "router",
      "outputs": [
        {
          "internalType": "contract IDXswapRouter",
          "name": "",
          "type": "address"
        }
      ],
      "stateMutability": "view",
      "type": "function"
    },
    {
      "inputs": [
        {
          "internalType": "address",
          "name": "tokenA",
          "type": "address"
        },
        {
          "internalType": "address",
          "name": "tokenB",
          "type": "address"
        },
        {
          "internalType": "uint256",
          "name": "truePriceTokenA",
          "type": "uint256"
        },
        {
          "internalType": "uint256",
          "name": "truePriceTokenB",
          "type": "uint256"
        },
        {
          "internalType": "uint256",
          "name": "maxSpendTokenA",
          "type": "uint256"
        },
        {
          "internalType": "uint256",
          "name": "maxSpendTokenB",
          "type": "uint256"
        },
        {
          "internalType": "address",
          "name": "to",
          "type": "address"
        },
        {
          "internalType": "uint256",
          "name": "deadline",
          "type": "uint256"
        }
      ],
      "name": "swapToPrice",
      "outputs": [],
      "stateMutability": "nonpayable",
      "type": "function"
    }
  ],
  "bytecode": "0x60c060405234801561001057600080fd5b50604051610e26380380610e268339818101604052604081101561003357600080fd5b5080516020909101516001600160601b0319606092831b811660a052911b1660805260805160601c60a05160601c610d94610092600039806102f0528061032152806106065250806103b25280610455528061062a5250610d946000f3fe608060405234801561001057600080fd5b506004361061004c5760003560e01c806398f1254a14610051578063bef90fd3146100a1578063c45a0155146100f8578063f887ea401461011c575b600080fd5b610086600480360360a081101561006757600080fd5b5080359060208101359060408101359060608101359060800135610124565b60408051921515835260208301919091528051918290030190f35b6100f660048036036101008110156100b857600080fd5b506001600160a01b038135811691602081013582169160408201359160608101359160808201359160a08101359160c0820135169060e00135610228565b005b610100610604565b604080516001600160a01b039092168252519081900360200190f35b610100610628565b6000808684610139878963ffffffff61064c16565b8161014057fe5b041091506000610156868663ffffffff61064c16565b905060006101bb61018b6101726127108863ffffffff6106b516565b8661017d578b61017f565b8a5b9063ffffffff61064c16565b6101ae61271061017f8861019f578c6101a1565b8d5b879063ffffffff61064c16565b816101b557fe5b04610705565b905060006101d16127108763ffffffff6106b516565b856101ed576101e88861271063ffffffff61064c16565b6101ff565b6101ff8961271063ffffffff61064c16565b8161020657fe5b049050610219828263ffffffff6106b516565b93505050509550959350505050565b851580159061023657508415155b610287576040805162461bcd60e51b815260206004820152601e60248201527f4578616d706c6553776170546f50726963653a205a45524f5f50524943450000604482015290519081900360640190fd5b8315158061029457508215155b6102e5576040805162461bcd60e51b815260206004820152601e60248201527f4578616d706c6553776170546f50726963653a205a45524f5f5350454e440000604482015290519081900360640190fd5b6000806000806103167f00000000000000000000000000000000000000000000000000000000000000008d8d610757565b9150915060006103477f00000000000000000000000000000000000000000000000000000000000000008e8e610825565b90506103568b8b858585610124565b809550819650505050505060008261036e5785610370565b865b90508082111561037e578091505b60008361038b578a61038d565b8b5b905060008461039c578c61039e565b8b5b90506103ac823330876108b3565b6103d7827f000000000000000000000000000000000000000000000000000000000000000086610a10565b6040805160028082526060808301845292602083019080368337019050509050828160008151811061040557fe5b60200260200101906001600160a01b031690816001600160a01b031681525050818160018151811061043357fe5b60200260200101906001600160a01b031690816001600160a01b0316815250507f00000000000000000000000000000000000000000000000000000000000000006001600160a01b03166338ed1739866000848c8c6040518663ffffffff1660e01b81526004018086815260200185815260200180602001846001600160a01b03166001600160a01b03168152602001838152602001828103825285818151815260200191508051906020019060200280838360005b838110156105015781810151838201526020016104e9565b505050509050019650505050505050600060405180830381600087803b15801561052a57600080fd5b505af115801561053e573d6000803e3d6000fd5b505050506040513d6000823e601f3d908101601f19168201604052602081101561056757600080fd5b810190808051604051939291908464010000000082111561058757600080fd5b90830190602082018581111561059c57600080fd5b82518660208202830111640100000000821117156105b957600080fd5b82525081516020918201928201910280838360005b838110156105e65781810151838201526020016105ce565b50505050905001604052505050505050505050505050505050505050565b7f000000000000000000000000000000000000000000000000000000000000000081565b7f000000000000000000000000000000000000000000000000000000000000000081565b60008115806106675750508082028282828161066457fe5b04145b6106af576040805162461bcd60e51b815260206004820152601460248201527364732d6d6174682d6d756c2d6f766572666c6f7760601b604482015290519081900360640190fd5b92915050565b808203828111156106af576040805162461bcd60e51b815260206004820152601560248201527464732d6d6174682d7375622d756e646572666c6f7760581b604482015290519081900360640190fd5b60006003821115610748575080600160028204015b818110156107425780915060028182858161073157fe5b04018161073a57fe5b04905061071a565b50610752565b8115610752575060015b919050565b60008060006107668585610b7a565b509050600080610777888888610c58565b6001600160a01b0316630902f1ac6040518163ffffffff1660e01b815260040160606040518083038186803b1580156107af57600080fd5b505afa1580156107c3573d6000803e3d6000fd5b505050506040513d60608110156107d957600080fd5b5080516020909101516dffffffffffffffffffffffffffff91821693501690506001600160a01b0387811690841614610813578082610816565b81815b90999098509650505050505050565b6000806108328484610b7a565b509050610840858585610c58565b6001600160a01b03166354cf2aeb6040518163ffffffff1660e01b815260040160206040518083038186803b15801561087857600080fd5b505afa15801561088c573d6000803e3d6000fd5b505050506040513d60208110156108a257600080fd5b505163ffffffff1695945050505050565b604080516001600160a01b0385811660248301528481166044830152606480830185905283518084039091018152608490920183526020820180516001600160e01b03166323b872dd60e01b17815292518251600094606094938a169392918291908083835b602083106109385780518252601f199092019160209182019101610919565b6001836020036101000a0380198251168184511680821785525050505050509050019150506000604051808303816000865af19150503d806000811461099a576040519150601f19603f3d011682016040523d82523d6000602084013e61099f565b606091505b50915091508180156109cd5750805115806109cd57508080602001905160208110156109ca57600080fd5b50515b610a085760405162461bcd60e51b8152600401808060200182810382526024815260200180610d3b6024913960400191505060405180910390fd5b505050505050565b604080516001600160a01b038481166024830152604480830185905283518084039091018152606490920183526020820180516001600160e01b031663095ea7b360e01b178152925182516000946060949389169392918291908083835b60208310610a8d5780518252601f199092019160209182019101610a6e565b6001836020036101000a0380198251168184511680821785525050505050509050019150506000604051808303816000865af19150503d8060008114610aef576040519150601f19603f3d011682016040523d82523d6000602084013e610af4565b606091505b5091509150818015610b22575080511580610b225750808060200190516020811015610b1f57600080fd5b50515b610b73576040805162461bcd60e51b815260206004820152601e60248201527f5472616e7366657248656c7065723a20415050524f56455f4641494c45440000604482015290519081900360640190fd5b5050505050565b600080826001600160a01b0316846001600160a01b03161415610bce5760405162461bcd60e51b8152600401808060200182810382526022815260200180610d196022913960400191505060405180910390fd5b826001600160a01b0316846001600160a01b031610610bee578284610bf1565b83835b90925090506001600160a01b038216610c51576040805162461bcd60e51b815260206004820152601b60248201527f4458737761704c6962726172793a205a45524f5f414444524553530000000000604482015290519081900360640190fd5b9250929050565b6000806000610c678585610b7a565b604080516bffffffffffffffffffffffff19606094851b811660208084019190915293851b81166034830152825160288184030181526048830184528051908501206001600160f81b031960688401529a90941b9093166069840152607d8301989098527f4e9705def664ab284f8d926dd36c91628cc804185ca7ea83ac2c65d79f51524a609d808401919091528851808403909101815260bd90920190975280519601959095209594505050505056fe4458737761704c6962726172793a204944454e544943414c5f4144445245535345535472616e7366657248656c7065723a205452414e534645525f46524f4d5f4641494c4544a264697066735822122091856203405261ee17d6c1b746185e297f55c3b3956081821ac11343bb5f8b3964736f6c63430006060033",
  "compiler": {
    "name": "solc",
    "version": "0.6.6+commit.6c089d02.Emscripten.clang",
    "optimizer": {
      "enabled": true,
      "runs": 200
    },
    "evmVersion": "istanbul"
  }
}